{
  "address": "0x3419441DD59a21746Ac55889a9B3Ef8B5f6E3cFc",
  "abi": [
    {
      "inputs": [
        {
          "internalType": "contract IPollFactory",
          "name": "_pollFactory",
          "type": "address"
        },
        {
          "internalType": "contract IMessageProcessorFactory",
          "name": "_messageProcessorFactory",
          "type": "address"
        },
        {
          "internalType": "contract ITallyFactory",
          "name": "_tallyFactory",
          "type": "address"
        },
        {
          "internalType": "contract SignUpGatekeeper",
          "name": "_signUpGatekeeper",
          "type": "address"
        },
        {
          "internalType": "contract InitialVoiceCreditProxy",
          "name": "_initialVoiceCreditProxy",
          "type": "address"
        },
        {
          "internalType": "uint8",
          "name": "_stateTreeDepth",
          "type": "uint8"
        },
        {
          "internalType": "uint256[5]",
          "name": "_emptyBallotRoots",
          "type": "uint256[5]"
        }
      ],
      "stateMutability": "nonpayable",
      "type": "constructor"
    },
    {
      "inputs": [],
      "name": "DefaultZeroBadIndex",
      "type": "error"
    },
    {
      "inputs": [],
      "name": "DepthTooLarge",
      "type": "error"
    },
    {
      "inputs": [],
      "name": "InvalidMessage",
      "type": "error"
    },
    {
      "inputs": [],
      "name": "InvalidPubKey",
      "type": "error"
    },
    {
      "inputs": [],
      "name": "NumberOfLeavesCannotBeZero",
      "type": "error"
    },
    {
      "inputs": [
        {
          "internalType": "address",
          "name": "owner",
          "type": "address"
        }
      ],
      "name": "OwnableInvalidOwner",
      "type": "error"
    },
    {
      "inputs": [
        {
          "internalType": "address",
          "name": "account",
          "type": "address"
        }
      ],
      "name": "OwnableUnauthorizedAccount",
      "type": "error"
    },
    {
      "inputs": [
        {
          "internalType": "address",
          "name": "_poll",
          "type": "address"
        }
      ],
      "name": "PollAddressDoesNotExist",
      "type": "error"
    },
    {
      "inputs": [
        {
          "internalType": "uint256",
          "name": "pollId",
          "type": "uint256"
        }
      ],
      "name": "PollDoesNotExist",
      "type": "error"
    },
    {
      "inputs": [],
      "name": "PoseidonHashLibrariesNotLinked",
      "type": "error"
    },
    {
      "inputs": [],
      "name": "ProofIsFalse",
      "type": "error"
    },
    {
      "inputs": [],
      "name": "PubKeyAlreadyRegistered",
      "type": "error"
    },
    {
      "inputs": [],
      "name": "TooManySignups",
      "type": "error"
    },
    {
      "anonymous": false,
      "inputs": [
        {
          "indexed": false,
          "internalType": "uint256",
          "name": "_pollId",
          "type": "uint256"
        },
        {
          "indexed": true,
          "internalType": "uint256",
          "name": "_coordinatorPubKeyX",
          "type": "uint256"
        },
        {
          "indexed": true,
          "internalType": "uint256",
          "name": "_coordinatorPubKeyY",
          "type": "uint256"
        },
        {
          "components": [
            {
              "internalType": "address",
              "name": "poll",
              "type": "address"
            },
            {
              "internalType": "address",
              "name": "messageProcessor",
              "type": "address"
            },
            {
              "internalType": "address",
              "name": "tally",
              "type": "address"
            }
          ],
          "indexed": false,
          "internalType": "struct MACI.PollContracts",
          "name": "pollAddr",
          "type": "tuple"
        },
        {
          "indexed": false,
          "internalType": "enum DomainObjs.Mode",
          "name": "_mode",
          "type": "uint8"
        }
      ],
      "name": "DeployPoll",
      "type": "event"
    },
    {
      "anonymous": false,
      "inputs": [
        {
          "indexed": true,
          "internalType": "address",
          "name": "previousOwner",
          "type": "address"
        },
        {
          "indexed": true,
          "internalType": "address",
          "name": "newOwner",
          "type": "address"
        }
      ],
      "name": "OwnershipTransferred",
      "type": "event"
    },
    {
      "anonymous": false,
      "inputs": [
        {
          "indexed": true,
          "internalType": "uint256",
          "name": "pollId",
          "type": "uint256"
        },
        {
          "indexed": true,
          "internalType": "address",
          "name": "creator",
          "type": "address"
        },
        {
          "components": [
            {
              "internalType": "address",
              "name": "poll",
              "type": "address"
            },
            {
              "internalType": "address",
              "name": "messageProcessor",
              "type": "address"
            },
            {
              "internalType": "address",
              "name": "tally",
              "type": "address"
            }
          ],
          "indexed": false,
          "internalType": "struct MACI.PollContracts",
          "name": "pollContracts",
          "type": "tuple"
        },
        {
          "indexed": false,
          "internalType": "string",
          "name": "name",
          "type": "string"
        },
        {
          "indexed": false,
          "internalType": "string[]",
          "name": "options",
          "type": "string[]"
        },
        {
          "indexed": false,
          "internalType": "string",
          "name": "metadata",
          "type": "string"
        },
        {
          "indexed": false,
          "internalType": "uint256",
          "name": "startTime",
          "type": "uint256"
        },
        {
          "indexed": false,
          "internalType": "uint256",
          "name": "endTime",
          "type": "uint256"
        }
      ],
      "name": "PollCreated",
      "type": "event"
    },
    {
      "anonymous": false,
      "inputs": [
        {
          "indexed": true,
          "internalType": "uint256",
          "name": "pollId",
          "type": "uint256"
        },
        {
          "indexed": false,
          "internalType": "string",
          "name": "tallyJsonCID",
          "type": "string"
        }
      ],
      "name": "PollTallyCIDUpdated",
      "type": "event"
    },
    {
      "anonymous": false,
      "inputs": [
        {
          "indexed": false,
          "internalType": "uint256",
          "name": "_stateIndex",
          "type": "uint256"
        },
        {
          "indexed": true,
          "internalType": "uint256",
          "name": "_userPubKeyX",
          "type": "uint256"
        },
        {
          "indexed": true,
          "internalType": "uint256",
          "name": "_userPubKeyY",
          "type": "uint256"
        },
        {
          "indexed": false,
          "internalType": "uint256",
          "name": "_voiceCreditBalance",
          "type": "uint256"
        },
        {
          "indexed": false,
          "internalType": "uint256",
          "name": "_timestamp",
          "type": "uint256"
        }
      ],
      "name": "SignUp",
      "type": "event"
    },
    {
      "anonymous": false,
      "inputs": [
        {
          "indexed": true,
          "internalType": "address",
          "name": "caller",
          "type": "address"
        },
        {
          "indexed": true,
          "internalType": "address",
          "name": "verifier",
          "type": "address"
        },
        {
          "indexed": true,
          "internalType": "bool",
          "name": "verified",
          "type": "bool"
        }
      ],
      "name": "VerifyProof",
      "type": "event"
    },
    {
      "inputs": [],
      "name": "MESSAGE_DATA_LENGTH",
      "outputs": [
        {
          "internalType": "uint8",
          "name": "",
          "type": "uint8"
        }
      ],
      "stateMutability": "view",
      "type": "function"
    },
    {
      "inputs": [],
      "name": "anonAadhaarVerifierAddr",
      "outputs": [
        {
          "internalType": "address",
          "name": "",
          "type": "address"
        }
      ],
      "stateMutability": "view",
      "type": "function"
    },
    {
      "inputs": [],
      "name": "coordinatorPubKey",
      "outputs": [
        {
          "internalType": "uint256",
          "name": "x",
          "type": "uint256"
        },
        {
          "internalType": "uint256",
          "name": "y",
          "type": "uint256"
        }
      ],
      "stateMutability": "view",
      "type": "function"
    },
    {
      "inputs": [
        {
          "internalType": "string",
          "name": "_name",
          "type": "string"
        },
        {
          "internalType": "string[]",
          "name": "_options",
          "type": "string[]"
        },
        {
          "internalType": "string",
          "name": "_metadata",
          "type": "string"
        },
        {
          "internalType": "uint256",
          "name": "_duration",
          "type": "uint256"
        },
        {
          "internalType": "enum DomainObjs.Mode",
          "name": "isQv",
          "type": "uint8"
        }
      ],
      "name": "createPoll",
      "outputs": [],
      "stateMutability": "nonpayable",
      "type": "function"
    },
    {
      "inputs": [
        {
          "internalType": "uint256",
          "name": "_duration",
          "type": "uint256"
        },
        {
          "components": [
            {
              "internalType": "uint8",
              "name": "intStateTreeDepth",
              "type": "uint8"
            },
            {
              "internalType": "uint8",
              "name": "messageTreeSubDepth",
              "type": "uint8"
            },
            {
              "internalType": "uint8",
              "name": "messageTreeDepth",
              "type": "uint8"
            },
            {
              "internalType": "uint8",
              "name": "voteOptionTreeDepth",
              "type": "uint8"
            }
          ],
          "internalType": "struct Params.TreeDepths",
          "name": "_treeDepths",
          "type": "tuple"
        },
        {
          "components": [
            {
              "internalType": "uint256",
              "name": "x",
              "type": "uint256"
            },
            {
              "internalType": "uint256",
              "name": "y",
              "type": "uint256"
            }
          ],
          "internalType": "struct DomainObjs.PubKey",
          "name": "_coordinatorPubKey",
          "type": "tuple"
        },
        {
          "internalType": "address",
          "name": "_verifier",
          "type": "address"
        },
        {
          "internalType": "address",
          "name": "_vkRegistry",
          "type": "address"
        },
        {
          "internalType": "enum DomainObjs.Mode",
          "name": "_mode",
          "type": "uint8"
        }
      ],
      "name": "deployPoll",
      "outputs": [
        {
          "components": [
            {
              "internalType": "address",
              "name": "poll",
              "type": "address"
            },
            {
              "internalType": "address",
              "name": "messageProcessor",
              "type": "address"
            },
            {
              "internalType": "address",
              "name": "tally",
              "type": "address"
            }
          ],
          "internalType": "struct MACI.PollContracts",
          "name": "pollAddr",
          "type": "tuple"
        }
      ],
      "stateMutability": "nonpayable",
      "type": "function"
    },
    {
      "inputs": [
        {
          "internalType": "uint256[2]",
          "name": "myArr",
          "type": "uint256[2]"
        }
      ],
      "name": "dumbReturn",
      "outputs": [
        {
          "internalType": "bool",
          "name": "",
          "type": "bool"
        }
      ],
      "stateMutability": "pure",
      "type": "function"
    },
    {
      "inputs": [
        {
          "internalType": "uint256",
          "name": "",
          "type": "uint256"
        }
      ],
      "name": "emptyBallotRoots",
      "outputs": [
        {
          "internalType": "uint256",
          "name": "",
          "type": "uint256"
        }
      ],
      "stateMutability": "view",
      "type": "function"
    },
    {
      "inputs": [
        {
          "internalType": "uint256",
          "name": "_pollId",
          "type": "uint256"
        }
      ],
      "name": "fetchPoll",
      "outputs": [
        {
          "components": [
            {
              "internalType": "uint256",
              "name": "id",
              "type": "uint256"
            },
            {
              "internalType": "string",
              "name": "name",
              "type": "string"
            },
            {
              "internalType": "bytes",
              "name": "encodedOptions",
              "type": "bytes"
            },
            {
              "internalType": "string",
              "name": "metadata",
              "type": "string"
            },
            {
              "components": [
                {
                  "internalType": "address",
                  "name": "poll",
                  "type": "address"
                },
                {
                  "internalType": "address",
                  "name": "messageProcessor",
                  "type": "address"
                },
                {
                  "internalType": "address",
                  "name": "tally",
                  "type": "address"
                }
              ],
              "internalType": "struct MACI.PollContracts",
              "name": "pollContracts",
              "type": "tuple"
            },
            {
              "internalType": "uint256",
              "name": "startTime",
              "type": "uint256"
            },
            {
              "internalType": "uint256",
              "name": "endTime",
              "type": "uint256"
            },
            {
              "internalType": "uint256",
              "name": "numOfOptions",
              "type": "uint256"
            },
            {
              "internalType": "string[]",
              "name": "options",
              "type": "string[]"
            },
            {
              "internalType": "string",
              "name": "tallyJsonCID",
              "type": "string"
            }
          ],
          "internalType": "struct MACIWrapper.PollData",
          "name": "poll_",
          "type": "tuple"
        }
      ],
      "stateMutability": "view",
      "type": "function"
    },
    {
      "inputs": [
        {
          "internalType": "uint256",
          "name": "_page",
          "type": "uint256"
        },
        {
          "internalType": "uint256",
          "name": "_perPage",
          "type": "uint256"
        },
        {
          "internalType": "bool",
          "name": "_ascending",
          "type": "bool"
        }
      ],
      "name": "fetchPolls",
      "outputs": [
        {
          "components": [
            {
              "internalType": "uint256",
              "name": "id",
              "type": "uint256"
            },
            {
              "internalType": "string",
              "name": "name",
              "type": "string"
            },
            {
              "internalType": "bytes",
              "name": "encodedOptions",
              "type": "bytes"
            },
            {
              "internalType": "string",
              "name": "metadata",
              "type": "string"
            },
            {
              "components": [
                {
                  "internalType": "address",
                  "name": "poll",
                  "type": "address"
                },
                {
                  "internalType": "address",
                  "name": "messageProcessor",
                  "type": "address"
                },
                {
                  "internalType": "address",
                  "name": "tally",
                  "type": "address"
                }
              ],
              "internalType": "struct MACI.PollContracts",
              "name": "pollContracts",
              "type": "tuple"
            },
            {
              "internalType": "uint256",
              "name": "startTime",
              "type": "uint256"
            },
            {
              "internalType": "uint256",
              "name": "endTime",
              "type": "uint256"
            },
            {
              "internalType": "uint256",
              "name": "numOfOptions",
              "type": "uint256"
            },
            {
              "internalType": "string[]",
              "name": "options",
              "type": "string[]"
            },
            {
              "internalType": "string",
              "name": "tallyJsonCID",
              "type": "string"
            }
          ],
          "internalType": "struct MACIWrapper.PollData[]",
          "name": "polls_",
          "type": "tuple[]"
        }
      ],
      "stateMutability": "view",
      "type": "function"
    },
    {
      "inputs": [
        {
          "internalType": "uint256",
          "name": "_pollId",
          "type": "uint256"
        }
      ],
      "name": "getPoll",
      "outputs": [
        {
          "internalType": "address",
          "name": "poll",
          "type": "address"
        }
      ],
      "stateMutability": "view",
      "type": "function"
    },
    {
      "inputs": [
        {
          "internalType": "address",
          "name": "_poll",
          "type": "address"
        }
      ],
      "name": "getPollId",
      "outputs": [
        {
          "internalType": "uint256",
          "name": "pollId",
          "type": "uint256"
        }
      ],
      "stateMutability": "view",
      "type": "function"
    },
    {
      "inputs": [],
      "name": "getStateTreeRoot",
      "outputs": [
        {
          "internalType": "uint256",
          "name": "root",
          "type": "uint256"
        }
      ],
      "stateMutability": "view",
      "type": "function"
    },
    {
      "inputs": [
        {
          "internalType": "uint256[2]",
          "name": "array",
          "type": "uint256[2]"
        }
      ],
      "name": "hash2",
      "outputs": [
        {
          "internalType": "uint256",
          "name": "result",
          "type": "uint256"
        }
      ],
      "stateMutability": "pure",
      "type": "function"
    },
    {
      "inputs": [
        {
          "internalType": "uint256[3]",
          "name": "array",
          "type": "uint256[3]"
        }
      ],
      "name": "hash3",
      "outputs": [
        {
          "internalType": "uint256",
          "name": "result",
          "type": "uint256"
        }
      ],
      "stateMutability": "pure",
      "type": "function"
    },
    {
      "inputs": [
        {
          "internalType": "uint256[4]",
          "name": "array",
          "type": "uint256[4]"
        }
      ],
      "name": "hash4",
      "outputs": [
        {
          "internalType": "uint256",
          "name": "result",
          "type": "uint256"
        }
      ],
      "stateMutability": "pure",
      "type": "function"
    },
    {
      "inputs": [
        {
          "internalType": "uint256[5]",
          "name": "array",
          "type": "uint256[5]"
        }
      ],
      "name": "hash5",
      "outputs": [
        {
          "internalType": "uint256",
          "name": "result",
          "type": "uint256"
        }
      ],
      "stateMutability": "pure",
      "type": "function"
    },
    {
      "inputs": [
        {
          "internalType": "uint256",
          "name": "left",
          "type": "uint256"
        },
        {
          "internalType": "uint256",
          "name": "right",
          "type": "uint256"
        }
      ],
      "name": "hashLeftRight",
      "outputs": [
        {
          "internalType": "uint256",
          "name": "result",
          "type": "uint256"
        }
      ],
      "stateMutability": "pure",
      "type": "function"
    },
    {
      "inputs": [
        {
          "components": [
            {
              "internalType": "uint256[10]",
              "name": "data",
              "type": "uint256[10]"
            }
          ],
          "internalType": "struct DomainObjs.Message",
          "name": "_message",
          "type": "tuple"
        },
        {
          "components": [
            {
              "internalType": "uint256",
              "name": "x",
              "type": "uint256"
            },
            {
              "internalType": "uint256",
              "name": "y",
              "type": "uint256"
            }
          ],
          "internalType": "struct DomainObjs.PubKey",
          "name": "_encPubKey",
          "type": "tuple"
        }
      ],
      "name": "hashMessageAndEncPubKey",
      "outputs": [
        {
          "internalType": "uint256",
          "name": "msgHash",
          "type": "uint256"
        }
      ],
      "stateMutability": "pure",
      "type": "function"
    },
    {
      "inputs": [
        {
          "components": [
            {
              "components": [
                {
                  "internalType": "uint256",
                  "name": "x",
                  "type": "uint256"
                },
                {
                  "internalType": "uint256",
                  "name": "y",
                  "type": "uint256"
                }
              ],
              "internalType": "struct DomainObjs.PubKey",
              "name": "pubKey",
              "type": "tuple"
            },
            {
              "internalType": "uint256",
              "name": "voiceCreditBalance",
              "type": "uint256"
            },
            {
              "internalType": "uint256",
              "name": "timestamp",
              "type": "uint256"
            }
          ],
          "internalType": "struct DomainObjs.StateLeaf",
          "name": "_stateLeaf",
          "type": "tuple"
        }
      ],
      "name": "hashStateLeaf",
      "outputs": [
        {
          "internalType": "uint256",
          "name": "ciphertext",
          "type": "uint256"
        }
      ],
      "stateMutability": "pure",
      "type": "function"
    },
    {
      "inputs": [],
      "name": "initialVoiceCreditProxy",
      "outputs": [
        {
          "internalType": "contract InitialVoiceCreditProxy",
          "name": "",
          "type": "address"
        }
      ],
      "stateMutability": "view",
      "type": "function"
    },
    {
      "inputs": [
        {
          "internalType": "uint256",
          "name": "",
          "type": "uint256"
        },
        {
          "internalType": "uint256",
          "name": "",
          "type": "uint256"
        }
      ],
      "name": "isPublicKeyRegistered",
      "outputs": [
        {
          "internalType": "bool",
          "name": "",
          "type": "bool"
        }
      ],
      "stateMutability": "view",
      "type": "function"
    },
    {
      "inputs": [],
      "name": "lazyIMTData",
      "outputs": [
        {
          "internalType": "uint40",
          "name": "maxIndex",
          "type": "uint40"
        },
        {
          "internalType": "uint40",
          "name": "numberOfLeaves",
          "type": "uint40"
        }
      ],
      "stateMutability": "view",
      "type": "function"
    },
    {
      "inputs": [],
      "name": "maxSignups",
      "outputs": [
        {
          "internalType": "uint256",
          "name": "",
          "type": "uint256"
        }
      ],
      "stateMutability": "view",
      "type": "function"
    },
    {
      "inputs": [],
      "name": "messageProcessorFactory",
      "outputs": [
        {
          "internalType": "contract IMessageProcessorFactory",
          "name": "",
          "type": "address"
        }
      ],
      "stateMutability": "view",
      "type": "function"
    },
    {
      "inputs": [],
      "name": "nextPollId",
      "outputs": [
        {
          "internalType": "uint256",
          "name": "",
          "type": "uint256"
        }
      ],
      "stateMutability": "view",
      "type": "function"
    },
    {
      "inputs": [],
      "name": "numSignUps",
      "outputs": [
        {
          "internalType": "uint256",
          "name": "signUps",
          "type": "uint256"
        }
      ],
      "stateMutability": "view",
      "type": "function"
    },
    {
      "inputs": [],
      "name": "owner",
      "outputs": [
        {
          "internalType": "address",
          "name": "",
          "type": "address"
        }
      ],
      "stateMutability": "view",
      "type": "function"
    },
    {
      "inputs": [
        {
          "internalType": "uint256[2]",
          "name": "dataToPad",
          "type": "uint256[2]"
        }
      ],
      "name": "padAndHashMessage",
      "outputs": [
        {
          "components": [
            {
              "internalType": "uint256[10]",
              "name": "data",
              "type": "uint256[10]"
            }
          ],
          "internalType": "struct DomainObjs.Message",
          "name": "message",
          "type": "tuple"
        },
        {
          "components": [
            {
              "internalType": "uint256",
              "name": "x",
              "type": "uint256"
            },
            {
              "internalType": "uint256",
              "name": "y",
              "type": "uint256"
            }
          ],
          "internalType": "struct DomainObjs.PubKey",
          "name": "padKey",
          "type": "tuple"
        },
        {
          "internalType": "uint256",
          "name": "msgHash",
          "type": "uint256"
        }
      ],
      "stateMutability": "pure",
      "type": "function"
    },
    {
      "inputs": [],
      "name": "pollFactory",
      "outputs": [
        {
          "internalType": "contract IPollFactory",
          "name": "",
          "type": "address"
        }
      ],
      "stateMutability": "view",
      "type": "function"
    },
    {
      "inputs": [
        {
          "internalType": "address",
          "name": "",
          "type": "address"
        }
      ],
      "name": "pollIds",
      "outputs": [
        {
          "internalType": "uint256",
          "name": "",
          "type": "uint256"
        }
      ],
      "stateMutability": "view",
      "type": "function"
    },
    {
      "inputs": [
        {
          "internalType": "uint256",
          "name": "",
          "type": "uint256"
        }
      ],
      "name": "polls",
      "outputs": [
        {
          "internalType": "address",
          "name": "",
          "type": "address"
        }
      ],
      "stateMutability": "view",
      "type": "function"
    },
    {
      "inputs": [],
      "name": "renounceOwnership",
      "outputs": [],
      "stateMutability": "nonpayable",
      "type": "function"
    },
    {
      "inputs": [
        {
          "components": [
            {
              "internalType": "uint8",
              "name": "intStateTreeDepth",
              "type": "uint8"
            },
            {
              "internalType": "uint8",
              "name": "messageTreeSubDepth",
              "type": "uint8"
            },
            {
              "internalType": "uint8",
              "name": "messageTreeDepth",
              "type": "uint8"
            },
            {
              "internalType": "uint8",
              "name": "voteOptionTreeDepth",
              "type": "uint8"
            }
          ],
          "internalType": "struct Params.TreeDepths",
          "name": "_treeDepths",
          "type": "tuple"
        },
        {
          "components": [
            {
              "internalType": "uint256",
              "name": "x",
              "type": "uint256"
            },
            {
              "internalType": "uint256",
              "name": "y",
              "type": "uint256"
            }
          ],
          "internalType": "struct DomainObjs.PubKey",
          "name": "_coordinatorPubKey",
          "type": "tuple"
        },
        {
          "internalType": "address",
          "name": "_verifier",
          "type": "address"
        },
        {
          "internalType": "address",
          "name": "_vkRegistry",
          "type": "address"
        }
      ],
      "name": "setConfig",
      "outputs": [],
      "stateMutability": "nonpayable",
      "type": "function"
    },
    {
      "inputs": [
        {
          "internalType": "uint256[]",
          "name": "array",
          "type": "uint256[]"
        }
      ],
      "name": "sha256Hash",
      "outputs": [
        {
          "internalType": "uint256",
          "name": "result",
          "type": "uint256"
        }
      ],
      "stateMutability": "pure",
      "type": "function"
    },
    {
      "inputs": [
        {
          "components": [
            {
              "internalType": "uint256",
              "name": "x",
              "type": "uint256"
            },
            {
              "internalType": "uint256",
              "name": "y",
              "type": "uint256"
            }
          ],
          "internalType": "struct DomainObjs.PubKey",
          "name": "_pubKey",
          "type": "tuple"
        },
        {
          "internalType": "bytes",
          "name": "_signUpGatekeeperData",
          "type": "bytes"
        },
        {
          "internalType": "bytes",
          "name": "_initialVoiceCreditProxyData",
          "type": "bytes"
        }
      ],
      "name": "signUp",
      "outputs": [],
      "stateMutability": "nonpayable",
      "type": "function"
    },
    {
      "inputs": [
        {
          "components": [
            {
              "internalType": "uint256",
              "name": "x",
              "type": "uint256"
            },
            {
              "internalType": "uint256",
              "name": "y",
              "type": "uint256"
            }
          ],
          "internalType": "struct DomainObjs.PubKey",
          "name": "_pubKey",
          "type": "tuple"
        },
        {
          "internalType": "bytes",
          "name": "_signUpGatekeeperData",
          "type": "bytes"
        },
        {
          "internalType": "bytes",
          "name": "_initialVoiceCreditProxyData",
          "type": "bytes"
        },
        {
          "components": [
            {
              "internalType": "uint256",
              "name": "nullifierSeed",
              "type": "uint256"
            },
            {
              "internalType": "uint256",
              "name": "nullifier",
              "type": "uint256"
            },
            {
              "internalType": "uint256",
              "name": "timestamp",
              "type": "uint256"
            },
            {
              "internalType": "uint256",
              "name": "signal",
              "type": "uint256"
            },
            {
              "internalType": "uint256[4]",
              "name": "revealArray",
              "type": "uint256[4]"
            },
            {
              "internalType": "uint256[8]",
              "name": "groth16Proof",
              "type": "uint256[8]"
            }
          ],
          "internalType": "struct MACIWrapper.AnonProof",
          "name": "_anonProof",
          "type": "tuple"
        }
      ],
      "name": "signUpAadhaar",
      "outputs": [],
      "stateMutability": "nonpayable",
      "type": "function"
    },
    {
      "inputs": [],
      "name": "signUpGatekeeper",
      "outputs": [
        {
          "internalType": "contract SignUpGatekeeper",
          "name": "",
          "type": "address"
        }
      ],
      "stateMutability": "view",
      "type": "function"
    },
    {
      "inputs": [],
      "name": "stateTreeDepth",
      "outputs": [
        {
          "internalType": "uint8",
          "name": "",
          "type": "uint8"
        }
      ],
      "stateMutability": "view",
      "type": "function"
    },
    {
      "inputs": [],
      "name": "tallyFactory",
      "outputs": [
        {
          "internalType": "contract ITallyFactory",
          "name": "",
          "type": "address"
        }
      ],
      "stateMutability": "view",
      "type": "function"
    },
    {
      "inputs": [
        {
          "internalType": "address",
          "name": "newOwner",
          "type": "address"
        }
      ],
      "name": "transferOwnership",
      "outputs": [],
      "stateMutability": "nonpayable",
      "type": "function"
    },
    {
      "inputs": [],
      "name": "treeDepths",
      "outputs": [
        {
          "internalType": "uint8",
          "name": "intStateTreeDepth",
          "type": "uint8"
        },
        {
          "internalType": "uint8",
          "name": "messageTreeSubDepth",
          "type": "uint8"
        },
        {
          "internalType": "uint8",
          "name": "messageTreeDepth",
          "type": "uint8"
        },
        {
          "internalType": "uint8",
          "name": "voteOptionTreeDepth",
          "type": "uint8"
        }
      ],
      "stateMutability": "view",
      "type": "function"
    },
    {
      "inputs": [
        {
          "internalType": "uint256",
          "name": "_pollId",
          "type": "uint256"
        },
        {
          "internalType": "string",
          "name": "_tallyJsonCID",
          "type": "string"
        }
      ],
      "name": "updatePollTallyCID",
      "outputs": [],
      "stateMutability": "nonpayable",
      "type": "function"
    },
    {
      "inputs": [
        {
          "components": [
            {
              "internalType": "uint256",
              "name": "nullifierSeed",
              "type": "uint256"
            },
            {
              "internalType": "uint256",
              "name": "nullifier",
              "type": "uint256"
            },
            {
              "internalType": "uint256",
              "name": "timestamp",
              "type": "uint256"
            },
            {
              "internalType": "uint256",
              "name": "signal",
              "type": "uint256"
            },
            {
              "internalType": "uint256[4]",
              "name": "revealArray",
              "type": "uint256[4]"
            },
            {
              "internalType": "uint256[8]",
              "name": "groth16Proof",
              "type": "uint256[8]"
            }
          ],
          "internalType": "struct MACIWrapper.AnonProof",
          "name": "_anonProof",
          "type": "tuple"
        }
      ],
      "name": "verifiedAadhaar",
      "outputs": [
        {
          "internalType": "bool",
          "name": "",
          "type": "bool"
        }
      ],
      "stateMutability": "view",
      "type": "function"
    },
    {
      "inputs": [
        {
          "internalType": "uint256",
          "name": "_nullifierSeed",
          "type": "uint256"
        },
        {
          "internalType": "uint256",
          "name": "_nullifier",
          "type": "uint256"
        },
        {
          "internalType": "uint256",
          "name": "_timestamp",
          "type": "uint256"
        },
        {
          "internalType": "uint256",
          "name": "_signal",
          "type": "uint256"
        },
        {
          "internalType": "uint256[4]",
          "name": "_revealArray",
          "type": "uint256[4]"
        },
        {
          "internalType": "uint256[8]",
          "name": "_groth16Proof",
          "type": "uint256[8]"
        }
      ],
      "name": "verifiedAadhaar2",
      "outputs": [
        {
          "internalType": "bool",
          "name": "",
          "type": "bool"
        }
      ],
      "stateMutability": "view",
      "type": "function"
    },
    {
      "inputs": [],
      "name": "verifier",
      "outputs": [
        {
          "internalType": "address",
          "name": "",
          "type": "address"
        }
      ],
      "stateMutability": "view",
      "type": "function"
    },
    {
      "inputs": [],
      "name": "vkRegistry",
      "outputs": [
        {
          "internalType": "address",
          "name": "",
          "type": "address"
        }
      ],
      "stateMutability": "view",
      "type": "function"
    }
  ],
  "transactionHash": "0x8f2fd56f0e7757f1831c77e723c8a947ace058a0712cf6a529d5dc8a7501391c",
  "args": [
    "0xD686361b7E6bDa5c729FF324B9e156990A300512",
    "0xaF2A74837e20B91B34F8d126BbeA3c0bE1DA7b79",
    "0x84BCBC5006c279dfAb230D2aC356C2176233D56D",
    "0x9946635c9B629398d21e835FbEa2905E731C7935",
    "0x37F2fdeA5dab063639f25C3392C67ce841304dcd",
    10,
    [
      "16015576667038038422103932363190100635991292382181099511410843174865570503661",
      "166510078825589460025300915201657086611944528317298994959376081297530246971",
      "10057734083972610459557695472359628128485394923403014377687504571662791937025",
      "4904828619307091008204672239231377290495002626534171783829482835985709082773",
      "18694062287284245784028624966421731916526814537891066525886866373016385890569"
    ]
  ],
  "numDeployments": 1,
  "solcInputHash": "2f9ee68b71f5f3317ecf89f0a83913d8",
  "bytecode": "0x61026060406101a0528060405234620002d05762004432803803809162000027828562000555565b833981019061016081830312620002d0578051916001600160a01b03908184168403620002d05760206101c05260208301518281168103620002d0576101a05180850151806101605284811603620002d0576060850151918483168303620002d0576080860151938585168503620002d05760a08701519660ff88168803620002d0578160df82011215620002d05783519360a08501906001600160401b0382118683101762000523575283906101608101928311620002d05760c001905b82821062000510575050506101c05160ff871611620004fc57600160ff87161b6000198101908111620002eb5764ffffffffff809181610180521660018060501b03196007541617906001818360281c16806101e05201908111620002eb5760281b69ffffffffff000000000016176007557f0ef71f46e11a513c599eed9dd03576c33439bcfb1cee155316f90541e41649ba610240526000610200527364E7C56b583ceDb31aCF52CfEF5e17bb4d0C232d610220525b61018051620001b36101e05161020051620005c6565b1660005260086101c05152610240516101a051600020556101e051600181161562000301576101805190816000198183160111620002eb57620002009160001991160161020051620005c6565b6101a0515190620002118262000539565b610180511660005260086101c051526101a051600020548152610240516101c0518201526101a05151906314d2f97b60e11b825281806200025a6101c051936004830162000596565b0381610220515af4908115620002dd576000916200029e575b5061024052647fffffffff6101e05160011c166101e05260ff6001610200510116610200526200019d565b90506101c0513d8111620002d5575b620002b9818362000555565b816101c0519181010312620002d057513862000273565b600080fd5b503d620002ad565b6101a051513d6000823e3d90fd5b634e487b7160e01b600052601160045260246000fd5b508660c05260e0526200033160ff6101605196610100978852610120948552610140958652806080521662000579565b60a0526101c0519060005b60058110620004eb575050506101a05151620003588162000539565b6001815260016101c0518201526101a05151906314d2f97b60e11b825281806200038a6101c051936004830162000596565b0381610220515af4908115620002dd57600091620004b1575b50156200049d573315620004825760098054336001600160a01b031980831682179093556101a0515195736be8cec7a06ba19c39ef328e8c8940cefef7e2819392167f8be0079c531659141344cd1fd0a4f28419497f9722a3daafe3b4186f6b6457e0600080a3600a541617600a55613e429384620005f0853960805184610c48015260a05184818161044e0152612a37015260c0518481816119a00152612f7c015260e051848181611eff0152612ff2015251838181610da60152613068015251828181611ebd0152612a850152518181816106c40152612b0a0152f35b6101a05151631e4fbdf760e01b815260006004820152602490fd5b6101a05151633d7ba68560e21b8152600490fd5b90506101c0513d8111620004e3575b620004cc818362000555565b816101c0519181010312620002d0575185620003a3565b503d620004c0565b81518155908201906001016200033c565b6101a05151633e104c7760e01b8152600490fd5b815181526101c0519182019101620000e6565b634e487b7160e01b600052604160045260246000fd5b604081019081106001600160401b038211176200052357604052565b601f909101601f19168101906001600160401b038211908210176200052357604052565b8015620005905760ff8111620002eb576001901b90565b50600190565b6040810192916000915b60028310620005ae57505050565b600190825181526020809101920192019190620005a0565b60ff1663ffffffff0264ffffffffff91828216918203620002eb57821601908111620002eb579056fe608080604052600436101561001357600080fd5b60003560e01c908163055575eb14611eec57508063079410db14611ea75780630dbffbcd14611e7e5780631096c30e14611e27578063122db15314611dff57806313fb893214611dd65780631a8cbcaa14611d805780631b6ef3c514611cf35780632215b3dc14611c7e5780632b78657114611c605780632b7ac3f314611c3757806331e766a514611c125780633364120a14611b5e5780633364c4c8146119cf578063343393b51461198a5780633dfb88b214611933578063423f3e19146118b457806346e47f9a1461184a5780634d5da86b14610f4957806358bfc37914610e325780635bb9399514610e0257806362a361bb14610dd557806362b31f1e14610d9057806364e0ece114610c6c578063652c76e414610c2e578063683f3dc314610c125780636b4575e214610b18578063715018a614610abb57806376db2425146109fc5780637d0a81c8146109bb5780638a2a3dfb146109225780638da5cb5b146108f9578063938419e4146107525780639cfced97146106f3578063aab4a670146106ae578063ac2f00741461067a578063ac98e5df14610638578063b686872014610608578063b87802c8146105df578063bea140b3146104e3578063c8cf9ab2146104a9578063d7a71b9a14610471578063df82635a14610436578063e9affc3a146103ff578063edbfe83f146102a75763f2fde38b1461021957600080fd5b346102a25760203660031901126102a2576102326122ec565b61023a612345565b6001600160a01b0390811690811561028957600954826001600160601b0360a01b821617600955167f8be0079c531659141344cd1fd0a4f28419497f9722a3daafe3b4186f6b6457e0600080a3005b604051631e4fbdf760e01b815260006004820152602490fd5b600080fd5b346102a25760403660031901126102a25736602312156102a2576040516102cd816120ab565b6044813682116102a2576004905b8282106103ef57604051846102ef826120fd565b6040516102fb816120c6565b61014092833683375260405191610311836120ab565b600083526000602080940152826040519261032b846120c6565b823685378051845201518383015260405190610346826120ab565b7f171e826ad4a870fd925e0bf0e87884e70e080879c2205ef10114f28a3b6f6dd78252838201907f2bd407d897fbbca9f88adfd2d15252e69de8c1564eb4d3d27162e259172f1a1d82526040519361039d856120fd565b84526103a98385613d4e565b9260405194518590966000915b600a83106103da575050506101a09550519084015251610160830152610180820152f35b81806001928b518152019901920191976103b6565b81358152602091820191016102db565b346102a25760403660031901126102a25736602312156102a257602061042c6104273661218b565b61247a565b6040519015158152f35b346102a25760003660031901126102a25760206040517f00000000000000000000000000000000000000000000000000000000000000008152f35b346102a25761047f3661232f565b906000526012602052604060002090600052602052602060ff604060002054166040519015158152f35b346102a25760203660031901126102a2576001600160a01b036104ca6122ec565b1660005260116020526020604060002054604051908152f35b346102a25760603660031901126102a25736602312156102a257604051610509816120e2565b6064813682116102a2576004905b8282106105cf5750506040516304b98e1d60e31b8152918290600090600483015b600383106105b557505050602091817375674B724EA1C45cA535A279aC52B926738152A25af480156105a957600090610577575b602090604051908152f35b506020813d82116105a1575b816105906020938361216a565b810103126102a2576020905161056c565b3d9150610583565b6040513d6000823e3d90fd5b815181528593506001929092019160209182019101610538565b8135815260209182019101610517565b346102a25760203660031901126102a25760043560058110156102a25760209054604051908152f35b346102a25760003660031901126102a257604060075481519064ffffffffff90818116835260281c166020820152f35b346102a25760003660031901126102a2576080600c5460ff604051918181168352818160081c166020840152818160101c16604084015260181c166060820152f35b346102a25760203660031901126102a2576004356000526006602052602060018060a01b0360406000205416604051908152f35b346102a25760003660031901126102a2576040517f00000000000000000000000000000000000000000000000000000000000000006001600160a01b03168152602090f35b346102a25760a03660031901126102a25736602312156102a25760405161071981612133565b60a4813682116102a2576020926004905b838210610743578461073b8461334c565b604051908152f35b8135815290840190840161072a565b346102a2576102803660031901126102a25761076d36612236565b6001600160401b036044358181116102a25761078d9036906004016122a4565b906064359081116102a2576107a69036906004016122a4565b916102003660831901126102a257604051916107c183612118565b608435835260209260a4358482015260c435604082015260e43560608201523661012312156102a2576040516107f681612090565b80610184913683116102a25786610104915b8483106108e9575050506080830152366101a312156102a2576040519061082e8261214e565b81610284913683116102a2578790915b8383106108d9575050505060a082015261085790612401565b156108c757815160005260128352604060002093838301948551600052845260ff604060002054166108b55761088d9183612a27565b516000526012815260406000209151600052526040600020600160ff19825416179055600080f35b604051632e13e04560e01b8152600490fd5b60405163104646db60e21b8152600490fd5b823581529181019188910161083e565b8235815291810191889101610808565b346102a25760003660031901126102a2576009546040516001600160a01b039091168152602090f35b346102a257366003190161018081126102a257610140136102a257604051610949816120fd565b36602312156102a2576040519061095f826120c6565b81610144923684116102a2576004905b8482106109ab57505081526040366101431901126102a25760209161073b916040519161099b836120ab565b3582526101643584830152613d4e565b813581526020918201910161096f565b346102a25760803660031901126102a257602061073b6040516109dd816120e2565b6109e636612236565b8152604435838201526064356040820152613d12565b346102a2576102003660031901126102a2573660a312156102a257610a20366121c3565b3661012312156102a2576020610a6e91610a39366121fc565b9060018060a01b03600a5416906040518095819482936350de0e5760e01b845260643560443560243560043560048801612389565b03915afa80156105a957602091600091610a8e575b506040519015158152f35b610aae9150823d8111610ab4575b610aa6818361216a565b810190612371565b82610a83565b503d610a9c565b346102a25760003660031901126102a257610ad4612345565b600980546001600160a01b031981169091556000906001600160a01b03167f8be0079c531659141344cd1fd0a4f28419497f9722a3daafe3b4186f6b6457e08280a3005b346102a2576101403660031901126102a25760803660231901126102a257604051610b4281612090565b60243560ff811681036102a257815260443560ff811681036102a257602082015260643560ff811681036102a257604082015260843560ff811681036102a257606082015260403660a31901126102a25760405190610ba0826120ab565b60a435825260c4356020830152610bb5612302565b610104356001600160a01b03811681036102a257610124359160028310156102a257606094610be694600435612e7b565b6040805182516001600160a01b0390811682526020808501518216908301529282015190921690820152f35b346102a25760003660031901126102a2576020604051600a8152f35b346102a25760003660031901126102a257602060405160ff7f0000000000000000000000000000000000000000000000000000000000000000168152f35b346102a257366003190161010081126102a2576080136102a257604051610c9281612090565b60043560ff811681036102a25781526024359060ff821682036102a257602081019182526044359060ff821682036102a257604081019182526064359260ff841684036102a2576060820193845260403660831901126102a257604051610cf8816120ab565b6084358152602081019160a435835260c4359560018060a01b03958688168098036102a25762ff00009060ff610d2c612302565b97610d35612345565b511663ff00000061ff00600c54965160081b169251945160181b169463ffffffff191617179160101b161717600c5551600d5551600e556001600160601b0360a01b9283600f541617600f5516906010541617601055600080f35b346102a25760003660031901126102a2576040517f00000000000000000000000000000000000000000000000000000000000000006001600160a01b03168152602090f35b346102a25760403660031901126102a25736602312156102a257602061073b610dfd3661218b565b613268565b346102a257602061073b610e153661232f565b60405191610e22836120ab565b6040368437825283820152613268565b346102a2576020806003193601126102a257600435906001600160401b0382116102a257366023830112156102a257816004013591610e7083612318565b90610e7e604051928361216a565b8382528282016024819560051b830101913683116102a2576024859101915b838310610f39575050505060405182810180925190949060005b818110610f255785806000610eeb8888610eda818e03601f19810183528261216a565b604051928392839251928391611f2e565b8101039060025afa156105a9577f30644e72e131a029b85045b68181585d2833e84879b9709143e1f593f000000160005106604051908152f35b825187529585019591850191600101610eb7565b8235815291810191859101610e9d565b346102a25760a03660031901126102a2576004356001600160401b0381116102a257610f799036906004016122bf565b906001600160401b03602435116102a2573660236024350112156102a2576001600160401b0360243560040135116102a25736602480356004013560051b81350101116102a2576044356001600160401b0381116102a257610fdf9036906004016122bf565b9190600260843510156102a257610ff4612345565b600554600f5460105460405192959261106d9290916001600160a01b03908116911661101f83612090565b60ff600c548181168552818160081c166020860152818160101c16604086015260181c166060840152604051611054816120ab565b600d548152600e54602082015260843593606435612e7b565b9260018060a01b03845116600052601160205284604060002055604051956020808801526110bb876110ad604082016024356004013560248035016124c5565b03601f19810189528861216a565b6110c760643542612548565b96604051906110d5826120c6565b8782526110e336848661225e565b602083015260408201526110f836858761225e565b60608201528560808201524260a08201528760c08201526024356004013560e082015261112a60243560040135612318565b611137604051918261216a565b602480356004810135835201602082015b602480356004013560051b813501018210611808575050610100820152604051611171816120fd565b6000815261012082015286600052600b6020526040600020908051825560208101518051906001600160401b0382116115205781906111c0826111b76001880154612555565b600188016125a6565b602090601f83116001146117965760009261178b575b50508160011b916000199060031b1c19161760018301555b60408101518051906001600160401b038211611520578190611220826112176002880154612555565b600288016125a6565b602090601f83116001146117195760009261170e575b50508160011b916000199060031b1c19161760028301555b60608101518051906001600160401b038211611520578190611280826112776003880154612555565b600388016125a6565b602090601f831160011461169c57600092611691575b50508160011b916000199060031b1c19161760038301555b608081015180516004840180546001600160a01b03199081166001600160a01b039384161790915560208301516005860180548316918416919091179055604090920151600685018054909316911617905560a0810151600783015560c0810151600883015560e0810151600983015561010081015180519068010000000000000000821161152057600a84015482600a860155808310611619575b5060200190600a84016000526020600020916000905b828210611536575050505061012001518051906001600160401b0382116115205761139b82611392600b860154612555565b600b86016125a6565b602090601f8311600114611480579361145393600b8461143a957f7532e9985b123ef8bda3bc40b1a4296f34238889a58a41de23df560b8bfb9bc69c9b99956114619b99600092611475575b50508160011b916000199060031b1c1916179101555b6040805189516001600160a01b0390811682526020808c0151821690830152998201519099169089015261010060608901526101008801916124a4565b85810360808701526024356004013560248035016124c5565b9184830360a08601526124a4565b934260c083015260e08201528033940390a3005b015190508f806113e7565b90600b840160005260206000209160005b601f1985168110611508575093600b6001857f7532e9985b123ef8bda3bc40b1a4296f34238889a58a41de23df560b8bfb9bc69c9b99956114619b99956114539961143a99601f198116106114ef575b505050811b019101556113fd565b015160001960f88460031b161c191690558f80806114e1565b91926020600181928685015181550194019201611491565b634e487b7160e01b600052604160045260246000fd5b80518051906001600160401b0382116115205761155d826115578854612555565b886125a6565b602090601f83116001146115a957928260019493602093869560009261159e575b5050600019600383901b1c191690841b1787555b01940191019092611360565b01519050388061157e565b908660005260206000209160005b601f1985168110611601575083602093600196938796938794601f198116106115e8575b505050811b018755611592565b015160001960f88460031b161c191690553880806115db565b919260206001819286850151815501940192016115b7565b600a85016000526020600020908382015b818301811061163a57505061134a565b8061164760019254612555565b80611654575b500161162a565b601f8111831461166a5750600081555b8f61164d565b600090828252611688601f60208420920160051c820185830161258f565b81835555611664565b015190508b80611296565b9250600385016000526020600020906000935b601f19841685106116f3576001945083601f198116106116da575b505050811b0160038301556112ae565b015160001960f88460031b161c191690558b80806116ca565b818101518355602094850194600190930192909101906116af565b015190508b80611236565b9250600285016000526020600020906000935b601f1984168510611770576001945083601f19811610611757575b505050811b01600283015561124e565b015160001960f88460031b161c191690558b8080611747565b8181015183556020948501946001909301929091019061172c565b015190508b806111d6565b9250600185016000526020600020906000935b601f19841685106117ed576001945083601f198116106117d4575b505050811b0160018301556111ee565b015160001960f88460031b161c191690558b80806117c4565b818101518355602094850194600190930192909101906117a9565b81356001600160401b0381116102a25760243501366043820112156102a25760209161183f8392369060446024820135910161225e565b815201910190611148565b346102a25760203660031901126102a2576001600160a01b0361186b6122ec565b16806000526011602052604060002054600554111561189c5760005260116020526020604060002054604051908152f35b6024906040519063e64d908d60e01b82526004820152fd5b346102a25760003660031901126102a25764ffffffffff8060075460281c16906001918291825b6118ec575b602061073b84846133ec565b60ff8084169383836118fd87612da9565b16101561192b575083146119155783809301926118db565b634e487b7160e01b600052601160045260246000fd5b9350506118e0565b346102a25760803660031901126102a25736602312156102a25760405161195981612090565b6084813682116102a2576020926004905b83821061197b578461073b846132e4565b8135815290840190840161196a565b346102a25760003660031901126102a2576040517f00000000000000000000000000000000000000000000000000000000000000006001600160a01b03168152602090f35b346102a25760403660031901126102a2576004356001600160401b036024358181116102a257611a039036906004016122bf565b9190611a0d612345565b600554841015611b455783600052602091600b8352600b60406000200190841161152057611a4584611a3f8354612555565b836125a6565b6000601f8511600114611ab95791611aa991857f2cd30b9efd64638f847bef681e87dfbb567e261d02660c8166a92f33729ab33e969594600091611aae575b508560011b906000198760031b1c19161790555b6040519383859485528401916124a4565b0390a2005b905082013588611a84565b601f1985169082600052846000209160005b818110611b2e575091611aa99391877f2cd30b9efd64638f847bef681e87dfbb567e261d02660c8166a92f33729ab33e9897969410611b14575b5050600185811b019055611a98565b830135600019600388901b60f8161c191690558780611b05565b919286600181928689013581550194019201611acb565b60405163a86ecdd560e01b815260048101859052602490fd5b346102a25760803660031901126102a257611b7836612236565b6001600160401b03906044358281116102a257611b999036906004016122a4565b916064359081116102a257611bb29036906004016122a4565b91815160005260126020526040600020926020830193845160005260205260ff604060002054166108b557611be79183612a27565b516000526012602052604060002090516000526020526040600020600160ff19825416179055600080f35b346102a25760003660031901126102a2576040600d54600e5482519182526020820152f35b346102a25760003660031901126102a257600f546040516001600160a01b039091168152602090f35b346102a25760003660031901126102a2576020600554604051908152f35b346102a2576102003660031901126102a257604051611c9c81612118565b60043581526024356020820152604435604082015260643560608201523660a312156102a257611ccb366121c3565b60808201523661012312156102a25761042c602091611ce9366121fc565b60a0820152612401565b346102a25760603660031901126102a25760443580151581036102a257611d1f90602435600435612894565b60405160209182820192808352815180945260408301938160408260051b8601019301916000955b828710611d545785850386f35b909192938280611d70600193603f198a82030186528851611f76565b9601920196019592919092611d47565b346102a25760203660031901126102a257600435600554811015611dbe576000526006602052602060018060a01b0360406000205416604051908152f35b6024906040519063a86ecdd560e01b82526004820152fd5b346102a25760003660031901126102a2576010546040516001600160a01b039091168152602090f35b346102a25760003660031901126102a257602064ffffffffff60075460281c16604051908152f35b346102a25760203660031901126102a257600435611e43612619565b50600554811015611dbe57600052600b602052611e7a611e66604060002061274b565b604051918291602083526020830190611f76565b0390f35b346102a25760003660031901126102a257600a546040516001600160a01b039091168152602090f35b346102a25760003660031901126102a2576040517f00000000000000000000000000000000000000000000000000000000000000006001600160a01b03168152602090f35b346102a25760003660031901126102a2577f00000000000000000000000000000000000000000000000000000000000000006001600160a01b03168152602090f35b60005b838110611f415750506000910152565b8181015183820152602001611f31565b90602091611f6a81518092818552858086019101611f2e565b601f01601f1916010190565b919082518152602090611fc0611fae611f9c848701516101808087870152850190611f51565b60408701518482036040860152611f51565b60608601518382036060850152611f51565b60808086015180516001600160a01b03908116928501929092526020810151821660a0850152604001511660c08301529360a081015160e083015260c081015190610100918284015260e08101519161012092838501528101519383870361014085015284518088528188019180808360051b8b01019701926000905b838210612063575050505050612060949550015190610160818403910152611f51565b90565b909192939783806120816001938e601f199082030186528c51611f51565b9a01920192019093929161203d565b608081019081106001600160401b0382111761152057604052565b604081019081106001600160401b0382111761152057604052565b61014081019081106001600160401b0382111761152057604052565b606081019081106001600160401b0382111761152057604052565b602081019081106001600160401b0382111761152057604052565b60c081019081106001600160401b0382111761152057604052565b60a081019081106001600160401b0382111761152057604052565b61010081019081106001600160401b0382111761152057604052565b90601f801991011681019081106001600160401b0382111761152057604052565b9060405191612199836120ab565b8260449182116102a2576004905b8282106121b357505050565b81358152602091820191016121a7565b90604051916121d183612090565b826101049182116102a2576084905b8282106121ec57505050565b81358152602091820191016121e0565b906040519161220a8361214e565b826102049182116102a257610104905b82821061222657505050565b813581526020918201910161221a565b60409060031901126102a2576040519061224f826120ab565b60043582526024356020830152565b9291926001600160401b0382116115205760405191612287601f8201601f19166020018461216a565b8294818452818301116102a2578281602093846000960137010152565b9080601f830112156102a2578160206120609335910161225e565b9181601f840112156102a2578235916001600160401b0383116102a257602083818601950101116102a257565b600435906001600160a01b03821682036102a257565b60e435906001600160a01b03821682036102a257565b6001600160401b0381116115205760051b60200190565b60409060031901126102a2576004359060243590565b6009546001600160a01b0316330361235957565b60405163118cdaa760e01b8152336004820152602490fd5b908160209103126102a2575180151581036102a25790565b92969594919390966102008401978452602094858501526040840152606083015260808201836000915b600483106123ea5750505050610100016000905b600882106123d55750505050565b828060019286518152019401910190926123c7565b9080600192855181520193019101909184906123b3565b602060018060a01b03600a54168251908284015160408501519261244c60608701519660a0608082015191015190604051988997889687966350de0e5760e01b885260048801612389565b03915afa9081156105a957600091612462575090565b612060915060203d8111610ab457610aa6818361216a565b60018151149081612495575b5061249057600090565b600190565b60039150602001511438612486565b908060209392818452848401376000828201840152601f01601f1916010190565b90808352602080930192838260051b850194846000925b8584106124ed575050505050505090565b9091929394959681810384528735601e19843603018112156102a25783018681019190356001600160401b0381116102a25780360383136102a257612537889283926001956124a4565b9901940194019295949391906124dc565b9190820180921161191557565b90600182811c92168015612585575b602083101461256f57565b634e487b7160e01b600052602260045260246000fd5b91607f1691612564565b81811061259a575050565b6000815560010161258f565b9190601f81116125b557505050565b6125e1926000526020600020906020601f840160051c830193106125e3575b601f0160051c019061258f565b565b90915081906125d4565b9190820391821161191557565b60405190612607826120e2565b60006040838281528260208201520152565b60405190612626826120c6565b8160008152610120606091826020820152826040820152828082015261264a6125fa565b6080820152600060a0820152600060c0820152600060e0820152826101008201520152565b60001981146119155760010190565b80511561268b5760200190565b634e487b7160e01b600052603260045260246000fd5b805182101561268b5760209160051b010190565b90600092918054916126c683612555565b91828252600193848116908160001461272857506001146126e8575b50505050565b90919394506000526020928360002092846000945b8386106127145750505050010190388080806126e2565b8054858701830152940193859082016126fd565b9294505050602093945060ff191683830152151560051b010190388080806126e2565b9060409182519061275b826120c6565b8193815483528051600161277c82612775818488016126b5565b038361216a565b60209182860152825161279d8161279681600289016126b5565b038261216a565b8386015282516127b48161279681600389016126b5565b606086015282516127c4816120e2565b60048501546001600160a01b0390811682526005860154811684830152600686015416848201526080860152600784015460a0860152600884015460c0860152600984015460e0860152600a840180549061281e82612318565b9361282b8651958661216a565b82855260009182528082208186015b8484106128725750505050505061012092612867859361286e93610100600b9801525180968193016126b5565b038461216a565b0152565b858381928a516128868161279681896126b5565b81520192019301929061283a565b600019939284820192909183116119155780830292808404821490151715611915576128c09083612548565b9380850194851161191557849160055495868510156129d4578611156129c2575b6128eb84846125ed565b90600182018092116119155761290082612318565b926040926129108451958661216a565b80855261291f601f1991612318565b0160005b8181106129ab57505083976000965b86811115612944575050505050505050565b80841561298f575b9061298a91600052600b602052612984866000209961297361296d8261266f565b9b61274b565b61297d828b6126a1565b52886126a1565b5061266f565b612932565b5061299a81836125ed565b90838201918211611915579061294c565b6020906129b6612619565b82828901015201612923565b915080850185811161191557916128e1565b505050505090506040516129e7816120fd565b6000815290565b6001600160a01b03909116815260406020820181905261206092910190611f51565b64ffffffffff908116600019019190821161191557565b60075492600064ffffffffff94857f00000000000000000000000000000000000000000000000000000000000000009160281c161015612d9757825193602091612a76838601968751906131c9565b15612d85576001600160a01b037f000000000000000000000000000000000000000000000000000000000000000081169490853b15612d8157604095838751809263125c7dfb60e11b8252818381612ad360049b338d84016129ee565b03925af18015612d7757612d48575b509380939291612b06958751808098819463b36543a960e01b8352338984016129ee565b03917f0000000000000000000000000000000000000000000000000000000000000000165afa938415612d3c578194612d0d575b50612b5b8551612b49816120e2565b87815285858201524287820152613d12565b9160075491898360281c16936001938486018c8111612cf8579069ffffffffff0000000000869495939260281b169069ffffffffff00000000001916176007559483957364E7C56b583ceDb31aCF52CfEF5e17bb4d0C232d935b612c0e575b50505050505050917fd3c3cd829e4e37d5baaf10abace26b24e0046e20500c999380410f807edfcda09391606093612bf88860075460281c16612a10565b93519651978351941684528301524290820152a3565b8c612c1983896133b3565b1685526008808952818b8720558d87841615612cf157612c7c928a928d92612c49612c4388612a10565b8d6133b3565b935193612c55856120ab565b16895283528c8820548252828201528b51809381926314d2f97b60e11b835287830161323a565b0381875af4908115612ce757908594939291879691612cb4575b5085647fffffffff60ff9293821c1698011694969192939496612bb5565b809650898092503d8311612ce0575b612ccd818361216a565b810103126102a257935185949085612c96565b503d612cc3565b8a513d87823e3d90fd5b5050612bba565b601185634e487b7160e01b6000525260246000fd5b9093508281813d8311612d35575b612d25818361216a565b810103126102a257519238612b3a565b503d612d1b565b508451903d90823e3d90fd5b6001600160401b038194929411612d6457865291612b06612ae2565b634e487b7160e01b825260418552602482fd5b87513d86823e3d90fd5b8280fd5b6040516379fae7af60e01b8152600490fd5b60405163b984588b60e01b8152600490fd5b8015612dca5760ff8111611915576001901b9064ffffffffff821161191557565b50600190565b8015612dca57600190602081108216604e8210831617612e315781906005925b808211612e0857505081600019048111611915570290565b90928060001904811161191557818416612e28575b800292811c90612df0565b80920291612e1d565b905060050a90565b908160209103126102a257516001600160a01b03811681036102a25790565b906002821015612e655752565b634e487b7160e01b600052602160045260246000fd5b9391959490612e886125fa565b506005549260018401600555875194602091612ea9838b01978851906131c9565b15612d8557606084019360ff80865116956040809b81850190612ece85835116612dd0565b99612ed881612dd0565b93519a612ee48c6120ab565b8b52898b01938452600019810190811161191557600581101561268b57548e51630278d37760e21b81526004810192909252995160248201529151604483015284518416606483015293870151831660848201529251821660a4840152511660c48201528a5160e48201528751610104820152306101248201526101448101949094526001600160a01b0391600090848661016481857f000000000000000000000000000000000000000000000000000000000000000089165af19586156131bf5782966131a0575b508380808c5193633634487360e01b8552169485600485015216968760248401521695866044830152336064830152612fe96084830189612e58565b858260a48186897f0000000000000000000000000000000000000000000000000000000000000000165af191821561319657908592918492613177575b508b519463431a717560e01b865260048601526024850152866044850152169081606484015233608484015261305f60a4840188612e58565b848360c48184887f0000000000000000000000000000000000000000000000000000000000000000165af192831561316b579361312f937f60ae5b55fbe14a60c1522de273b7cf937d367c8395a811c3c6cc1eaced4700499997938c8460a09b986131399a969461313c575b508a81526006865220856001600160601b038c1b8254161790558c51946130f1866120e2565b855283850152168a830152819b51985199519586528501906040908160018060a01b0391828151168552826020820151166020860152015116910152565b6080830190612e58565ba3565b61315d919450863d8811613164575b613155818361216a565b810190612e39565b92386130cb565b503d61314b565b508951903d90823e3d90fd5b61318f919250873d891161316457613155818361216a565b9038613026565b8b513d85823e3d90fd5b6131b8919650853d871161316457613155818361216a565b9438612fad565b8a513d84823e3d90fd5b907f30644e72e131a029b85045b68181585d2833e84879b9709143e1f593f0000001808080858196099380098180828187620292fc090894620292f80909600108908082811115613227575b50600091613222916125ed565b081590565b9050828101809111611915576000613215565b6040810192916000915b6002831061325157505050565b600190825181526020809101920192019190613244565b602061328891604051809381926314d2f97b60e11b83526004830161323a565b03817364E7C56b583ceDb31aCF52CfEF5e17bb4d0C232d5af49081156105a9576000916132b3575090565b906020823d82116132dc575b816132cc6020938361216a565b810103126132d957505190565b80fd5b3d91506132bf565b60405163248f667760e01b81529060049060008284015b8382106133355750505050602081608481739f462B8a25CEa98cd41145F2ea8e4a4686B353835af49081156105a9576000916132b3575090565b6001908351815260208091019301910190916132fb565b604051630926f44b60e31b815290600090600483015b6005831061339c5750505060208160a48173f2219FE2c9f804dB06409574B410b439015C0E9C5af49081156105a9576000916132b3575090565b600190825181526020809101920192019190613362565b60ff1663ffffffff0264ffffffffff91828216918203611915578216019081116119155790565b60ff60019116019060ff821161191557565b919060ff92838216916020908184116137225764ffffffffff918284169182156137115761341a88916133da565b1661345161342782612318565b956040926134378451988961216a565b808852613446601f1991612318565b013685890137612a10565b9060019485808416156000146136dc5750808316948186116119155786956000526008855282600020546134848961267e565b52999592995b6000935b6134a9575b505050505050506134a59293506126a1565b5190565b86849a9998979a16888110156136d157858c881661359857613503916134da8651916134d4836120ab565b8b6126a1565b5181526134e687613734565b828201528551809381926314d2f97b60e11b83526004830161323a565b03817364E7C56b583ceDb31aCF52CfEF5e17bb4d0C232d5af490811561358d57600091613560575b509986647fffffffff829d8a9b9c9d613550849c866135498c6133da565b16906126a1565b525b821c16950116939a9661348e565b908682813d8311613586575b613576818361216a565b810103126132d95750518661352b565b503d61356c565b84513d6000823e3d90fd5b5082828c6135a5886133da565b161c1690647fffffffff8d891c1680921160001461360057509986647fffffffff829d856135df849c9d9e9f6135da8b6133da565b6133b3565b166000526008895286600020546135fa8d866135498c6133da565b52613552565b61365e915086908461361b8f61361590612a10565b896133b3565b1660005260088252613640866000205491875192613638846120ab565b83528b6126a1565b51828201528551809381926314d2f97b60e11b83526004830161323a565b03817364E7C56b583ceDb31aCF52CfEF5e17bb4d0C232d5af490811561358d576000916136a4575b509986647fffffffff829d8a9b9c9d6135fa849c866135498c6133da565b908682813d83116136ca575b6136ba818361216a565b810103126132d957505186613686565b503d6136b0565b508697989950613493565b947f0ef71f46e11a513c599eed9dd03576c33439bcfb1cee155316f90541e41649ba6137078961267e565b529995929961348a565b945050505050612060919250613734565b604051633e104c7760e01b8152600490fd5b60ff168015613ced5760018114613cc85760028114613ca35760038114613c7e5760048114613c595760058114613c345760068114613c0f5760078114613bea5760088114613bc55760098114613ba057600a8114613b7b57600b8114613b5657600c8114613b3157600d8114613b0c57600e8114613ae757600f8114613ac25760108114613a9d5760118114613a785760128114613a535760138114613a2e5760148114613a0957601581146139e457601681146139bf576017811461399a5760188114613975576019811461395057601a811461392b57601b811461390657601c81146138e157601d81146138bc57601e811461389757601f81146138725760201461384e576040516310a2ea0560e21b8152600490fd5b7f1d90601a0c76d2f39824f6dc198fb3b48cbd0231516c8f6208e56ea741c341f990565b507f216b9fa3ac3724cf1ec6caf5a66dd85cae3aee727e00d2a0a59f273df3401f1090565b507f2b59c2651b412c029efa38f835ac1b1b5bdaf89dcb2e4bc9219e7d77c65e776a90565b507f14b46e659dc4072fc64a18d44911c4a303b45f1296c3cb7dec77f269bee9b5df90565b507f0845dd838ca63b2f68775aac8513bd692d26f511698206f3c6ce2b4100dd8d8f90565b507f132e4ff3e4ba890f1610efd4d2f69700b825514d557b82663878a56e2acef41c90565b507f24cb019b59431c232413f66b041923214f7a8a7489caa05b66860f1c3c76d3b190565b507f1b6367322bac9f24889900d310e2feaa0021516fac77470aea078e89335d3fcf90565b507f19b336a1e0a933e2a8f97d97322dcee843a2d9a2401bece52a3a25ddd5bb6bc990565b507f1d71ada9e49baeb4a2cf26be37d3bc680554995ef6706105e93978ba71cacf9490565b507f2560496c1138c827f1efb407d0cdb9d6ec9539b0957dfb67de2776e6026d630f90565b507f2ce2c1fb109ad6574570826774ecfca3e04866bb5a3963962b873646db6641f390565b507f1713f3e3dc5e2393bd31ccc0cdd8601bdee3198cf34d566bb60cfab13e5a087390565b507f2c849a73ab21c9e88e1d711f221863e2a94eb58f3eb42dde575301451f3ec5c890565b507f1874217e8e1dbc51c571a2db1103bf47c3e66a59305ca48bbcee6ad1c8cc575190565b507f2b8342160822355808db759147a7d6f61de451bd5bb88f9db2eb406ea68b813890565b507f199cd1f5b757c285023767abbe9bbb318da4e1fd375b5a001b54a0f3901ea7d390565b507f128fb9ad5b2d8e694bec0888ff95609c15b2a96ae80a34946c953dc503e46fb690565b507f2ec047dd616221873c234f36461080c3e760644bb519ebdb49eb9645215e0edc90565b507f2582b5cdefe032d75373f0ede9171406137e93e7d44405a0b0a409c1c739138090565b507f1f336d6d45d293180c75964e99a7599d44cac2ad447c202c3e1973b0322cf99090565b507f05e0136534f74776d69646bd0bd94519e63af45734405f479382d8400514c1a690565b507f10f7b76489e9c36644736c33c600d1bcedd465fd0aff3027e67b02e13875272d90565b507f1e73f08f6e5e4bb9c2096cc4587526ebfd033c222f4a27e97119c867c36a0d3a90565b507f1ea63a974336db6c0423e719d3f0e11494266237dda3a40de3cb76104436635990565b507f0690bfb582c7502ff6d15d519740ecd73d652b7a14dc82bfd250613ee8e0407690565b507f30553f8216db90854953edd47602897f897104d5b0d65a5ce000981c51da32e090565b507f11dc55d21b17daf8e60253c2a43d519039ba968733cf7c9d5df6155939e1a6d890565b507f08e4b5d410c8de929132c214ea600b5f252fa14aabb97ea67cda5bb4e0ebeec890565b507f04265868d2e705f48d3ae49f7749e67a587dafdb569c1d7334675496046eaad690565b507f2a06fb0b739b402c34dc752d8417b9cd67b7f7cabe4b06b5d995053791fcede490565b507f06928e817d2804a3713efd102bae900c9ab3e8e0b0c6c20f8613bd3b0423a89190565b507f0ef71f46e11a513c599eed9dd03576c33439bcfb1cee155316f90541e41649ba90565b612060906040805191613d2483612090565b608036843780515183526020815101516020840152602081015182840152015160608201526132e4565b6020612060926040613df6815194613d6586612133565b60a0368737805151865284815101518587015282815101518387015260608151015160608701526080815101516080870152610120835191613da683612133565b60a036843760a081510151835260c0815101518784015260e081510151858401526101008151015160608401525101516080820152613def835196613dea88612090565b61334c565b865261334c565b83850152815190840152015160608201526132e456fea26469706673582212202e6a054204bd36bd0f8049e58d97fabb89b704adfbe5db48befd6432afae77a464736f6c63430008140033",
  "deployedBytecode": "0x608080604052600436101561001357600080fd5b60003560e01c908163055575eb14611eec57508063079410db14611ea75780630dbffbcd14611e7e5780631096c30e14611e27578063122db15314611dff57806313fb893214611dd65780631a8cbcaa14611d805780631b6ef3c514611cf35780632215b3dc14611c7e5780632b78657114611c605780632b7ac3f314611c3757806331e766a514611c125780633364120a14611b5e5780633364c4c8146119cf578063343393b51461198a5780633dfb88b214611933578063423f3e19146118b457806346e47f9a1461184a5780634d5da86b14610f4957806358bfc37914610e325780635bb9399514610e0257806362a361bb14610dd557806362b31f1e14610d9057806364e0ece114610c6c578063652c76e414610c2e578063683f3dc314610c125780636b4575e214610b18578063715018a614610abb57806376db2425146109fc5780637d0a81c8146109bb5780638a2a3dfb146109225780638da5cb5b146108f9578063938419e4146107525780639cfced97146106f3578063aab4a670146106ae578063ac2f00741461067a578063ac98e5df14610638578063b686872014610608578063b87802c8146105df578063bea140b3146104e3578063c8cf9ab2146104a9578063d7a71b9a14610471578063df82635a14610436578063e9affc3a146103ff578063edbfe83f146102a75763f2fde38b1461021957600080fd5b346102a25760203660031901126102a2576102326122ec565b61023a612345565b6001600160a01b0390811690811561028957600954826001600160601b0360a01b821617600955167f8be0079c531659141344cd1fd0a4f28419497f9722a3daafe3b4186f6b6457e0600080a3005b604051631e4fbdf760e01b815260006004820152602490fd5b600080fd5b346102a25760403660031901126102a25736602312156102a2576040516102cd816120ab565b6044813682116102a2576004905b8282106103ef57604051846102ef826120fd565b6040516102fb816120c6565b61014092833683375260405191610311836120ab565b600083526000602080940152826040519261032b846120c6565b823685378051845201518383015260405190610346826120ab565b7f171e826ad4a870fd925e0bf0e87884e70e080879c2205ef10114f28a3b6f6dd78252838201907f2bd407d897fbbca9f88adfd2d15252e69de8c1564eb4d3d27162e259172f1a1d82526040519361039d856120fd565b84526103a98385613d4e565b9260405194518590966000915b600a83106103da575050506101a09550519084015251610160830152610180820152f35b81806001928b518152019901920191976103b6565b81358152602091820191016102db565b346102a25760403660031901126102a25736602312156102a257602061042c6104273661218b565b61247a565b6040519015158152f35b346102a25760003660031901126102a25760206040517f00000000000000000000000000000000000000000000000000000000000000008152f35b346102a25761047f3661232f565b906000526012602052604060002090600052602052602060ff604060002054166040519015158152f35b346102a25760203660031901126102a2576001600160a01b036104ca6122ec565b1660005260116020526020604060002054604051908152f35b346102a25760603660031901126102a25736602312156102a257604051610509816120e2565b6064813682116102a2576004905b8282106105cf5750506040516304b98e1d60e31b8152918290600090600483015b600383106105b5575050506020918173__$fa059fb1da6d850ca47ea49359bfe89f78$__5af480156105a957600090610577575b602090604051908152f35b506020813d82116105a1575b816105906020938361216a565b810103126102a2576020905161056c565b3d9150610583565b6040513d6000823e3d90fd5b815181528593506001929092019160209182019101610538565b8135815260209182019101610517565b346102a25760203660031901126102a25760043560058110156102a25760209054604051908152f35b346102a25760003660031901126102a257604060075481519064ffffffffff90818116835260281c166020820152f35b346102a25760003660031901126102a2576080600c5460ff604051918181168352818160081c166020840152818160101c16604084015260181c166060820152f35b346102a25760203660031901126102a2576004356000526006602052602060018060a01b0360406000205416604051908152f35b346102a25760003660031901126102a2576040517f00000000000000000000000000000000000000000000000000000000000000006001600160a01b03168152602090f35b346102a25760a03660031901126102a25736602312156102a25760405161071981612133565b60a4813682116102a2576020926004905b838210610743578461073b8461334c565b604051908152f35b8135815290840190840161072a565b346102a2576102803660031901126102a25761076d36612236565b6001600160401b036044358181116102a25761078d9036906004016122a4565b906064359081116102a2576107a69036906004016122a4565b916102003660831901126102a257604051916107c183612118565b608435835260209260a4358482015260c435604082015260e43560608201523661012312156102a2576040516107f681612090565b80610184913683116102a25786610104915b8483106108e9575050506080830152366101a312156102a2576040519061082e8261214e565b81610284913683116102a2578790915b8383106108d9575050505060a082015261085790612401565b156108c757815160005260128352604060002093838301948551600052845260ff604060002054166108b55761088d9183612a27565b516000526012815260406000209151600052526040600020600160ff19825416179055600080f35b604051632e13e04560e01b8152600490fd5b60405163104646db60e21b8152600490fd5b823581529181019188910161083e565b8235815291810191889101610808565b346102a25760003660031901126102a2576009546040516001600160a01b039091168152602090f35b346102a257366003190161018081126102a257610140136102a257604051610949816120fd565b36602312156102a2576040519061095f826120c6565b81610144923684116102a2576004905b8482106109ab57505081526040366101431901126102a25760209161073b916040519161099b836120ab565b3582526101643584830152613d4e565b813581526020918201910161096f565b346102a25760803660031901126102a257602061073b6040516109dd816120e2565b6109e636612236565b8152604435838201526064356040820152613d12565b346102a2576102003660031901126102a2573660a312156102a257610a20366121c3565b3661012312156102a2576020610a6e91610a39366121fc565b9060018060a01b03600a5416906040518095819482936350de0e5760e01b845260643560443560243560043560048801612389565b03915afa80156105a957602091600091610a8e575b506040519015158152f35b610aae9150823d8111610ab4575b610aa6818361216a565b810190612371565b82610a83565b503d610a9c565b346102a25760003660031901126102a257610ad4612345565b600980546001600160a01b031981169091556000906001600160a01b03167f8be0079c531659141344cd1fd0a4f28419497f9722a3daafe3b4186f6b6457e08280a3005b346102a2576101403660031901126102a25760803660231901126102a257604051610b4281612090565b60243560ff811681036102a257815260443560ff811681036102a257602082015260643560ff811681036102a257604082015260843560ff811681036102a257606082015260403660a31901126102a25760405190610ba0826120ab565b60a435825260c4356020830152610bb5612302565b610104356001600160a01b03811681036102a257610124359160028310156102a257606094610be694600435612e7b565b6040805182516001600160a01b0390811682526020808501518216908301529282015190921690820152f35b346102a25760003660031901126102a2576020604051600a8152f35b346102a25760003660031901126102a257602060405160ff7f0000000000000000000000000000000000000000000000000000000000000000168152f35b346102a257366003190161010081126102a2576080136102a257604051610c9281612090565b60043560ff811681036102a25781526024359060ff821682036102a257602081019182526044359060ff821682036102a257604081019182526064359260ff841684036102a2576060820193845260403660831901126102a257604051610cf8816120ab565b6084358152602081019160a435835260c4359560018060a01b03958688168098036102a25762ff00009060ff610d2c612302565b97610d35612345565b511663ff00000061ff00600c54965160081b169251945160181b169463ffffffff191617179160101b161717600c5551600d5551600e556001600160601b0360a01b9283600f541617600f5516906010541617601055600080f35b346102a25760003660031901126102a2576040517f00000000000000000000000000000000000000000000000000000000000000006001600160a01b03168152602090f35b346102a25760403660031901126102a25736602312156102a257602061073b610dfd3661218b565b613268565b346102a257602061073b610e153661232f565b60405191610e22836120ab565b6040368437825283820152613268565b346102a2576020806003193601126102a257600435906001600160401b0382116102a257366023830112156102a257816004013591610e7083612318565b90610e7e604051928361216a565b8382528282016024819560051b830101913683116102a2576024859101915b838310610f39575050505060405182810180925190949060005b818110610f255785806000610eeb8888610eda818e03601f19810183528261216a565b604051928392839251928391611f2e565b8101039060025afa156105a9577f30644e72e131a029b85045b68181585d2833e84879b9709143e1f593f000000160005106604051908152f35b825187529585019591850191600101610eb7565b8235815291810191859101610e9d565b346102a25760a03660031901126102a2576004356001600160401b0381116102a257610f799036906004016122bf565b906001600160401b03602435116102a2573660236024350112156102a2576001600160401b0360243560040135116102a25736602480356004013560051b81350101116102a2576044356001600160401b0381116102a257610fdf9036906004016122bf565b9190600260843510156102a257610ff4612345565b600554600f5460105460405192959261106d9290916001600160a01b03908116911661101f83612090565b60ff600c548181168552818160081c166020860152818160101c16604086015260181c166060840152604051611054816120ab565b600d548152600e54602082015260843593606435612e7b565b9260018060a01b03845116600052601160205284604060002055604051956020808801526110bb876110ad604082016024356004013560248035016124c5565b03601f19810189528861216a565b6110c760643542612548565b96604051906110d5826120c6565b8782526110e336848661225e565b602083015260408201526110f836858761225e565b60608201528560808201524260a08201528760c08201526024356004013560e082015261112a60243560040135612318565b611137604051918261216a565b602480356004810135835201602082015b602480356004013560051b813501018210611808575050610100820152604051611171816120fd565b6000815261012082015286600052600b6020526040600020908051825560208101518051906001600160401b0382116115205781906111c0826111b76001880154612555565b600188016125a6565b602090601f83116001146117965760009261178b575b50508160011b916000199060031b1c19161760018301555b60408101518051906001600160401b038211611520578190611220826112176002880154612555565b600288016125a6565b602090601f83116001146117195760009261170e575b50508160011b916000199060031b1c19161760028301555b60608101518051906001600160401b038211611520578190611280826112776003880154612555565b600388016125a6565b602090601f831160011461169c57600092611691575b50508160011b916000199060031b1c19161760038301555b608081015180516004840180546001600160a01b03199081166001600160a01b039384161790915560208301516005860180548316918416919091179055604090920151600685018054909316911617905560a0810151600783015560c0810151600883015560e0810151600983015561010081015180519068010000000000000000821161152057600a84015482600a860155808310611619575b5060200190600a84016000526020600020916000905b828210611536575050505061012001518051906001600160401b0382116115205761139b82611392600b860154612555565b600b86016125a6565b602090601f8311600114611480579361145393600b8461143a957f7532e9985b123ef8bda3bc40b1a4296f34238889a58a41de23df560b8bfb9bc69c9b99956114619b99600092611475575b50508160011b916000199060031b1c1916179101555b6040805189516001600160a01b0390811682526020808c0151821690830152998201519099169089015261010060608901526101008801916124a4565b85810360808701526024356004013560248035016124c5565b9184830360a08601526124a4565b934260c083015260e08201528033940390a3005b015190508f806113e7565b90600b840160005260206000209160005b601f1985168110611508575093600b6001857f7532e9985b123ef8bda3bc40b1a4296f34238889a58a41de23df560b8bfb9bc69c9b99956114619b99956114539961143a99601f198116106114ef575b505050811b019101556113fd565b015160001960f88460031b161c191690558f80806114e1565b91926020600181928685015181550194019201611491565b634e487b7160e01b600052604160045260246000fd5b80518051906001600160401b0382116115205761155d826115578854612555565b886125a6565b602090601f83116001146115a957928260019493602093869560009261159e575b5050600019600383901b1c191690841b1787555b01940191019092611360565b01519050388061157e565b908660005260206000209160005b601f1985168110611601575083602093600196938796938794601f198116106115e8575b505050811b018755611592565b015160001960f88460031b161c191690553880806115db565b919260206001819286850151815501940192016115b7565b600a85016000526020600020908382015b818301811061163a57505061134a565b8061164760019254612555565b80611654575b500161162a565b601f8111831461166a5750600081555b8f61164d565b600090828252611688601f60208420920160051c820185830161258f565b81835555611664565b015190508b80611296565b9250600385016000526020600020906000935b601f19841685106116f3576001945083601f198116106116da575b505050811b0160038301556112ae565b015160001960f88460031b161c191690558b80806116ca565b818101518355602094850194600190930192909101906116af565b015190508b80611236565b9250600285016000526020600020906000935b601f1984168510611770576001945083601f19811610611757575b505050811b01600283015561124e565b015160001960f88460031b161c191690558b8080611747565b8181015183556020948501946001909301929091019061172c565b015190508b806111d6565b9250600185016000526020600020906000935b601f19841685106117ed576001945083601f198116106117d4575b505050811b0160018301556111ee565b015160001960f88460031b161c191690558b80806117c4565b818101518355602094850194600190930192909101906117a9565b81356001600160401b0381116102a25760243501366043820112156102a25760209161183f8392369060446024820135910161225e565b815201910190611148565b346102a25760203660031901126102a2576001600160a01b0361186b6122ec565b16806000526011602052604060002054600554111561189c5760005260116020526020604060002054604051908152f35b6024906040519063e64d908d60e01b82526004820152fd5b346102a25760003660031901126102a25764ffffffffff8060075460281c16906001918291825b6118ec575b602061073b84846133ec565b60ff8084169383836118fd87612da9565b16101561192b575083146119155783809301926118db565b634e487b7160e01b600052601160045260246000fd5b9350506118e0565b346102a25760803660031901126102a25736602312156102a25760405161195981612090565b6084813682116102a2576020926004905b83821061197b578461073b846132e4565b8135815290840190840161196a565b346102a25760003660031901126102a2576040517f00000000000000000000000000000000000000000000000000000000000000006001600160a01b03168152602090f35b346102a25760403660031901126102a2576004356001600160401b036024358181116102a257611a039036906004016122bf565b9190611a0d612345565b600554841015611b455783600052602091600b8352600b60406000200190841161152057611a4584611a3f8354612555565b836125a6565b6000601f8511600114611ab95791611aa991857f2cd30b9efd64638f847bef681e87dfbb567e261d02660c8166a92f33729ab33e969594600091611aae575b508560011b906000198760031b1c19161790555b6040519383859485528401916124a4565b0390a2005b905082013588611a84565b601f1985169082600052846000209160005b818110611b2e575091611aa99391877f2cd30b9efd64638f847bef681e87dfbb567e261d02660c8166a92f33729ab33e9897969410611b14575b5050600185811b019055611a98565b830135600019600388901b60f8161c191690558780611b05565b919286600181928689013581550194019201611acb565b60405163a86ecdd560e01b815260048101859052602490fd5b346102a25760803660031901126102a257611b7836612236565b6001600160401b03906044358281116102a257611b999036906004016122a4565b916064359081116102a257611bb29036906004016122a4565b91815160005260126020526040600020926020830193845160005260205260ff604060002054166108b557611be79183612a27565b516000526012602052604060002090516000526020526040600020600160ff19825416179055600080f35b346102a25760003660031901126102a2576040600d54600e5482519182526020820152f35b346102a25760003660031901126102a257600f546040516001600160a01b039091168152602090f35b346102a25760003660031901126102a2576020600554604051908152f35b346102a2576102003660031901126102a257604051611c9c81612118565b60043581526024356020820152604435604082015260643560608201523660a312156102a257611ccb366121c3565b60808201523661012312156102a25761042c602091611ce9366121fc565b60a0820152612401565b346102a25760603660031901126102a25760443580151581036102a257611d1f90602435600435612894565b60405160209182820192808352815180945260408301938160408260051b8601019301916000955b828710611d545785850386f35b909192938280611d70600193603f198a82030186528851611f76565b9601920196019592919092611d47565b346102a25760203660031901126102a257600435600554811015611dbe576000526006602052602060018060a01b0360406000205416604051908152f35b6024906040519063a86ecdd560e01b82526004820152fd5b346102a25760003660031901126102a2576010546040516001600160a01b039091168152602090f35b346102a25760003660031901126102a257602064ffffffffff60075460281c16604051908152f35b346102a25760203660031901126102a257600435611e43612619565b50600554811015611dbe57600052600b602052611e7a611e66604060002061274b565b604051918291602083526020830190611f76565b0390f35b346102a25760003660031901126102a257600a546040516001600160a01b039091168152602090f35b346102a25760003660031901126102a2576040517f00000000000000000000000000000000000000000000000000000000000000006001600160a01b03168152602090f35b346102a25760003660031901126102a2577f00000000000000000000000000000000000000000000000000000000000000006001600160a01b03168152602090f35b60005b838110611f415750506000910152565b8181015183820152602001611f31565b90602091611f6a81518092818552858086019101611f2e565b601f01601f1916010190565b919082518152602090611fc0611fae611f9c848701516101808087870152850190611f51565b60408701518482036040860152611f51565b60608601518382036060850152611f51565b60808086015180516001600160a01b03908116928501929092526020810151821660a0850152604001511660c08301529360a081015160e083015260c081015190610100918284015260e08101519161012092838501528101519383870361014085015284518088528188019180808360051b8b01019701926000905b838210612063575050505050612060949550015190610160818403910152611f51565b90565b909192939783806120816001938e601f199082030186528c51611f51565b9a01920192019093929161203d565b608081019081106001600160401b0382111761152057604052565b604081019081106001600160401b0382111761152057604052565b61014081019081106001600160401b0382111761152057604052565b606081019081106001600160401b0382111761152057604052565b602081019081106001600160401b0382111761152057604052565b60c081019081106001600160401b0382111761152057604052565b60a081019081106001600160401b0382111761152057604052565b61010081019081106001600160401b0382111761152057604052565b90601f801991011681019081106001600160401b0382111761152057604052565b9060405191612199836120ab565b8260449182116102a2576004905b8282106121b357505050565b81358152602091820191016121a7565b90604051916121d183612090565b826101049182116102a2576084905b8282106121ec57505050565b81358152602091820191016121e0565b906040519161220a8361214e565b826102049182116102a257610104905b82821061222657505050565b813581526020918201910161221a565b60409060031901126102a2576040519061224f826120ab565b60043582526024356020830152565b9291926001600160401b0382116115205760405191612287601f8201601f19166020018461216a565b8294818452818301116102a2578281602093846000960137010152565b9080601f830112156102a2578160206120609335910161225e565b9181601f840112156102a2578235916001600160401b0383116102a257602083818601950101116102a257565b600435906001600160a01b03821682036102a257565b60e435906001600160a01b03821682036102a257565b6001600160401b0381116115205760051b60200190565b60409060031901126102a2576004359060243590565b6009546001600160a01b0316330361235957565b60405163118cdaa760e01b8152336004820152602490fd5b908160209103126102a2575180151581036102a25790565b92969594919390966102008401978452602094858501526040840152606083015260808201836000915b600483106123ea5750505050610100016000905b600882106123d55750505050565b828060019286518152019401910190926123c7565b9080600192855181520193019101909184906123b3565b602060018060a01b03600a54168251908284015160408501519261244c60608701519660a0608082015191015190604051988997889687966350de0e5760e01b885260048801612389565b03915afa9081156105a957600091612462575090565b612060915060203d8111610ab457610aa6818361216a565b60018151149081612495575b5061249057600090565b600190565b60039150602001511438612486565b908060209392818452848401376000828201840152601f01601f1916010190565b90808352602080930192838260051b850194846000925b8584106124ed575050505050505090565b9091929394959681810384528735601e19843603018112156102a25783018681019190356001600160401b0381116102a25780360383136102a257612537889283926001956124a4565b9901940194019295949391906124dc565b9190820180921161191557565b90600182811c92168015612585575b602083101461256f57565b634e487b7160e01b600052602260045260246000fd5b91607f1691612564565b81811061259a575050565b6000815560010161258f565b9190601f81116125b557505050565b6125e1926000526020600020906020601f840160051c830193106125e3575b601f0160051c019061258f565b565b90915081906125d4565b9190820391821161191557565b60405190612607826120e2565b60006040838281528260208201520152565b60405190612626826120c6565b8160008152610120606091826020820152826040820152828082015261264a6125fa565b6080820152600060a0820152600060c0820152600060e0820152826101008201520152565b60001981146119155760010190565b80511561268b5760200190565b634e487b7160e01b600052603260045260246000fd5b805182101561268b5760209160051b010190565b90600092918054916126c683612555565b91828252600193848116908160001461272857506001146126e8575b50505050565b90919394506000526020928360002092846000945b8386106127145750505050010190388080806126e2565b8054858701830152940193859082016126fd565b9294505050602093945060ff191683830152151560051b010190388080806126e2565b9060409182519061275b826120c6565b8193815483528051600161277c82612775818488016126b5565b038361216a565b60209182860152825161279d8161279681600289016126b5565b038261216a565b8386015282516127b48161279681600389016126b5565b606086015282516127c4816120e2565b60048501546001600160a01b0390811682526005860154811684830152600686015416848201526080860152600784015460a0860152600884015460c0860152600984015460e0860152600a840180549061281e82612318565b9361282b8651958661216a565b82855260009182528082208186015b8484106128725750505050505061012092612867859361286e93610100600b9801525180968193016126b5565b038461216a565b0152565b858381928a516128868161279681896126b5565b81520192019301929061283a565b600019939284820192909183116119155780830292808404821490151715611915576128c09083612548565b9380850194851161191557849160055495868510156129d4578611156129c2575b6128eb84846125ed565b90600182018092116119155761290082612318565b926040926129108451958661216a565b80855261291f601f1991612318565b0160005b8181106129ab57505083976000965b86811115612944575050505050505050565b80841561298f575b9061298a91600052600b602052612984866000209961297361296d8261266f565b9b61274b565b61297d828b6126a1565b52886126a1565b5061266f565b612932565b5061299a81836125ed565b90838201918211611915579061294c565b6020906129b6612619565b82828901015201612923565b915080850185811161191557916128e1565b505050505090506040516129e7816120fd565b6000815290565b6001600160a01b03909116815260406020820181905261206092910190611f51565b64ffffffffff908116600019019190821161191557565b60075492600064ffffffffff94857f00000000000000000000000000000000000000000000000000000000000000009160281c161015612d9757825193602091612a76838601968751906131c9565b15612d85576001600160a01b037f000000000000000000000000000000000000000000000000000000000000000081169490853b15612d8157604095838751809263125c7dfb60e11b8252818381612ad360049b338d84016129ee565b03925af18015612d7757612d48575b509380939291612b06958751808098819463b36543a960e01b8352338984016129ee565b03917f0000000000000000000000000000000000000000000000000000000000000000165afa938415612d3c578194612d0d575b50612b5b8551612b49816120e2565b87815285858201524287820152613d12565b9160075491898360281c16936001938486018c8111612cf8579069ffffffffff0000000000869495939260281b169069ffffffffff000000000019161760075594839573__$1540826e134b1b69b7091c82576ee3aadd$__935b612c0e575b50505050505050917fd3c3cd829e4e37d5baaf10abace26b24e0046e20500c999380410f807edfcda09391606093612bf88860075460281c16612a10565b93519651978351941684528301524290820152a3565b8c612c1983896133b3565b1685526008808952818b8720558d87841615612cf157612c7c928a928d92612c49612c4388612a10565b8d6133b3565b935193612c55856120ab565b16895283528c8820548252828201528b51809381926314d2f97b60e11b835287830161323a565b0381875af4908115612ce757908594939291879691612cb4575b5085647fffffffff60ff9293821c1698011694969192939496612bb5565b809650898092503d8311612ce0575b612ccd818361216a565b810103126102a257935185949085612c96565b503d612cc3565b8a513d87823e3d90fd5b5050612bba565b601185634e487b7160e01b6000525260246000fd5b9093508281813d8311612d35575b612d25818361216a565b810103126102a257519238612b3a565b503d612d1b565b508451903d90823e3d90fd5b6001600160401b038194929411612d6457865291612b06612ae2565b634e487b7160e01b825260418552602482fd5b87513d86823e3d90fd5b8280fd5b6040516379fae7af60e01b8152600490fd5b60405163b984588b60e01b8152600490fd5b8015612dca5760ff8111611915576001901b9064ffffffffff821161191557565b50600190565b8015612dca57600190602081108216604e8210831617612e315781906005925b808211612e0857505081600019048111611915570290565b90928060001904811161191557818416612e28575b800292811c90612df0565b80920291612e1d565b905060050a90565b908160209103126102a257516001600160a01b03811681036102a25790565b906002821015612e655752565b634e487b7160e01b600052602160045260246000fd5b9391959490612e886125fa565b506005549260018401600555875194602091612ea9838b01978851906131c9565b15612d8557606084019360ff80865116956040809b81850190612ece85835116612dd0565b99612ed881612dd0565b93519a612ee48c6120ab565b8b52898b01938452600019810190811161191557600581101561268b57548e51630278d37760e21b81526004810192909252995160248201529151604483015284518416606483015293870151831660848201529251821660a4840152511660c48201528a5160e48201528751610104820152306101248201526101448101949094526001600160a01b0391600090848661016481857f000000000000000000000000000000000000000000000000000000000000000089165af19586156131bf5782966131a0575b508380808c5193633634487360e01b8552169485600485015216968760248401521695866044830152336064830152612fe96084830189612e58565b858260a48186897f0000000000000000000000000000000000000000000000000000000000000000165af191821561319657908592918492613177575b508b519463431a717560e01b865260048601526024850152866044850152169081606484015233608484015261305f60a4840188612e58565b848360c48184887f0000000000000000000000000000000000000000000000000000000000000000165af192831561316b579361312f937f60ae5b55fbe14a60c1522de273b7cf937d367c8395a811c3c6cc1eaced4700499997938c8460a09b986131399a969461313c575b508a81526006865220856001600160601b038c1b8254161790558c51946130f1866120e2565b855283850152168a830152819b51985199519586528501906040908160018060a01b0391828151168552826020820151166020860152015116910152565b6080830190612e58565ba3565b61315d919450863d8811613164575b613155818361216a565b810190612e39565b92386130cb565b503d61314b565b508951903d90823e3d90fd5b61318f919250873d891161316457613155818361216a565b9038613026565b8b513d85823e3d90fd5b6131b8919650853d871161316457613155818361216a565b9438612fad565b8a513d84823e3d90fd5b907f30644e72e131a029b85045b68181585d2833e84879b9709143e1f593f0000001808080858196099380098180828187620292fc090894620292f80909600108908082811115613227575b50600091613222916125ed565b081590565b9050828101809111611915576000613215565b6040810192916000915b6002831061325157505050565b600190825181526020809101920192019190613244565b602061328891604051809381926314d2f97b60e11b83526004830161323a565b038173__$1540826e134b1b69b7091c82576ee3aadd$__5af49081156105a9576000916132b3575090565b906020823d82116132dc575b816132cc6020938361216a565b810103126132d957505190565b80fd5b3d91506132bf565b60405163248f667760e01b81529060049060008284015b838210613335575050505060208160848173__$e61c65d9562aef5fa6ab22c0f787cf1e30$__5af49081156105a9576000916132b3575090565b6001908351815260208091019301910190916132fb565b604051630926f44b60e31b815290600090600483015b6005831061339c5750505060208160a48173__$46fbdf6658faf65265971bdad66851b86c$__5af49081156105a9576000916132b3575090565b600190825181526020809101920192019190613362565b60ff1663ffffffff0264ffffffffff91828216918203611915578216019081116119155790565b60ff60019116019060ff821161191557565b919060ff92838216916020908184116137225764ffffffffff918284169182156137115761341a88916133da565b1661345161342782612318565b956040926134378451988961216a565b808852613446601f1991612318565b013685890137612a10565b9060019485808416156000146136dc5750808316948186116119155786956000526008855282600020546134848961267e565b52999592995b6000935b6134a9575b505050505050506134a59293506126a1565b5190565b86849a9998979a16888110156136d157858c881661359857613503916134da8651916134d4836120ab565b8b6126a1565b5181526134e687613734565b828201528551809381926314d2f97b60e11b83526004830161323a565b038173__$1540826e134b1b69b7091c82576ee3aadd$__5af490811561358d57600091613560575b509986647fffffffff829d8a9b9c9d613550849c866135498c6133da565b16906126a1565b525b821c16950116939a9661348e565b908682813d8311613586575b613576818361216a565b810103126132d95750518661352b565b503d61356c565b84513d6000823e3d90fd5b5082828c6135a5886133da565b161c1690647fffffffff8d891c1680921160001461360057509986647fffffffff829d856135df849c9d9e9f6135da8b6133da565b6133b3565b166000526008895286600020546135fa8d866135498c6133da565b52613552565b61365e915086908461361b8f61361590612a10565b896133b3565b1660005260088252613640866000205491875192613638846120ab565b83528b6126a1565b51828201528551809381926314d2f97b60e11b83526004830161323a565b038173__$1540826e134b1b69b7091c82576ee3aadd$__5af490811561358d576000916136a4575b509986647fffffffff829d8a9b9c9d6135fa849c866135498c6133da565b908682813d83116136ca575b6136ba818361216a565b810103126132d957505186613686565b503d6136b0565b508697989950613493565b947f0ef71f46e11a513c599eed9dd03576c33439bcfb1cee155316f90541e41649ba6137078961267e565b529995929961348a565b945050505050612060919250613734565b604051633e104c7760e01b8152600490fd5b60ff168015613ced5760018114613cc85760028114613ca35760038114613c7e5760048114613c595760058114613c345760068114613c0f5760078114613bea5760088114613bc55760098114613ba057600a8114613b7b57600b8114613b5657600c8114613b3157600d8114613b0c57600e8114613ae757600f8114613ac25760108114613a9d5760118114613a785760128114613a535760138114613a2e5760148114613a0957601581146139e457601681146139bf576017811461399a5760188114613975576019811461395057601a811461392b57601b811461390657601c81146138e157601d81146138bc57601e811461389757601f81146138725760201461384e576040516310a2ea0560e21b8152600490fd5b7f1d90601a0c76d2f39824f6dc198fb3b48cbd0231516c8f6208e56ea741c341f990565b507f216b9fa3ac3724cf1ec6caf5a66dd85cae3aee727e00d2a0a59f273df3401f1090565b507f2b59c2651b412c029efa38f835ac1b1b5bdaf89dcb2e4bc9219e7d77c65e776a90565b507f14b46e659dc4072fc64a18d44911c4a303b45f1296c3cb7dec77f269bee9b5df90565b507f0845dd838ca63b2f68775aac8513bd692d26f511698206f3c6ce2b4100dd8d8f90565b507f132e4ff3e4ba890f1610efd4d2f69700b825514d557b82663878a56e2acef41c90565b507f24cb019b59431c232413f66b041923214f7a8a7489caa05b66860f1c3c76d3b190565b507f1b6367322bac9f24889900d310e2feaa0021516fac77470aea078e89335d3fcf90565b507f19b336a1e0a933e2a8f97d97322dcee843a2d9a2401bece52a3a25ddd5bb6bc990565b507f1d71ada9e49baeb4a2cf26be37d3bc680554995ef6706105e93978ba71cacf9490565b507f2560496c1138c827f1efb407d0cdb9d6ec9539b0957dfb67de2776e6026d630f90565b507f2ce2c1fb109ad6574570826774ecfca3e04866bb5a3963962b873646db6641f390565b507f1713f3e3dc5e2393bd31ccc0cdd8601bdee3198cf34d566bb60cfab13e5a087390565b507f2c849a73ab21c9e88e1d711f221863e2a94eb58f3eb42dde575301451f3ec5c890565b507f1874217e8e1dbc51c571a2db1103bf47c3e66a59305ca48bbcee6ad1c8cc575190565b507f2b8342160822355808db759147a7d6f61de451bd5bb88f9db2eb406ea68b813890565b507f199cd1f5b757c285023767abbe9bbb318da4e1fd375b5a001b54a0f3901ea7d390565b507f128fb9ad5b2d8e694bec0888ff95609c15b2a96ae80a34946c953dc503e46fb690565b507f2ec047dd616221873c234f36461080c3e760644bb519ebdb49eb9645215e0edc90565b507f2582b5cdefe032d75373f0ede9171406137e93e7d44405a0b0a409c1c739138090565b507f1f336d6d45d293180c75964e99a7599d44cac2ad447c202c3e1973b0322cf99090565b507f05e0136534f74776d69646bd0bd94519e63af45734405f479382d8400514c1a690565b507f10f7b76489e9c36644736c33c600d1bcedd465fd0aff3027e67b02e13875272d90565b507f1e73f08f6e5e4bb9c2096cc4587526ebfd033c222f4a27e97119c867c36a0d3a90565b507f1ea63a974336db6c0423e719d3f0e11494266237dda3a40de3cb76104436635990565b507f0690bfb582c7502ff6d15d519740ecd73d652b7a14dc82bfd250613ee8e0407690565b507f30553f8216db90854953edd47602897f897104d5b0d65a5ce000981c51da32e090565b507f11dc55d21b17daf8e60253c2a43d519039ba968733cf7c9d5df6155939e1a6d890565b507f08e4b5d410c8de929132c214ea600b5f252fa14aabb97ea67cda5bb4e0ebeec890565b507f04265868d2e705f48d3ae49f7749e67a587dafdb569c1d7334675496046eaad690565b507f2a06fb0b739b402c34dc752d8417b9cd67b7f7cabe4b06b5d995053791fcede490565b507f06928e817d2804a3713efd102bae900c9ab3e8e0b0c6c20f8613bd3b0423a89190565b507f0ef71f46e11a513c599eed9dd03576c33439bcfb1cee155316f90541e41649ba90565b612060906040805191613d2483612090565b608036843780515183526020815101516020840152602081015182840152015160608201526132e4565b6020612060926040613df6815194613d6586612133565b60a0368737805151865284815101518587015282815101518387015260608151015160608701526080815101516080870152610120835191613da683612133565b60a036843760a081510151835260c0815101518784015260e081510151858401526101008151015160608401525101516080820152613def835196613dea88612090565b61334c565b865261334c565b83850152815190840152015160608201526132e456fea26469706673582212202e6a054204bd36bd0f8049e58d97fabb89b704adfbe5db48befd6432afae77a464736f6c63430008140033",
  "libraries": {
    "PoseidonT3": "0x64E7C56b583ceDb31aCF52CfEF5e17bb4d0C232d",
    "PoseidonT4": "0x75674B724EA1C45cA535A279aC52B926738152A2",
    "PoseidonT5": "0x9f462B8a25CEa98cd41145F2ea8e4a4686B35383",
    "PoseidonT6": "0xf2219FE2c9f804dB06409574B410b439015C0E9C"
  },
  "devdoc": {
    "errors": {
      "OwnableInvalidOwner(address)": [
        {
          "details": "The owner is not a valid owner account. (eg. `address(0)`)"
        }
      ],
      "OwnableUnauthorizedAccount(address)": [
        {
          "details": "The caller account is not authorized to perform an operation."
        }
      ]
    },
    "kind": "dev",
    "methods": {
      "deployPoll(uint256,(uint8,uint8,uint8,uint8),(uint256,uint256),address,address,uint8)": {
        "params": {
          "_coordinatorPubKey": "The coordinator's public key",
          "_duration": "How long should the Poll last for",
          "_mode": "Voting mode",
          "_treeDepths": "The depth of the Merkle trees",
          "_verifier": "The Verifier Contract",
          "_vkRegistry": "The VkRegistry Contract"
        },
        "returns": {
          "pollAddr": "a new Poll contract address"
        }
      },
      "getPoll(uint256)": {
        "params": {
          "_pollId": "The identifier of the Poll to retrieve"
        },
        "returns": {
          "poll": "The Poll contract object"
        }
      },
      "getStateTreeRoot()": {
        "returns": {
          "root": "The Merkle root"
        }
      },
      "hash2(uint256[2])": {
        "params": {
          "array": "An array of two uint256 elements."
        },
        "returns": {
          "result": "The Poseidon hash of the two elements."
        }
      },
      "hash3(uint256[3])": {
        "params": {
          "array": "An array of three uint256 elements."
        },
        "returns": {
          "result": "The Poseidon hash of the three elements."
        }
      },
      "hash4(uint256[4])": {
        "params": {
          "array": "An array of four uint256 elements."
        },
        "returns": {
          "result": "The Poseidon hash of the four elements."
        }
      },
      "hash5(uint256[5])": {
        "params": {
          "array": "An array of five uint256 elements."
        },
        "returns": {
          "result": "The Poseidon hash of the five elements."
        }
      },
      "hashLeftRight(uint256,uint256)": {
        "params": {
          "left": "the first element to hash.",
          "right": "the second element to hash."
        },
        "returns": {
          "result": "The Poseidon hash of the two elements."
        }
      },
      "hashMessageAndEncPubKey((uint256[10]),(uint256,uint256))": {
        "params": {
          "_encPubKey": "the encryption public key to be hashed",
          "_message": "the message to be hashed"
        },
        "returns": {
          "msgHash": "The hash of the message and the encryption public key"
        }
      },
      "hashStateLeaf(((uint256,uint256),uint256,uint256))": {
        "params": {
          "_stateLeaf": "the state leaf to be hashed"
        },
        "returns": {
          "ciphertext": "The hash of the state leaf"
        }
      },
      "numSignUps()": {
        "returns": {
          "signUps": "numsignUps The number of signups"
        }
      },
      "owner()": {
        "details": "Returns the address of the current owner."
      },
      "padAndHashMessage(uint256[2])": {
        "params": {
          "dataToPad": "the data to be padded"
        },
        "returns": {
          "message": "The padded message",
          "msgHash": "The hash of the padded message and encryption key",
          "padKey": "The padding public key"
        }
      },
      "renounceOwnership()": {
        "details": "Leaves the contract without owner. It will not be possible to call `onlyOwner` functions. Can only be called by the current owner. NOTE: Renouncing ownership will leave the contract without an owner, thereby disabling any functionality that is only available to the owner."
      },
      "sha256Hash(uint256[])": {
        "params": {
          "array": "The array of uint256 elements."
        },
        "returns": {
          "result": "The SHA256 hash of the array."
        }
      },
      "signUp((uint256,uint256),bytes,bytes)": {
        "params": {
          "_initialVoiceCreditProxyData": "Data to pass to the     InitialVoiceCreditProxy, which allows it to determine how many voice     credits this user should have.",
          "_pubKey": "The user's desired public key.",
          "_signUpGatekeeperData": "Data to pass to the sign-up gatekeeper's     register() function. For instance, the POAPGatekeeper or     SignUpTokenGatekeeper requires this value to be the ABI-encoded     token ID."
        }
      },
      "transferOwnership(address)": {
        "details": "Transfers ownership of the contract to a new account (`newOwner`). Can only be called by the current owner."
      }
    },
    "title": "MACI - Minimum Anti-Collusion Infrastructure Version 1",
    "version": 1
  },
  "userdoc": {
    "errors": {
      "DefaultZeroBadIndex()": [
        {
          "notice": "Custom errors"
        }
      ],
      "InvalidMessage()": [
        {
          "notice": "custom errors"
        }
      ],
      "PoseidonHashLibrariesNotLinked()": [
        {
          "notice": "custom errors"
        }
      ]
    },
    "kind": "user",
    "methods": {
      "MESSAGE_DATA_LENGTH()": {
        "notice": "the length of a MACI message"
      },
      "createPoll(string,string[],string,uint256,uint8)": {
        "notice": "Ends of AnonAadhaar integration "
      },
      "deployPoll(uint256,(uint8,uint8,uint8,uint8),(uint256,uint256),address,address,uint8)": {
        "notice": "Deploy a new Poll contract."
      },
      "emptyBallotRoots(uint256)": {
        "notice": "The roots of the empty ballot trees"
      },
      "getPoll(uint256)": {
        "notice": "Get the Poll details"
      },
      "getStateTreeRoot()": {
        "notice": "Return the main root of the StateAq contract"
      },
      "hash2(uint256[2])": {
        "notice": "Computes the Poseidon hash of two uint256 elements."
      },
      "hash3(uint256[3])": {
        "notice": "Computes the Poseidon hash of three uint256 elements."
      },
      "hash4(uint256[4])": {
        "notice": "Computes the Poseidon hash of four uint256 elements."
      },
      "hash5(uint256[5])": {
        "notice": "Computes the Poseidon hash of five uint256 elements."
      },
      "hashLeftRight(uint256,uint256)": {
        "notice": "Computes the Poseidon hash of two uint256 elements."
      },
      "hashMessageAndEncPubKey((uint256[10]),(uint256,uint256))": {
        "notice": "An utility function used to hash a MACI message and an encryption public key"
      },
      "hashStateLeaf(((uint256,uint256),uint256,uint256))": {
        "notice": "An utility function used to hash a state leaf"
      },
      "initialVoiceCreditProxy()": {
        "notice": "The contract which provides the values of the initial voice credit balance per user"
      },
      "lazyIMTData()": {
        "notice": "The state tree. Represents a mapping between each user's public key and their voice credit balance."
      },
      "messageProcessorFactory()": {
        "notice": "Factory contract that deploy a MessageProcessor contract"
      },
      "nextPollId()": {
        "notice": "Each poll has an incrementing ID"
      },
      "numSignUps()": {
        "notice": "Get the number of signups"
      },
      "padAndHashMessage(uint256[2])": {
        "notice": "An utility function used to pad and hash a MACI message"
      },
      "pollFactory()": {
        "notice": "Factory contract that deploy a Poll contract"
      },
      "polls(uint256)": {
        "notice": "A mapping of poll IDs to Poll contracts."
      },
      "sha256Hash(uint256[])": {
        "notice": "Computes the SHA256 hash of an array of uint256 elements."
      },
      "signUp((uint256,uint256),bytes,bytes)": {
        "notice": "Allows any eligible user sign up. The sign-up gatekeeper should prevent double sign-ups or ineligible users from doing so.  This function will only succeed if the sign-up deadline has not passed. It also enqueues a fresh state leaf into the state AccQueue."
      },
      "signUpGatekeeper()": {
        "notice": "Address of the SignUpGatekeeper, a contract which determines whether a user may sign up to vote"
      },
      "stateTreeDepth()": {
        "notice": "The state tree depth is fixed. As such it should be as large as feasible so that there can be as many users as possible.  i.e. 2 ** 23 = 8388608 this should also match the parameter of the circom circuits.IMPORTANT: remember to change the ballot tree depth in contracts/ts/genEmptyBallotRootsContract.ts file if we change the state tree depth!"
      },
      "tallyFactory()": {
        "notice": "Factory contract that deploy a Tally contract"
      },
      "verifiedAadhaar((uint256,uint256,uint256,uint256,uint256[4],uint256[8]))": {
        "notice": "Begining of AnonAadhaar integration "
      }
    },
    "notice": "A contract which allows users to sign up, and deploy new polls",
    "version": 1
  },
  "storageLayout": {
    "storage": [
      {
        "astId": 928,
        "contract": "contracts/maci-contracts/MACIWrapper.sol:MACIWrapper",
        "label": "emptyBallotRoots",
        "offset": 0,
        "slot": "0",
        "type": "t_array(t_uint256)5_storage"
      },
      {
        "astId": 931,
        "contract": "contracts/maci-contracts/MACIWrapper.sol:MACIWrapper",
        "label": "nextPollId",
        "offset": 0,
        "slot": "5",
        "type": "t_uint256"
      },
      {
        "astId": 936,
        "contract": "contracts/maci-contracts/MACIWrapper.sol:MACIWrapper",
        "label": "polls",
        "offset": 0,
        "slot": "6",
        "type": "t_mapping(t_uint256,t_address)"
      },
      {
        "astId": 952,
        "contract": "contracts/maci-contracts/MACIWrapper.sol:MACIWrapper",
        "label": "lazyIMTData",
        "offset": 0,
        "slot": "7",
        "type": "t_struct(LazyIMTData)3131_storage"
      },
      {
        "astId": 32,
        "contract": "contracts/maci-contracts/MACIWrapper.sol:MACIWrapper",
        "label": "_owner",
        "offset": 0,
        "slot": "9",
        "type": "t_address"
      },
      {
        "astId": 269,
        "contract": "contracts/maci-contracts/MACIWrapper.sol:MACIWrapper",
        "label": "anonAadhaarVerifierAddr",
        "offset": 0,
        "slot": "10",
        "type": "t_address"
      },
      {
        "astId": 285,
        "contract": "contracts/maci-contracts/MACIWrapper.sol:MACIWrapper",
        "label": "_polls",
        "offset": 0,
        "slot": "11",
        "type": "t_mapping(t_uint256,t_struct(PollData)248_storage)"
      },
      {
        "astId": 288,
        "contract": "contracts/maci-contracts/MACIWrapper.sol:MACIWrapper",
        "label": "treeDepths",
        "offset": 0,
        "slot": "12",
        "type": "t_struct(TreeDepths)3918_storage"
      },
      {
        "astId": 291,
        "contract": "contracts/maci-contracts/MACIWrapper.sol:MACIWrapper",
        "label": "coordinatorPubKey",
        "offset": 0,
        "slot": "13",
        "type": "t_struct(PubKey)3891_storage"
      },
      {
        "astId": 293,
        "contract": "contracts/maci-contracts/MACIWrapper.sol:MACIWrapper",
        "label": "verifier",
        "offset": 0,
        "slot": "15",
        "type": "t_address"
      },
      {
        "astId": 295,
        "contract": "contracts/maci-contracts/MACIWrapper.sol:MACIWrapper",
        "label": "vkRegistry",
        "offset": 0,
        "slot": "16",
        "type": "t_address"
      },
      {
        "astId": 299,
        "contract": "contracts/maci-contracts/MACIWrapper.sol:MACIWrapper",
        "label": "pollIds",
        "offset": 0,
        "slot": "17",
        "type": "t_mapping(t_address,t_uint256)"
      },
      {
        "astId": 331,
        "contract": "contracts/maci-contracts/MACIWrapper.sol:MACIWrapper",
        "label": "isPublicKeyRegistered",
        "offset": 0,
        "slot": "18",
        "type": "t_mapping(t_uint256,t_mapping(t_uint256,t_bool))"
      }
    ],
    "types": {
      "t_address": {
        "encoding": "inplace",
        "label": "address",
        "numberOfBytes": "20"
      },
      "t_array(t_string_storage)dyn_storage": {
        "base": "t_string_storage",
        "encoding": "dynamic_array",
        "label": "string[]",
        "numberOfBytes": "32"
      },
      "t_array(t_uint256)5_storage": {
        "base": "t_uint256",
        "encoding": "inplace",
        "label": "uint256[5]",
        "numberOfBytes": "160"
      },
      "t_bool": {
        "encoding": "inplace",
        "label": "bool",
        "numberOfBytes": "1"
      },
      "t_bytes_storage": {
        "encoding": "bytes",
        "label": "bytes",
        "numberOfBytes": "32"
      },
      "t_mapping(t_address,t_uint256)": {
        "encoding": "mapping",
        "key": "t_address",
        "label": "mapping(address => uint256)",
        "numberOfBytes": "32",
        "value": "t_uint256"
      },
      "t_mapping(t_uint256,t_address)": {
        "encoding": "mapping",
        "key": "t_uint256",
        "label": "mapping(uint256 => address)",
        "numberOfBytes": "32",
        "value": "t_address"
      },
      "t_mapping(t_uint256,t_bool)": {
        "encoding": "mapping",
        "key": "t_uint256",
        "label": "mapping(uint256 => bool)",
        "numberOfBytes": "32",
        "value": "t_bool"
      },
      "t_mapping(t_uint256,t_mapping(t_uint256,t_bool))": {
        "encoding": "mapping",
        "key": "t_uint256",
        "label": "mapping(uint256 => mapping(uint256 => bool))",
        "numberOfBytes": "32",
        "value": "t_mapping(t_uint256,t_bool)"
      },
      "t_mapping(t_uint256,t_struct(PollData)248_storage)": {
        "encoding": "mapping",
        "key": "t_uint256",
        "label": "mapping(uint256 => struct MACIWrapper.PollData)",
        "numberOfBytes": "32",
        "value": "t_struct(PollData)248_storage"
      },
      "t_mapping(t_uint256,t_uint256)": {
        "encoding": "mapping",
        "key": "t_uint256",
        "label": "mapping(uint256 => uint256)",
        "numberOfBytes": "32",
        "value": "t_uint256"
      },
      "t_string_storage": {
        "encoding": "bytes",
        "label": "string",
        "numberOfBytes": "32"
      },
      "t_struct(LazyIMTData)3131_storage": {
        "encoding": "inplace",
        "label": "struct LazyIMTData",
        "members": [
          {
            "astId": 3124,
            "contract": "contracts/maci-contracts/MACIWrapper.sol:MACIWrapper",
            "label": "maxIndex",
            "offset": 0,
            "slot": "0",
            "type": "t_uint40"
          },
          {
            "astId": 3126,
            "contract": "contracts/maci-contracts/MACIWrapper.sol:MACIWrapper",
            "label": "numberOfLeaves",
            "offset": 5,
            "slot": "0",
            "type": "t_uint40"
          },
          {
            "astId": 3130,
            "contract": "contracts/maci-contracts/MACIWrapper.sol:MACIWrapper",
            "label": "elements",
            "offset": 0,
            "slot": "1",
            "type": "t_mapping(t_uint256,t_uint256)"
          }
        ],
        "numberOfBytes": "64"
      },
      "t_struct(PollContracts)968_storage": {
        "encoding": "inplace",
        "label": "struct MACI.PollContracts",
        "members": [
          {
            "astId": 963,
            "contract": "contracts/maci-contracts/MACIWrapper.sol:MACIWrapper",
            "label": "poll",
            "offset": 0,
            "slot": "0",
            "type": "t_address"
          },
          {
            "astId": 965,
            "contract": "contracts/maci-contracts/MACIWrapper.sol:MACIWrapper",
            "label": "messageProcessor",
            "offset": 0,
            "slot": "1",
            "type": "t_address"
          },
          {
            "astId": 967,
            "contract": "contracts/maci-contracts/MACIWrapper.sol:MACIWrapper",
            "label": "tally",
            "offset": 0,
            "slot": "2",
            "type": "t_address"
          }
        ],
        "numberOfBytes": "96"
      },
      "t_struct(PollData)248_storage": {
        "encoding": "inplace",
        "label": "struct MACIWrapper.PollData",
        "members": [
          {
            "astId": 227,
            "contract": "contracts/maci-contracts/MACIWrapper.sol:MACIWrapper",
            "label": "id",
            "offset": 0,
            "slot": "0",
            "type": "t_uint256"
          },
          {
            "astId": 229,
            "contract": "contracts/maci-contracts/MACIWrapper.sol:MACIWrapper",
            "label": "name",
            "offset": 0,
            "slot": "1",
            "type": "t_string_storage"
          },
          {
            "astId": 231,
            "contract": "contracts/maci-contracts/MACIWrapper.sol:MACIWrapper",
            "label": "encodedOptions",
            "offset": 0,
            "slot": "2",
            "type": "t_bytes_storage"
          },
          {
            "astId": 233,
            "contract": "contracts/maci-contracts/MACIWrapper.sol:MACIWrapper",
            "label": "metadata",
            "offset": 0,
            "slot": "3",
            "type": "t_string_storage"
          },
          {
            "astId": 236,
            "contract": "contracts/maci-contracts/MACIWrapper.sol:MACIWrapper",
            "label": "pollContracts",
            "offset": 0,
            "slot": "4",
            "type": "t_struct(PollContracts)968_storage"
          },
          {
            "astId": 238,
            "contract": "contracts/maci-contracts/MACIWrapper.sol:MACIWrapper",
            "label": "startTime",
            "offset": 0,
            "slot": "7",
            "type": "t_uint256"
          },
          {
            "astId": 240,
            "contract": "contracts/maci-contracts/MACIWrapper.sol:MACIWrapper",
            "label": "endTime",
            "offset": 0,
            "slot": "8",
            "type": "t_uint256"
          },
          {
            "astId": 242,
            "contract": "contracts/maci-contracts/MACIWrapper.sol:MACIWrapper",
            "label": "numOfOptions",
            "offset": 0,
            "slot": "9",
            "type": "t_uint256"
          },
          {
            "astId": 245,
            "contract": "contracts/maci-contracts/MACIWrapper.sol:MACIWrapper",
            "label": "options",
            "offset": 0,
            "slot": "10",
            "type": "t_array(t_string_storage)dyn_storage"
          },
          {
            "astId": 247,
            "contract": "contracts/maci-contracts/MACIWrapper.sol:MACIWrapper",
            "label": "tallyJsonCID",
            "offset": 0,
            "slot": "11",
            "type": "t_string_storage"
          }
        ],
        "numberOfBytes": "384"
      },
      "t_struct(PubKey)3891_storage": {
        "encoding": "inplace",
        "label": "struct DomainObjs.PubKey",
        "members": [
          {
            "astId": 3888,
            "contract": "contracts/maci-contracts/MACIWrapper.sol:MACIWrapper",
            "label": "x",
            "offset": 0,
            "slot": "0",
            "type": "t_uint256"
          },
          {
            "astId": 3890,
            "contract": "contracts/maci-contracts/MACIWrapper.sol:MACIWrapper",
            "label": "y",
            "offset": 0,
            "slot": "1",
            "type": "t_uint256"
          }
        ],
        "numberOfBytes": "64"
      },
      "t_struct(TreeDepths)3918_storage": {
        "encoding": "inplace",
        "label": "struct Params.TreeDepths",
        "members": [
          {
            "astId": 3911,
            "contract": "contracts/maci-contracts/MACIWrapper.sol:MACIWrapper",
            "label": "intStateTreeDepth",
            "offset": 0,
            "slot": "0",
            "type": "t_uint8"
          },
          {
            "astId": 3913,
            "contract": "contracts/maci-contracts/MACIWrapper.sol:MACIWrapper",
            "label": "messageTreeSubDepth",
            "offset": 1,
            "slot": "0",
            "type": "t_uint8"
          },
          {
            "astId": 3915,
            "contract": "contracts/maci-contracts/MACIWrapper.sol:MACIWrapper",
            "label": "messageTreeDepth",
            "offset": 2,
            "slot": "0",
            "type": "t_uint8"
          },
          {
            "astId": 3917,
            "contract": "contracts/maci-contracts/MACIWrapper.sol:MACIWrapper",
            "label": "voteOptionTreeDepth",
            "offset": 3,
            "slot": "0",
            "type": "t_uint8"
          }
        ],
        "numberOfBytes": "32"
      },
      "t_uint256": {
        "encoding": "inplace",
        "label": "uint256",
        "numberOfBytes": "32"
      },
      "t_uint40": {
        "encoding": "inplace",
        "label": "uint40",
        "numberOfBytes": "5"
      },
      "t_uint8": {
        "encoding": "inplace",
        "label": "uint8",
        "numberOfBytes": "1"
      }
    }
  }
}