{
  "address": "0xaF2A74837e20B91B34F8d126BbeA3c0bE1DA7b79",
  "abi": [
    {
      "inputs": [],
      "name": "MESSAGE_DATA_LENGTH",
      "outputs": [
        {
          "internalType": "uint8",
          "name": "",
          "type": "uint8"
        }
      ],
      "stateMutability": "view",
      "type": "function"
    },
    {
      "inputs": [
        {
          "internalType": "address",
          "name": "_verifier",
          "type": "address"
        },
        {
          "internalType": "address",
          "name": "_vkRegistry",
          "type": "address"
        },
        {
          "internalType": "address",
          "name": "_poll",
          "type": "address"
        },
        {
          "internalType": "address",
          "name": "_owner",
          "type": "address"
        },
        {
          "internalType": "enum DomainObjs.Mode",
          "name": "_mode",
          "type": "uint8"
        }
      ],
      "name": "deploy",
      "outputs": [
        {
          "internalType": "address",
          "name": "messageProcessorAddr",
          "type": "address"
        }
      ],
      "stateMutability": "nonpayable",
      "type": "function"
    }
  ],
  "transactionHash": "0x5bffb9572238b4a5846436d4bf8348ebd65001279fc3581e36539f31c4ff71bb",
  "args": [],
  "numDeployments": 1,
  "bytecode": "0x608060405234801561001057600080fd5b5061231d806100206000396000f3fe608060405234801561001057600080fd5b50600436106100365760003560e01c8063363448731461003b578063683f3dc31461006b575b600080fd5b61004e6100493660046100f8565b610085565b6040516001600160a01b0390911681526020015b60405180910390f35b610073600a81565b60405160ff9091168152602001610062565b6000808686868686604051610099906100cf565b6100a7959493929190610165565b604051809103906000f0801580156100c3573d6000803e3d6000fd5b50979650505050505050565b61212c806101bc83390190565b80356001600160a01b03811681146100f357600080fd5b919050565b600080600080600060a0868803121561011057600080fd5b610119866100dc565b9450610127602087016100dc565b9350610135604087016100dc565b9250610143606087016100dc565b915060808601356002811061015757600080fd5b809150509295509295909350565b6001600160a01b038681168252858116602083015284811660408301528316606082015260a08101600283106101ab57634e487b7160e01b600052602160045260246000fd5b826080830152969550505050505056fe6101006040526040516200212c3803806200212c833981016040819052620000279162000124565b816001600160a01b0381166200005757604051631e4fbdf760e01b81526000600482015260240160405180910390fd5b6200006281620000b7565b506001600160a01b0380861660a05284811660c05283166080528060018111156200009157620000916200019b565b60e0816001811115620000a857620000a86200019b565b815250505050505050620001b1565b600080546001600160a01b038381166001600160a01b0319831681178455604051919092169283917f8be0079c531659141344cd1fd0a4f28419497f9722a3daafe3b4186f6b6457e09190a35050565b80516001600160a01b03811681146200011f57600080fd5b919050565b600080600080600060a086880312156200013d57600080fd5b620001488662000107565b9450620001586020870162000107565b9350620001686040870162000107565b9250620001786060870162000107565b91506080860151600281106200018d57600080fd5b809150509295509295909350565b634e487b7160e01b600052602160045260246000fd5b60805160a05160c05160e051611ed862000254600039600081816101a6015261117601526000818161016701526110d80152600081816101da01526112140152600081816102cb01528181610347015281816103cd01528181610465015281816107eb0152818161083c015281816108e00152818161097c01528181610a9e01528181610b2b01528181610c4001528181610fb7015261103e0152611ed86000f3fe608060405234801561001057600080fd5b50600436106101375760003560e01c8063715018a6116100b8578063a11752791161007c578063a1175279146102c6578063b1a263d3146102ed578063bea140b314610300578063d13181b814610313578063d1849f481461031c578063f2fde38b1461032f57600080fd5b8063715018a61461026b5780637a38d18f146102755780638763d0c41461027e5780638da5cb5b146102a25780639cfced97146102b357600080fd5b80633dfb88b2116100ff5780633dfb88b21461020557806358bfc379146102185780635bb939951461022b57806362a361bb1461023e578063683f3dc31461025157600080fd5b80630cd3b91d1461013c57806313fb893214610162578063295a5212146101a15780632b7ac3f3146101d55780633d6528a1146101fc575b600080fd5b61014f61014a366004611306565b610342565b6040519081526020015b60405180910390f35b6101897f000000000000000000000000000000000000000000000000000000000000000081565b6040516001600160a01b039091168152602001610159565b6101c87f000000000000000000000000000000000000000000000000000000000000000081565b604051610159919061139b565b6101897f000000000000000000000000000000000000000000000000000000000000000081565b61014f60025481565b61014f61021336600461143c565b610616565b61014f6102263660046114de565b610697565b61014f610239366004611574565b610731565b61014f61024c366004611596565b610756565b610259600a81565b60405160ff9091168152602001610159565b610273610790565b005b61014f60015481565b60005461029290600160a01b900460ff1681565b6040519015158152602001610159565b6000546001600160a01b0316610189565b61014f6102c13660046115f6565b6107a4565b6101897f000000000000000000000000000000000000000000000000000000000000000081565b6102736102fb366004611631565b6107de565b61014f61030e3660046116bd565b610d18565b61014f60035481565b61014f61032a366004611716565b610d52565b61027361033d366004611781565b610e53565b6000807f00000000000000000000000000000000000000000000000000000000000000006001600160a01b0316638aa0ba926040518163ffffffff1660e01b8152600401602060405180830381865afa1580156103a3573d6000803e3d6000fd5b505050506040513d601f19601f820116820180604052508101906103c791906117a5565b905060007f00000000000000000000000000000000000000000000000000000000000000006001600160a01b0316637028bb0e6040518163ffffffff1660e01b8152600401602060405180830381865afa158015610429573d6000803e3d6000fd5b505050506040513d601f19601f8201168201806040525081019061044d91906117be565b9050600061045e8c8b8b8989610d52565b90506000807f00000000000000000000000000000000000000000000000000000000000000006001600160a01b0316634909229f6040518163ffffffff1660e01b81526004016040805180830381865afa1580156104c0573d6000803e3d6000fd5b505050506040513d601f19601f820116820180604052508101906104e491906117db565b6040805160078082526101008201909252929450909250600091906020820160e0803683370190505090508381600081518110610523576105236117ff565b6020026020010181815250508581600181518110610543576105436117ff565b6020026020010181815250508d81600281518110610563576105636117ff565b6020026020010181815250508a81600381518110610583576105836117ff565b60200260200101818152505089816004815181106105a3576105a36117ff565b60209081029190910101526105b8828461182b565b816005815181106105cb576105cb6117ff565b6020026020010181815250508460ff16816006815181106105ee576105ee6117ff565b60200260200101818152505061060381610697565b9f9e505050505050505050505050505050565b60405163248f667760e01b8152600090739f462B8a25CEa98cd41145F2ea8e4a4686B353839063248f66779061065090859060040161183e565b602060405180830381865af415801561066d573d6000803e3d6000fd5b505050506040513d601f19601f8201168201806040525081019061069191906117a5565b92915050565b60007f30644e72e131a029b85045b68181585d2833e84879b9709143e1f593f00000016002836040516020016106cd919061186f565b60408051601f19818403018152908290526106e7916118a5565b602060405180830381855afa158015610704573d6000803e3d6000fd5b5050506040513d601f19601f8201168201806040525081019061072791906117a5565b61069191906118d4565b600061073b6112d9565b8381526020810183905261074e81610756565b949350505050565b6040516314d2f97b60e11b81526000907364E7C56b583ceDb31aCF52CfEF5e17bb4d0C232d906329a5f2f6906106509085906004016118f6565b610798610e96565b6107a26000610ec3565b565b604051630926f44b60e31b815260009073f2219FE2c9f804dB06409574B410b439015C0E9C90634937a2589061065090859060040161191e565b6107e6610e96565b61080f7f0000000000000000000000000000000000000000000000000000000000000000610f13565b600054600160a01b900460ff161561083a5760405163a7f0397560e01b815260040160405180910390fd5b7f00000000000000000000000000000000000000000000000000000000000000006001600160a01b031663e33b13a06040518163ffffffff1660e01b8152600401602060405180830381865afa158015610898573d6000803e3d6000fd5b505050506040513d601f19601f820116820180604052508101906108bc9190611946565b6108d95760405163e5fe9e1560e01b815260040160405180910390fd5b60008060007f00000000000000000000000000000000000000000000000000000000000000006001600160a01b031663ac98e5df6040518163ffffffff1660e01b8152600401608060405180830381865afa15801561093c573d6000803e3d6000fd5b505050506040513d601f19601f820116820180604052508101906109609190611968565b9350935093505060008360056109769190611aab565b905060007f00000000000000000000000000000000000000000000000000000000000000006001600160a01b031663bc14ee2b6040518163ffffffff1660e01b81526004016040805180830381865afa1580156109d7573d6000803e3d6000fd5b505050506040513d601f19601f820116820180604052508101906109fb9190611aba565b604051631b9b8aa760e01b815260ff87166004820152909250600091506001600160a01b03831690631b9b8aa790602401602060405180830381865afa158015610a49573d6000803e3d6000fd5b505050506040513d601f19601f82011682018060405250810190610a6d91906117a5565b905080600003610a905760405163c0b868a560e01b815260040160405180910390fd5b600154600003610c085760007f00000000000000000000000000000000000000000000000000000000000000006001600160a01b031663c17268d96040518163ffffffff1660e01b8152600401602060405180830381865afa158015610afa573d6000803e3d6000fd5b505050506040513d601f19601f82011682018060405250810190610b1e91906117a5565b90508060038190555060007f00000000000000000000000000000000000000000000000000000000000000006001600160a01b0316634f367f0f6040518163ffffffff1660e01b81526004016040805180830381865afa158015610b86573d6000803e3d6000fd5b505050506040513d601f19601f82011682018060405250810190610baa91906117db565b915060009050610bba86836118d4565b600283905590508115610c045780600003610bec578560026000828254610be19190611af4565b90915550610c049050565b8060026000828254610bfe9190611af4565b90915550505b5050505b610c1c600254826003548b8a8a8a8e610fb0565b610c3c5760405160016268f24f60e01b0319815260040160405180910390fd5b60007f00000000000000000000000000000000000000000000000000000000000000006001600160a01b0316634f367f0f6040518163ffffffff1660e01b81526004016040805180830381865afa158015610c9b573d6000803e3d6000fd5b505050506040513d601f19601f82011682018060405250810190610cbf91906117db565b91505060006002541115610ce5578360026000828254610cdf9190611af4565b90915550505b610d0d896002546001546001610cfb919061182b565b610d059088611b07565b8411156112a0565b505050505050505050565b6040516304b98e1d60e31b81526000907375674B724EA1C45cA535A279aC52B926738152A2906325cc70e890610650908590600401611b1e565b600080610d60836005611aab565b90506000610d6f856005611aab565b90506000610d7d828a61182b565b905086811115610d8a5750855b600160321b8310610dae5760405163df0dbdbd60e01b815260040160405180910390fd5b600160321b8810610dd257604051631805864f60e21b815260040160405180910390fd5b600160321b8910610df6576040516328b2660560e21b815260040160405180910390fd5b600160321b8110610e1a576040516309c5b7c360e21b815260040160405180910390fd5b609681901b60648a901b610e3260328b901b8661182b565b610e3c919061182b565b610e46919061182b565b9998505050505050505050565b610e5b610e96565b6001600160a01b038116610e8a57604051631e4fbdf760e01b8152600060048201526024015b60405180910390fd5b610e9381610ec3565b50565b6000546001600160a01b031633146107a25760405163118cdaa760e01b8152336004820152602401610e81565b600080546001600160a01b038381166001600160a01b0319831681178455604051919092169283917f8be0079c531659141344cd1fd0a4f28419497f9722a3daafe3b4186f6b6457e09190a35050565b600080826001600160a01b0316634909229f6040518163ffffffff1660e01b81526004016040805180830381865afa158015610f53573d6000803e3d6000fd5b505050506040513d601f19601f82011682018060405250810190610f7791906117db565b90925090506000610f888342611af4565b9050818111610faa57604051635c3017c560e11b815260040160405180910390fd5b50505050565b60008060007f00000000000000000000000000000000000000000000000000000000000000006001600160a01b0316634f367f0f6040518163ffffffff1660e01b81526004016040805180830381865afa158015611012573d6000803e3d6000fd5b505050506040513d601f19601f8201168201806040525081019061103691906117db565b9150915060007f00000000000000000000000000000000000000000000000000000000000000006001600160a01b031663bc14ee2b6040518163ffffffff1660e01b81526004016040805180830381865afa158015611099573d6000803e3d6000fd5b505050506040513d601f19601f820116820180604052508101906110bd9190611aba565b50905060006110d28d8d86868f8f8f8e610342565b905060007f00000000000000000000000000000000000000000000000000000000000000006001600160a01b031663d88ff4f5846001600160a01b031663652c76e46040518163ffffffff1660e01b8152600401602060405180830381865afa158015611143573d6000803e3d6000fd5b505050506040513d601f19601f8201168201806040525081019061116791906117be565b8b8b6111748f6005611aab565b7f00000000000000000000000000000000000000000000000000000000000000006040518663ffffffff1660e01b81526004016111b5959493929190611b46565b600060405180830381865afa1580156111d2573d6000803e3d6000fd5b505050506040513d6000823e601f3d908101601f191682016040526111fa9190810190611c33565b6040516308adcb2560e21b81529091506001600160a01b037f000000000000000000000000000000000000000000000000000000000000000016906322b72c949061124d908a9085908790600401611d91565b602060405180830381865afa15801561126a573d6000803e3d6000fd5b505050506040513d601f19601f8201168201806040525081019061128e9190611946565b9e9d5050505050505050505050505050565b60038390556000805460ff60a01b1916600160a01b83151502178155600283905560018054916112cf83611e89565b9190505550505050565b60405180604001604052806002906020820280368337509192915050565b60ff81168114610e9357600080fd5b600080600080600080600080610100898b03121561132357600080fd5b883597506020890135965060408901359550606089013594506080890135935060a0890135925060c0890135611358816112f7565b915060e0890135611368816112f7565b809150509295985092959890939650565b6002811061139757634e487b7160e01b600052602160045260246000fd5b9052565b602081016106918284611379565b634e487b7160e01b600052604160045260246000fd5b6040805190810167ffffffffffffffff811182821017156113e2576113e26113a9565b60405290565b60405160a0810167ffffffffffffffff811182821017156113e2576113e26113a9565b604051601f8201601f1916810167ffffffffffffffff81118282101715611434576114346113a9565b604052919050565b60006080828403121561144e57600080fd5b82601f83011261145d57600080fd5b6040516080810181811067ffffffffffffffff82111715611480576114806113a9565b60405280608084018581111561149557600080fd5b845b818110156114af578035835260209283019201611497565b509195945050505050565b600067ffffffffffffffff8211156114d4576114d46113a9565b5060051b60200190565b600060208083850312156114f157600080fd5b823567ffffffffffffffff81111561150857600080fd5b8301601f8101851361151957600080fd5b803561152c611527826114ba565b61140b565b81815260059190911b8201830190838101908783111561154b57600080fd5b928401925b8284101561156957833582529284019290840190611550565b979650505050505050565b6000806040838503121561158757600080fd5b50508035926020909101359150565b6000604082840312156115a857600080fd5b82601f8301126115b757600080fd5b6115bf6113bf565b8060408401858111156115d157600080fd5b845b818110156115eb5780358452602093840193016115d3565b509095945050505050565b600060a0828403121561160857600080fd5b82601f83011261161757600080fd5b61161f6113e8565b8060a08401858111156115d157600080fd5b60008061012080848603121561164657600080fd5b83359250602085603f86011261165b57600080fd5b604051610100810181811067ffffffffffffffff8211171561167f5761167f6113a9565b60405291850191808784111561169457600080fd5b8287015b848110156116af5780358252908301908301611698565b509497909650945050505050565b6000606082840312156116cf57600080fd5b82601f8301126116de57600080fd5b6040516060810181811067ffffffffffffffff82111715611701576117016113a9565b60405280606084018581111561149557600080fd5b600080600080600060a0868803121561172e57600080fd5b853594506020860135935060408601359250606086013561174e816112f7565b9150608086013561175e816112f7565b809150509295509295909350565b6001600160a01b0381168114610e9357600080fd5b60006020828403121561179357600080fd5b813561179e8161176c565b9392505050565b6000602082840312156117b757600080fd5b5051919050565b6000602082840312156117d057600080fd5b815161179e816112f7565b600080604083850312156117ee57600080fd5b505080516020909101519092909150565b634e487b7160e01b600052603260045260246000fd5b634e487b7160e01b600052601160045260246000fd5b8082018082111561069157610691611815565b60808101818360005b6004811015611866578151835260209283019290910190600101611847565b50505092915050565b815160009082906020808601845b838110156118995781518552938201939082019060010161187d565b50929695505050505050565b6000825160005b818110156118c657602081860181015185830152016118ac565b506000920191825250919050565b6000826118f157634e487b7160e01b600052601260045260246000fd5b500690565b60408101818360005b60028110156118665781518352602092830192909101906001016118ff565b60a08101818360005b6005811015611866578151835260209283019290910190600101611927565b60006020828403121561195857600080fd5b8151801515811461179e57600080fd5b6000806000806080858703121561197e57600080fd5b8451611989816112f7565b602086015190945061199a816112f7565b60408601519093506119ab816112f7565b60608601519092506119bc816112f7565b939692955090935050565b600181815b80851115611a025781600019048211156119e8576119e8611815565b808516156119f557918102915b93841c93908002906119cc565b509250929050565b600082611a1957506001610691565b81611a2657506000610691565b8160018114611a3c5760028114611a4657611a62565b6001915050610691565b60ff841115611a5757611a57611815565b50506001821b610691565b5060208310610133831016604e8410600b8410161715611a85575081810a610691565b611a8f83836119c7565b8060001904821115611aa357611aa3611815565b029392505050565b600061179e60ff841683611a0a565b60008060408385031215611acd57600080fd5b8251611ad88161176c565b6020840151909250611ae98161176c565b809150509250929050565b8181038181111561069157610691611815565b808202811582820484141761069157610691611815565b60608101818360005b6003811015611866578151835260209283019290910190600101611b27565b60ff86811682528581166020830152841660408201526060810183905260a08101611b746080830184611379565b9695505050505050565b600060408284031215611b9057600080fd5b611b986113bf565b9050815181526020820151602082015292915050565b600082601f830112611bbf57600080fd5b611bc76113bf565b806040840185811115611bd957600080fd5b845b818110156115eb578051845260209384019301611bdb565b600060808284031215611c0557600080fd5b611c0d6113bf565b9050611c198383611bae565b8152611c288360408401611bae565b602082015292915050565b60006020808385031215611c4657600080fd5b825167ffffffffffffffff80821115611c5e57600080fd5b908401906101e08287031215611c7357600080fd5b611c7b6113e8565b611c858784611b7e565b81526040611c9588828601611bf3565b85830152611ca68860c08601611bf3565b81830152611cb8886101408601611bf3565b60608301526101c084015183811115611cd057600080fd5b80850194505087601f850112611ce557600080fd5b83519250611cf5611527846114ba565b83815260069390931b84018501928581019089851115611d1457600080fd5b948601945b84861015611d3a57611d2b8a87611b7e565b82529482019490860190611d19565b60808401525090979650505050505050565b8060005b6002811015610faa578151845260209384019390910190600101611d50565b611d7a828251611d4c565b6020810151611d8c6040840182611d4c565b505050565b60006101408286835b6008811015611db9578151835260209283019290910190600101611d9a565b505050806101008401526103208301611ddf828501875180518252602090810151910152565b6020915081860151611df5610180860182611d6f565b50604080870151611e0a610200870182611d6f565b506060870151611e1e610280870182611d6f565b5060808701516101e06103008701528051928390528301916000906103408701905b80831015611e7157611e5d82865180518252602090810151910152565b938501936001929092019190830190611e40565b50809550505050505082610120830152949350505050565b600060018201611e9b57611e9b611815565b506001019056fea2646970667358221220618a956bff8a77bad171127bf1a6689902b8cca5139c59dce3b37cb75d3b9bef64736f6c63430008140033a26469706673582212208b0adce0540e6aede5c54590c9adfc89cf5b61d977c71e7d4cfc538ac13f838f64736f6c63430008140033",
  "deployedBytecode": "0x608060405234801561001057600080fd5b50600436106100365760003560e01c8063363448731461003b578063683f3dc31461006b575b600080fd5b61004e6100493660046100f8565b610085565b6040516001600160a01b0390911681526020015b60405180910390f35b610073600a81565b60405160ff9091168152602001610062565b6000808686868686604051610099906100cf565b6100a7959493929190610165565b604051809103906000f0801580156100c3573d6000803e3d6000fd5b50979650505050505050565b61212c806101bc83390190565b80356001600160a01b03811681146100f357600080fd5b919050565b600080600080600060a0868803121561011057600080fd5b610119866100dc565b9450610127602087016100dc565b9350610135604087016100dc565b9250610143606087016100dc565b915060808601356002811061015757600080fd5b809150509295509295909350565b6001600160a01b038681168252858116602083015284811660408301528316606082015260a08101600283106101ab57634e487b7160e01b600052602160045260246000fd5b826080830152969550505050505056fe6101006040526040516200212c3803806200212c833981016040819052620000279162000124565b816001600160a01b0381166200005757604051631e4fbdf760e01b81526000600482015260240160405180910390fd5b6200006281620000b7565b506001600160a01b0380861660a05284811660c05283166080528060018111156200009157620000916200019b565b60e0816001811115620000a857620000a86200019b565b815250505050505050620001b1565b600080546001600160a01b038381166001600160a01b0319831681178455604051919092169283917f8be0079c531659141344cd1fd0a4f28419497f9722a3daafe3b4186f6b6457e09190a35050565b80516001600160a01b03811681146200011f57600080fd5b919050565b600080600080600060a086880312156200013d57600080fd5b620001488662000107565b9450620001586020870162000107565b9350620001686040870162000107565b9250620001786060870162000107565b91506080860151600281106200018d57600080fd5b809150509295509295909350565b634e487b7160e01b600052602160045260246000fd5b60805160a05160c05160e051611ed862000254600039600081816101a6015261117601526000818161016701526110d80152600081816101da01526112140152600081816102cb01528181610347015281816103cd01528181610465015281816107eb0152818161083c015281816108e00152818161097c01528181610a9e01528181610b2b01528181610c4001528181610fb7015261103e0152611ed86000f3fe608060405234801561001057600080fd5b50600436106101375760003560e01c8063715018a6116100b8578063a11752791161007c578063a1175279146102c6578063b1a263d3146102ed578063bea140b314610300578063d13181b814610313578063d1849f481461031c578063f2fde38b1461032f57600080fd5b8063715018a61461026b5780637a38d18f146102755780638763d0c41461027e5780638da5cb5b146102a25780639cfced97146102b357600080fd5b80633dfb88b2116100ff5780633dfb88b21461020557806358bfc379146102185780635bb939951461022b57806362a361bb1461023e578063683f3dc31461025157600080fd5b80630cd3b91d1461013c57806313fb893214610162578063295a5212146101a15780632b7ac3f3146101d55780633d6528a1146101fc575b600080fd5b61014f61014a366004611306565b610342565b6040519081526020015b60405180910390f35b6101897f000000000000000000000000000000000000000000000000000000000000000081565b6040516001600160a01b039091168152602001610159565b6101c87f000000000000000000000000000000000000000000000000000000000000000081565b604051610159919061139b565b6101897f000000000000000000000000000000000000000000000000000000000000000081565b61014f60025481565b61014f61021336600461143c565b610616565b61014f6102263660046114de565b610697565b61014f610239366004611574565b610731565b61014f61024c366004611596565b610756565b610259600a81565b60405160ff9091168152602001610159565b610273610790565b005b61014f60015481565b60005461029290600160a01b900460ff1681565b6040519015158152602001610159565b6000546001600160a01b0316610189565b61014f6102c13660046115f6565b6107a4565b6101897f000000000000000000000000000000000000000000000000000000000000000081565b6102736102fb366004611631565b6107de565b61014f61030e3660046116bd565b610d18565b61014f60035481565b61014f61032a366004611716565b610d52565b61027361033d366004611781565b610e53565b6000807f00000000000000000000000000000000000000000000000000000000000000006001600160a01b0316638aa0ba926040518163ffffffff1660e01b8152600401602060405180830381865afa1580156103a3573d6000803e3d6000fd5b505050506040513d601f19601f820116820180604052508101906103c791906117a5565b905060007f00000000000000000000000000000000000000000000000000000000000000006001600160a01b0316637028bb0e6040518163ffffffff1660e01b8152600401602060405180830381865afa158015610429573d6000803e3d6000fd5b505050506040513d601f19601f8201168201806040525081019061044d91906117be565b9050600061045e8c8b8b8989610d52565b90506000807f00000000000000000000000000000000000000000000000000000000000000006001600160a01b0316634909229f6040518163ffffffff1660e01b81526004016040805180830381865afa1580156104c0573d6000803e3d6000fd5b505050506040513d601f19601f820116820180604052508101906104e491906117db565b6040805160078082526101008201909252929450909250600091906020820160e0803683370190505090508381600081518110610523576105236117ff565b6020026020010181815250508581600181518110610543576105436117ff565b6020026020010181815250508d81600281518110610563576105636117ff565b6020026020010181815250508a81600381518110610583576105836117ff565b60200260200101818152505089816004815181106105a3576105a36117ff565b60209081029190910101526105b8828461182b565b816005815181106105cb576105cb6117ff565b6020026020010181815250508460ff16816006815181106105ee576105ee6117ff565b60200260200101818152505061060381610697565b9f9e505050505050505050505050505050565b60405163248f667760e01b815260009073__$ce9c2c925f157047e54fa833ec4e61409f$__9063248f66779061065090859060040161183e565b602060405180830381865af415801561066d573d6000803e3d6000fd5b505050506040513d601f19601f8201168201806040525081019061069191906117a5565b92915050565b60007f30644e72e131a029b85045b68181585d2833e84879b9709143e1f593f00000016002836040516020016106cd919061186f565b60408051601f19818403018152908290526106e7916118a5565b602060405180830381855afa158015610704573d6000803e3d6000fd5b5050506040513d601f19601f8201168201806040525081019061072791906117a5565b61069191906118d4565b600061073b6112d9565b8381526020810183905261074e81610756565b949350505050565b6040516314d2f97b60e11b815260009073__$6574937f64fc1d7710ec0e28b7a36713bb$__906329a5f2f6906106509085906004016118f6565b610798610e96565b6107a26000610ec3565b565b604051630926f44b60e31b815260009073__$20527677031d76601747626a9845039fe4$__90634937a2589061065090859060040161191e565b6107e6610e96565b61080f7f0000000000000000000000000000000000000000000000000000000000000000610f13565b600054600160a01b900460ff161561083a5760405163a7f0397560e01b815260040160405180910390fd5b7f00000000000000000000000000000000000000000000000000000000000000006001600160a01b031663e33b13a06040518163ffffffff1660e01b8152600401602060405180830381865afa158015610898573d6000803e3d6000fd5b505050506040513d601f19601f820116820180604052508101906108bc9190611946565b6108d95760405163e5fe9e1560e01b815260040160405180910390fd5b60008060007f00000000000000000000000000000000000000000000000000000000000000006001600160a01b031663ac98e5df6040518163ffffffff1660e01b8152600401608060405180830381865afa15801561093c573d6000803e3d6000fd5b505050506040513d601f19601f820116820180604052508101906109609190611968565b9350935093505060008360056109769190611aab565b905060007f00000000000000000000000000000000000000000000000000000000000000006001600160a01b031663bc14ee2b6040518163ffffffff1660e01b81526004016040805180830381865afa1580156109d7573d6000803e3d6000fd5b505050506040513d601f19601f820116820180604052508101906109fb9190611aba565b604051631b9b8aa760e01b815260ff87166004820152909250600091506001600160a01b03831690631b9b8aa790602401602060405180830381865afa158015610a49573d6000803e3d6000fd5b505050506040513d601f19601f82011682018060405250810190610a6d91906117a5565b905080600003610a905760405163c0b868a560e01b815260040160405180910390fd5b600154600003610c085760007f00000000000000000000000000000000000000000000000000000000000000006001600160a01b031663c17268d96040518163ffffffff1660e01b8152600401602060405180830381865afa158015610afa573d6000803e3d6000fd5b505050506040513d601f19601f82011682018060405250810190610b1e91906117a5565b90508060038190555060007f00000000000000000000000000000000000000000000000000000000000000006001600160a01b0316634f367f0f6040518163ffffffff1660e01b81526004016040805180830381865afa158015610b86573d6000803e3d6000fd5b505050506040513d601f19601f82011682018060405250810190610baa91906117db565b915060009050610bba86836118d4565b600283905590508115610c045780600003610bec578560026000828254610be19190611af4565b90915550610c049050565b8060026000828254610bfe9190611af4565b90915550505b5050505b610c1c600254826003548b8a8a8a8e610fb0565b610c3c5760405160016268f24f60e01b0319815260040160405180910390fd5b60007f00000000000000000000000000000000000000000000000000000000000000006001600160a01b0316634f367f0f6040518163ffffffff1660e01b81526004016040805180830381865afa158015610c9b573d6000803e3d6000fd5b505050506040513d601f19601f82011682018060405250810190610cbf91906117db565b91505060006002541115610ce5578360026000828254610cdf9190611af4565b90915550505b610d0d896002546001546001610cfb919061182b565b610d059088611b07565b8411156112a0565b505050505050505050565b6040516304b98e1d60e31b815260009073__$dc01a9744591ab014bc46a3b7671cdaefb$__906325cc70e890610650908590600401611b1e565b600080610d60836005611aab565b90506000610d6f856005611aab565b90506000610d7d828a61182b565b905086811115610d8a5750855b600160321b8310610dae5760405163df0dbdbd60e01b815260040160405180910390fd5b600160321b8810610dd257604051631805864f60e21b815260040160405180910390fd5b600160321b8910610df6576040516328b2660560e21b815260040160405180910390fd5b600160321b8110610e1a576040516309c5b7c360e21b815260040160405180910390fd5b609681901b60648a901b610e3260328b901b8661182b565b610e3c919061182b565b610e46919061182b565b9998505050505050505050565b610e5b610e96565b6001600160a01b038116610e8a57604051631e4fbdf760e01b8152600060048201526024015b60405180910390fd5b610e9381610ec3565b50565b6000546001600160a01b031633146107a25760405163118cdaa760e01b8152336004820152602401610e81565b600080546001600160a01b038381166001600160a01b0319831681178455604051919092169283917f8be0079c531659141344cd1fd0a4f28419497f9722a3daafe3b4186f6b6457e09190a35050565b600080826001600160a01b0316634909229f6040518163ffffffff1660e01b81526004016040805180830381865afa158015610f53573d6000803e3d6000fd5b505050506040513d601f19601f82011682018060405250810190610f7791906117db565b90925090506000610f888342611af4565b9050818111610faa57604051635c3017c560e11b815260040160405180910390fd5b50505050565b60008060007f00000000000000000000000000000000000000000000000000000000000000006001600160a01b0316634f367f0f6040518163ffffffff1660e01b81526004016040805180830381865afa158015611012573d6000803e3d6000fd5b505050506040513d601f19601f8201168201806040525081019061103691906117db565b9150915060007f00000000000000000000000000000000000000000000000000000000000000006001600160a01b031663bc14ee2b6040518163ffffffff1660e01b81526004016040805180830381865afa158015611099573d6000803e3d6000fd5b505050506040513d601f19601f820116820180604052508101906110bd9190611aba565b50905060006110d28d8d86868f8f8f8e610342565b905060007f00000000000000000000000000000000000000000000000000000000000000006001600160a01b031663d88ff4f5846001600160a01b031663652c76e46040518163ffffffff1660e01b8152600401602060405180830381865afa158015611143573d6000803e3d6000fd5b505050506040513d601f19601f8201168201806040525081019061116791906117be565b8b8b6111748f6005611aab565b7f00000000000000000000000000000000000000000000000000000000000000006040518663ffffffff1660e01b81526004016111b5959493929190611b46565b600060405180830381865afa1580156111d2573d6000803e3d6000fd5b505050506040513d6000823e601f3d908101601f191682016040526111fa9190810190611c33565b6040516308adcb2560e21b81529091506001600160a01b037f000000000000000000000000000000000000000000000000000000000000000016906322b72c949061124d908a9085908790600401611d91565b602060405180830381865afa15801561126a573d6000803e3d6000fd5b505050506040513d601f19601f8201168201806040525081019061128e9190611946565b9e9d5050505050505050505050505050565b60038390556000805460ff60a01b1916600160a01b83151502178155600283905560018054916112cf83611e89565b9190505550505050565b60405180604001604052806002906020820280368337509192915050565b60ff81168114610e9357600080fd5b600080600080600080600080610100898b03121561132357600080fd5b883597506020890135965060408901359550606089013594506080890135935060a0890135925060c0890135611358816112f7565b915060e0890135611368816112f7565b809150509295985092959890939650565b6002811061139757634e487b7160e01b600052602160045260246000fd5b9052565b602081016106918284611379565b634e487b7160e01b600052604160045260246000fd5b6040805190810167ffffffffffffffff811182821017156113e2576113e26113a9565b60405290565b60405160a0810167ffffffffffffffff811182821017156113e2576113e26113a9565b604051601f8201601f1916810167ffffffffffffffff81118282101715611434576114346113a9565b604052919050565b60006080828403121561144e57600080fd5b82601f83011261145d57600080fd5b6040516080810181811067ffffffffffffffff82111715611480576114806113a9565b60405280608084018581111561149557600080fd5b845b818110156114af578035835260209283019201611497565b509195945050505050565b600067ffffffffffffffff8211156114d4576114d46113a9565b5060051b60200190565b600060208083850312156114f157600080fd5b823567ffffffffffffffff81111561150857600080fd5b8301601f8101851361151957600080fd5b803561152c611527826114ba565b61140b565b81815260059190911b8201830190838101908783111561154b57600080fd5b928401925b8284101561156957833582529284019290840190611550565b979650505050505050565b6000806040838503121561158757600080fd5b50508035926020909101359150565b6000604082840312156115a857600080fd5b82601f8301126115b757600080fd5b6115bf6113bf565b8060408401858111156115d157600080fd5b845b818110156115eb5780358452602093840193016115d3565b509095945050505050565b600060a0828403121561160857600080fd5b82601f83011261161757600080fd5b61161f6113e8565b8060a08401858111156115d157600080fd5b60008061012080848603121561164657600080fd5b83359250602085603f86011261165b57600080fd5b604051610100810181811067ffffffffffffffff8211171561167f5761167f6113a9565b60405291850191808784111561169457600080fd5b8287015b848110156116af5780358252908301908301611698565b509497909650945050505050565b6000606082840312156116cf57600080fd5b82601f8301126116de57600080fd5b6040516060810181811067ffffffffffffffff82111715611701576117016113a9565b60405280606084018581111561149557600080fd5b600080600080600060a0868803121561172e57600080fd5b853594506020860135935060408601359250606086013561174e816112f7565b9150608086013561175e816112f7565b809150509295509295909350565b6001600160a01b0381168114610e9357600080fd5b60006020828403121561179357600080fd5b813561179e8161176c565b9392505050565b6000602082840312156117b757600080fd5b5051919050565b6000602082840312156117d057600080fd5b815161179e816112f7565b600080604083850312156117ee57600080fd5b505080516020909101519092909150565b634e487b7160e01b600052603260045260246000fd5b634e487b7160e01b600052601160045260246000fd5b8082018082111561069157610691611815565b60808101818360005b6004811015611866578151835260209283019290910190600101611847565b50505092915050565b815160009082906020808601845b838110156118995781518552938201939082019060010161187d565b50929695505050505050565b6000825160005b818110156118c657602081860181015185830152016118ac565b506000920191825250919050565b6000826118f157634e487b7160e01b600052601260045260246000fd5b500690565b60408101818360005b60028110156118665781518352602092830192909101906001016118ff565b60a08101818360005b6005811015611866578151835260209283019290910190600101611927565b60006020828403121561195857600080fd5b8151801515811461179e57600080fd5b6000806000806080858703121561197e57600080fd5b8451611989816112f7565b602086015190945061199a816112f7565b60408601519093506119ab816112f7565b60608601519092506119bc816112f7565b939692955090935050565b600181815b80851115611a025781600019048211156119e8576119e8611815565b808516156119f557918102915b93841c93908002906119cc565b509250929050565b600082611a1957506001610691565b81611a2657506000610691565b8160018114611a3c5760028114611a4657611a62565b6001915050610691565b60ff841115611a5757611a57611815565b50506001821b610691565b5060208310610133831016604e8410600b8410161715611a85575081810a610691565b611a8f83836119c7565b8060001904821115611aa357611aa3611815565b029392505050565b600061179e60ff841683611a0a565b60008060408385031215611acd57600080fd5b8251611ad88161176c565b6020840151909250611ae98161176c565b809150509250929050565b8181038181111561069157610691611815565b808202811582820484141761069157610691611815565b60608101818360005b6003811015611866578151835260209283019290910190600101611b27565b60ff86811682528581166020830152841660408201526060810183905260a08101611b746080830184611379565b9695505050505050565b600060408284031215611b9057600080fd5b611b986113bf565b9050815181526020820151602082015292915050565b600082601f830112611bbf57600080fd5b611bc76113bf565b806040840185811115611bd957600080fd5b845b818110156115eb578051845260209384019301611bdb565b600060808284031215611c0557600080fd5b611c0d6113bf565b9050611c198383611bae565b8152611c288360408401611bae565b602082015292915050565b60006020808385031215611c4657600080fd5b825167ffffffffffffffff80821115611c5e57600080fd5b908401906101e08287031215611c7357600080fd5b611c7b6113e8565b611c858784611b7e565b81526040611c9588828601611bf3565b85830152611ca68860c08601611bf3565b81830152611cb8886101408601611bf3565b60608301526101c084015183811115611cd057600080fd5b80850194505087601f850112611ce557600080fd5b83519250611cf5611527846114ba565b83815260069390931b84018501928581019089851115611d1457600080fd5b948601945b84861015611d3a57611d2b8a87611b7e565b82529482019490860190611d19565b60808401525090979650505050505050565b8060005b6002811015610faa578151845260209384019390910190600101611d50565b611d7a828251611d4c565b6020810151611d8c6040840182611d4c565b505050565b60006101408286835b6008811015611db9578151835260209283019290910190600101611d9a565b505050806101008401526103208301611ddf828501875180518252602090810151910152565b6020915081860151611df5610180860182611d6f565b50604080870151611e0a610200870182611d6f565b506060870151611e1e610280870182611d6f565b5060808701516101e06103008701528051928390528301916000906103408701905b80831015611e7157611e5d82865180518252602090810151910152565b938501936001929092019190830190611e40565b50809550505050505082610120830152949350505050565b600060018201611e9b57611e9b611815565b506001019056fea2646970667358221220618a956bff8a77bad171127bf1a6689902b8cca5139c59dce3b37cb75d3b9bef64736f6c63430008140033a26469706673582212208b0adce0540e6aede5c54590c9adfc89cf5b61d977c71e7d4cfc538ac13f838f64736f6c63430008140033",
  "libraries": {
    "PoseidonT3": "0x64E7C56b583ceDb31aCF52CfEF5e17bb4d0C232d",
    "PoseidonT4": "0x75674B724EA1C45cA535A279aC52B926738152A2",
    "PoseidonT5": "0x9f462B8a25CEa98cd41145F2ea8e4a4686B35383",
    "PoseidonT6": "0xf2219FE2c9f804dB06409574B410b439015C0E9C"
  }
}