{
  "address": "0xD686361b7E6bDa5c729FF324B9e156990A300512",
  "abi": [
    {
      "inputs": [],
      "stateMutability": "payable",
      "type": "constructor"
    },
    {
      "inputs": [],
      "name": "InvalidMaxValues",
      "type": "error"
    },
    {
      "inputs": [],
      "name": "MESSAGE_DATA_LENGTH",
      "outputs": [
        {
          "internalType": "uint8",
          "name": "",
          "type": "uint8"
        }
      ],
      "stateMutability": "view",
      "type": "function"
    },
    {
      "inputs": [
        {
          "internalType": "uint256",
          "name": "_duration",
          "type": "uint256"
        },
        {
          "components": [
            {
              "internalType": "uint256",
              "name": "maxMessages",
              "type": "uint256"
            },
            {
              "internalType": "uint256",
              "name": "maxVoteOptions",
              "type": "uint256"
            }
          ],
          "internalType": "struct Params.MaxValues",
          "name": "_maxValues",
          "type": "tuple"
        },
        {
          "components": [
            {
              "internalType": "uint8",
              "name": "intStateTreeDepth",
              "type": "uint8"
            },
            {
              "internalType": "uint8",
              "name": "messageTreeSubDepth",
              "type": "uint8"
            },
            {
              "internalType": "uint8",
              "name": "messageTreeDepth",
              "type": "uint8"
            },
            {
              "internalType": "uint8",
              "name": "voteOptionTreeDepth",
              "type": "uint8"
            }
          ],
          "internalType": "struct Params.TreeDepths",
          "name": "_treeDepths",
          "type": "tuple"
        },
        {
          "components": [
            {
              "internalType": "uint256",
              "name": "x",
              "type": "uint256"
            },
            {
              "internalType": "uint256",
              "name": "y",
              "type": "uint256"
            }
          ],
          "internalType": "struct DomainObjs.PubKey",
          "name": "_coordinatorPubKey",
          "type": "tuple"
        },
        {
          "internalType": "address",
          "name": "_maci",
          "type": "address"
        },
        {
          "internalType": "uint256",
          "name": "_emptyBallotRoot",
          "type": "uint256"
        }
      ],
      "name": "deploy",
      "outputs": [
        {
          "internalType": "address",
          "name": "pollAddr",
          "type": "address"
        }
      ],
      "stateMutability": "nonpayable",
      "type": "function"
    }
  ],
  "transactionHash": "0x60b81e1d9d8e4e7cd7c31fe6446b062c48323cc53a5c93b0f4ec0d14c3da9284",
  "args": [],
  "numDeployments": 1,
  "bytecode": "0x6080604052614813806100136000396000f3fe60806040523480156200001157600080fd5b50600436106200003a5760003560e01c806309e34ddc146200003f578063683f3dc31462000073575b600080fd5b620000566200005036600462000272565b6200008f565b6040516001600160a01b0390911681526020015b60405180910390f35b6200007c600a81565b60405160ff90911681526020016200006a565b60006604000000000000866020013510620000bd576040516302c3596560e51b815260040160405180910390fd5b6000620000d1604087016020880162000317565b604051620000df906200023d565b60ff9091168152602001604051809103906000f08015801562000106573d6000803e3d6000fd5b50905060006040518060400160405280866001600160a01b03168152602001836001600160a01b0316815250905060008989898985896040516200014a906200024b565b6200015b969594939291906200033c565b604051809103906000f08015801562000178573d6000803e3d6000fd5b5060405163f2fde38b60e01b81526001600160a01b0380831660048301529192509084169063f2fde38b90602401600060405180830381600087803b158015620001c157600080fd5b505af1158015620001d6573d6000803e3d6000fd5b50505050806001600160a01b031663e1c7392a6040518163ffffffff1660e01b8152600401600060405180830381600087803b1580156200021657600080fd5b505af11580156200022b573d6000803e3d6000fd5b50929c9b505050505050505050505050565b6122dc80620003f383390190565b61210f80620026cf83390190565b6000604082840312156200026c57600080fd5b50919050565b6000806000806000808688036101608112156200028e57600080fd5b87359650620002a18960208a0162000259565b95506080605f1982011215620002b657600080fd5b50606087019350620002cc8860e0890162000259565b92506101208701356001600160a01b0381168114620002ea57600080fd5b8092505061014087013590509295509295509295565b803560ff811681146200031257600080fd5b919050565b6000602082840312156200032a57600080fd5b620003358262000300565b9392505050565b86815261018081016200035c602083018880358252602090810135910152565b60ff620003698762000300565b16606083015260ff6200037f6020880162000300565b16608083015260ff620003956040880162000300565b1660a083015260ff620003ab6060880162000300565b1660c0830152843560e0830152602085013561010083015283516001600160a01b03908116610120840152602090940151909316610140820152610160015294935050505056fe60e06040523480156200001157600080fd5b50604051620022dc380380620022dc83398101604081905262000034916200063d565b8080600533806200006057604051631e4fbdf760e01b8152600060048201526024015b60405180910390fd5b6200006b81620005ed565b50816000036200008e5760405163682e504160e11b815260040160405180910390fd5b6020821115620000bc57604051637ccdcc9760e11b8152600481018390526020602482015260440162000057565b80600214158015620000cf575080600514155b15620000ee57604051636f7b6c0360e01b815260040160405180910390fd5b6000805460ff60a01b191660028314600160a01b02179055608082905260a08190526200011c82826200076c565b60c05250507f12817f4161f2f5ded33f26c55735a77e80e4f8975483c8c2704745128417f7116101725550507f1c8de1edeabc24fc4c1595acaabb70be9b70f351d58c6fa338e1e9a994413bfb610173557f22fcda488c14b34fc60eb073fbe92fe10793e2ab14682e0f057332ddbef3d55c610174557f2db474db7c7212646cb15c6177d87be30711e6c04f1139d8e495ef1d1d998227610175557efde404053ec39a19f6ac347121a2264815dda84f910a388cb372e967a5d08c610176557f0723792ffab6ec6cfb3ece1509b9b4fb07e5bdb2299d1538e6e1db916f90cf89610177557f2a4392ec4e3d1811cd6a950cc865ee6f2342910a6551c5dce38cb995576c7c70610178557f1dead4c14f75e9d8449c80b648dcd4694c2ee50da2ba16e5e438f0d77ab02e34610179557f124c53ce0953fffb7ab5e3c143df6cd48ba747d3959fcb8086405d763ed5455061017a557f02bae19605746a8cd3f0927b2c01630f36f4d1bab9216ca839833e7ff6efa20661017b557f1f8375099becf17173d457d0d07bfb74c7067df1143b5ad987046e8e66817bc961017c557f0e13e954d61bb3fa3b03e7d136ca909b610fa2ca4443d920d94d16684f2b83d461017d557f1416ef2fc4f88fcfc4f9eb12f8e214b1c3e31c6c10ece9cfa51f078a3bbf345761017e557f032f915ff71e198a7955d2697249f40fb94c65812ed24e670c9700f52fdf6e0e61017f557f08bfebf4b3ddb0f8c51dd40193f5996da9f3d799ee0d8beb6be4038132df60b4610180557f065ac498cf4a5acaeb3b6cee826da9f834c961fa39feff6ae925b90dff79b613610181557f2e72c628101a93201b912a3e3fe96d39b0a9076ec39b7935a015c59bb32b8a2a610182557f19bba68e7b9da1e6ec42e52d7ab2adaf3b6a5521b1a454ec70f62e0ab702c085610183557f0de1f72745a5af2a34cac412e00eb6c8b5db1f3b52fa1bff88076c2726b83b08610184557f2e8f152603b2fac10d6a14c841327c23c502537367ccb1e42fab9a3bd9db2a8d610185557f14e16c3e0dcfd7e621a32627ebf37f6c0afb4467d34c7b7aeffded11769dec85610186557f0be1e62127948b4805c85a1d836574f0892ca6473fcde98f3fd1781248a9768f610187557f0930288fbd7c849197c8372f1dd8f9087f8a03f09b9cd904a469c15ef6b1b515610188557f231cac34e215e3f404d2fcfb79e0705deeb3d40978f0ee31072f6cbc1b579e33610189557f2e0e3cd2718ac7199b81dc14e841de40a9536b7ffe95fa1fc9c6b799e43e2c9761018a557f0718452506f0a232e98966d84b1a4675a66bd80263a2dc58bdac873825752fc361018b557f162d4ed998307d6e132edbf5c11f62f53d4636aa10cb3c2244c2bf5577168c3761018c557f247d6a5544a8f295a894ae77c7efcdcbf52e3bf4e5d0c0d2f40557a61d44984861018d557f0b8de3868471f109e91670daca698dba917d1c5535821f33aa9598d1db8e3d1961018e557f29851997020f527c92e20f030d232b81d334144a641e6a8866b46dd925005bbb61018f557f1a9cfcbe29a2b6503a03049727c0bca3111afd62f2836f392080321d1b4ef642610190557f1aa3ead91fa89cc1d6cb1d0eb76a27190c6abfdd3265d6d0a1e5c58feddaddf6610191557f0702fc26a7d367e6677efefd95204a7e00144c2fc7dbc2a581aa00d99f51f0816101925562000781565b600080546001600160a01b038381166001600160a01b0319831681178455604051919092169283917f8be0079c531659141344cd1fd0a4f28419497f9722a3daafe3b4186f6b6457e09190a35050565b6000602082840312156200065057600080fd5b5051919050565b634e487b7160e01b600052601160045260246000fd5b600181815b80851115620006ae57816000190482111562000692576200069262000657565b80851615620006a057918102915b93841c939080029062000672565b509250929050565b600082620006c75750600162000766565b81620006d65750600062000766565b8160018114620006ef5760028114620006fa576200071a565b600191505062000766565b60ff8411156200070e576200070e62000657565b50506001821b62000766565b5060208310610133831016604e8410600b84101617156200073f575081810a62000766565b6200074b83836200066d565b806000190482111562000762576200076262000657565b0290505b92915050565b60006200077a8383620006b6565b9392505050565b60805160a05160c051611aad6200082f600039600081816103ea01528181610a2501528181610ac201528181610c7f0152610d820152600081816103230152818161056e015281816106e401528181610bb401528181610ec301528181611037015261129801526000818161041a0152818161047b0152818161054401528181610bed01528181610cb801528181610d0201528181610e6401528181610f1a01526111d30152611aad6000f3fe608060405234801561001057600080fd5b50600436106101585760003560e01c806381d6a24a116100c3578063c00bdbcc1161007c578063c00bdbcc146102b8578063c15da65b146102cb578063d9c55ce1146102de578063dda89a6e146102e6578063e93fb4d4146102f0578063f2fde38b1461030357600080fd5b806381d6a24a146102455780638da5cb5b146102615780639cfced971461027c578063a27154ba1461028f578063b6a64acd14610297578063bea140b3146102a557600080fd5b806358bfc3791161011557806358bfc379146101cc5780635bb93995146101df5780635bf1fa4d146101f257806362a361bb1461020557806369e7c58614610218578063715018a61461023b57600080fd5b80631b9b8aa71461015d5780631ffc735d1461018357806324a47aeb146101965780633bfa6fce146101a95780633dfb88b2146101b15780633e1a8cc1146101c4575b600080fd5b61017061016b3660046114ba565b610316565b6040519081526020015b60405180910390f35b6101706101913660046114ba565b610399565b6101706101a43660046114ba565b6104c7565b6101706106d8565b6101706101bf36600461151a565b610723565b6101706107a4565b6101706101da366004611598565b6107d3565b6101706101ed36600461163e565b61086d565b61017061020036600461163e565b610892565b610170610213366004611660565b610931565b61016e5461022b90610100900460ff1681565b604051901515815260200161017a565b61024361096b565b005b610170546001546040805192835260208301919091520161017a565b6000546040516001600160a01b03909116815260200161017a565b61017061028a3660046116bb565b61097f565b610170602081565b61016e5461022b9060ff1681565b6101706102b3366004611714565b6109b9565b6102436102c63660046114ba565b6109f3565b6102436102d93660046114ba565b610a6f565b610243610c75565b6101706101715481565b6101706102fe3660046114ba565b610dbf565b61024361031136600461176d565b610dfa565b61017154600090610347837f0000000000000000000000000000000000000000000000000000000000000000611897565b101561037d5761017154604051627289df60e61b8152610374918491600401918252602082015260400190565b60405180910390fd5b61014d8260218110610391576103916118a3565b015492915050565b60006103a3610e35565b50610171546103b3826000610e62565b6103be8160016118b9565b610171556103cf61014d600061141f565b600061016f5561016e805460ff191690556101715461040f907f0000000000000000000000000000000000000000000000000000000000000000906118cc565b6000036104c25760027f000000000000000000000000000000000000000000000000000000000000000060218110610449576104496118a3565b600402015460018054600090815261014c6020526040812092909255805491610471836118ee565b90915550600290507f0000000000000000000000000000000000000000000000000000000000000000602181106104aa576104aa6118a3565b6004020160008091018190556104c29060869061141f565b919050565b60006104d1610e35565b816000036104f257604051630543d40760e11b815260040160405180910390fd5b61016e5460ff1661051657604051631e596e4360e11b815260040160405180910390fd5b602082111561054257604051632cd31ae960e01b81526004810183905260206024820152604401610374565b7f00000000000000000000000000000000000000000000000000000000000000005b61017154610592827f0000000000000000000000000000000000000000000000000000000000000000611897565b10156105aa57806105a2816118ee565b915050610564565b808310156105d457604051627289df60e61b81526004810184905260248101829052604401610374565b8083036106105761016f5461014d84602181106105f3576105f36118a3565b0155505061016e805461ff00191661010017905561016f54919050565b61016f549150805b838110156106aa57600061062b82610fa3565b600054909150600160a01b900460ff16156106635761064861142e565b8481526020810182905261065b81610931565b945050610697565b61066b61144c565b848152602081018290526040810182905260608101829052608081018290526106938161097f565b9450505b50806106a2816118ee565b915050610618565b508161014d84602181106106c0576106c06118a3565b015561016e805461ff00191661010017905550919050565b60015b600154610708827f0000000000000000000000000000000000000000000000000000000000000000611897565b10156107205780610718816118ee565b9150506106db565b90565b60405163248f667760e01b8152600090739f462B8a25CEa98cd41145F2ea8e4a4686B353839063248f66779061075d908590600401611907565b602060405180830381865af415801561077a573d6000803e3d6000fd5b505050506040513d601f19601f8201168201806040525081019061079e9190611938565b92915050565b61016e5460009060ff166107cb57604051631e596e4360e11b815260040160405180910390fd5b5061016f5490565b60007f30644e72e131a029b85045b68181585d2833e84879b9709143e1f593f00000016002836040516020016108099190611951565b60408051601f198184030181529082905261082391611987565b602060405180830381855afa158015610840573d6000803e3d6000fd5b5050506040513d601f19601f820116820180604052508101906108639190611938565b61079e91906118cc565b600061087761142e565b8381526020810183905261088a81610931565b949350505050565b600061089c61144c565b600284602181106108af576108af6118a3565b60040201548152600284602181106108c9576108c96118a3565b60040201600101548160016020020152600284602181106108ec576108ec6118a3565b600402016002015481600260200201526002846021811061090f5761090f6118a3565b6004020160030154816003602002015282816004602002015261088a8161097f565b6040516314d2f97b60e11b81526000907364E7C56b583ceDb31aCF52CfEF5e17bb4d0C232d906329a5f2f69061075d9085906004016119b6565b610973610e35565b61097d6000610fb9565b565b604051630926f44b60e31b815260009073f2219FE2c9f804dB06409574B410b439015C0E9C90634937a2589061075d9085906004016119de565b6040516304b98e1d60e31b81526000907375674B724EA1C45cA535A279aC52B926738152A2906325cc70e89061075d908590600401611a06565b6109fb610e35565b60018054600090815261014c6020526040812083905581549190610a1e836118ee565b91905055507f00000000000000000000000000000000000000000000000000000000000000006101716000828254610a5691906118b9565b9091555050600061016f555061016e805460ff19169055565b610a77610e35565b61016e5460ff1615610a9c57604051630d36aec160e01b815260040160405180910390fd5b61017154600003610ac0576040516316a0341160e11b815260040160405180910390fd5b7f000000000000000000000000000000000000000000000000000000000000000061017154610aef91906118cc565b15610afc57610afc610c75565b600154600103610b2557610b106000610dbf565b61016f5561016e805460ff1916600117905550565b6000610b2f6106d8565b610170549091506000905b600154811015610bab578315801590610b5257508382145b15610b5d5750505050565b610b74610b6c61017054610dbf565b600085611009565b6101708054906000610b85836118ee565b91905055508180610b95906118ee565b9250508080610ba3906118ee565b915050610b3a565b506000610bd8837f0000000000000000000000000000000000000000000000000000000000000000611897565b90506001546101705403610c41576000610c117f0000000000000000000000000000000000000000000000000000000000000000610fa3565b6001549091505b82811015610c3e57610c2c82600087611009565b80610c36816118ee565b915050610c18565b50505b60a78360218110610c5457610c546118a3565b600402016000015461016f55505061016e805460ff19166001179055505b50565b610c7d610e35565b7f000000000000000000000000000000000000000000000000000000000000000061017154610cac91906118cc565b600003610cf457610cdc7f0000000000000000000000000000000000000000000000000000000000000000610fa3565b600154600090815261014c6020526040902055610d65565b610cfe60006111d1565b60027f000000000000000000000000000000000000000000000000000000000000000060218110610d3157610d316118a3565b6004020154600154600090815261014c6020526040812091909155610d589060029061146a565b610d6561014d600061141f565b60006001546001610d7691906118b9565b60018190559050610da77f000000000000000000000000000000000000000000000000000000000000000082611a2e565b6101715550600061016f5561016e805460ff19169055565b60008160015411610de65760405163042a2e7160e11b815260048101839052602401610374565b50600090815261014c602052604090205490565b610e02610e35565b6001600160a01b038116610e2c57604051631e4fbdf760e01b815260006004820152602401610374565b610c7281610fb9565b6000546001600160a01b0316331461097d5760405163118cdaa760e01b8152336004820152602401610374565b7f0000000000000000000000000000000000000000000000000000000000000000811115610ea35760405163d1459f7960e01b815260040160405180910390fd5b600060868260218110610eb857610eb86118a3565b01549050610ee760017f0000000000000000000000000000000000000000000000000000000000000000611a45565b8114610f6c578260028360218110610f0157610f016118a3565b600402018260048110610f1657610f166118a3565b01557f00000000000000000000000000000000000000000000000000000000000000008214610f675760868260218110610f5257610f526118a3565b018054906000610f61836118ee565b91905055505b505050565b610f76828461133d565b925060868260218110610f8b57610f8b6118a3565b600091015581610f9a816118ee565b92505050610ea3565b60006101728260218110610391576103916118a3565b600080546001600160a01b038381166001600160a01b0319831681178455604051919092169283917f8be0079c531659141344cd1fd0a4f28419497f9722a3daafe3b4186f6b6457e09190a35050565b8082111561101657505050565b600061012b836021811061102c5761102c6118a3565b0154905061105b60017f0000000000000000000000000000000000000000000000000000000000000000611a45565b81146110b9578360a78460218110611075576110756118a3565b60040201826004811061108a5761108a6118a3565b015561012b83602181106110a0576110a06118a3565b0180549060006110af836118ee565b91905055506111cb565b60008054600160a01b900460ff1615611106576110d461142e565b60a785602181106110e7576110e76118a3565b60040201548152602081018690526110fe81610931565b91505061119b565b61110e61144c565b60005b838160ff1610156111755760a7866021811061112f5761112f6118a3565b600402018160ff1660048110611147576111476118a3565b0154828260ff166005811061115e5761115e6118a3565b60200201528061116d81611a58565b915050611111565b5085818460058110611189576111896118a3565b60200201526111978161097f565b9150505b61012b84602181106111af576111af6118a3565b60009101556111c9816111c38660016118b9565b85611009565b505b50505050565b7f0000000000000000000000000000000000000000000000000000000000000000811015610c725760006086826021811061120e5761120e6118a3565b01549050801561131257600061122261144c565b600061122d85610fa3565b905060005b848160ff1610156112965760028660218110611250576112506118a3565b600402018160ff1660048110611268576112686118a3565b0154838260ff166005811061127f5761127f6118a3565b60200201528061128e81611a58565b915050611232565b7f00000000000000000000000000000000000000000000000000000000000000008160ff1610156112ee5781838260ff16600581106112d7576112d76118a3565b6020020152806112e681611a58565b915050611296565b6112f78361097f565b935061130d846113088860016118b9565b610e62565b505050505b60868260218110611325576113256118a3565b600091015581611334816118ee565b925050506111d1565b600061134761144c565b6002846021811061135a5761135a6118a3565b6004020154815260028460218110611374576113746118a3565b6004020160010154816001602002015260028460218110611397576113976118a3565b60040201600201548160026020020152600284602181106113ba576113ba6118a3565b600402016003015481600360200201528281600460200201526113dc8161097f565b9150600284602181106113f1576113f16118a3565b60040201600061141891905060008155600101600081556001016000815560010160009055565b5092915050565b50610c72906021810190611479565b60405180604001604052806002906020820280368337509192915050565b6040518060a001604052806005906020820280368337509192915050565b50610c72906084810190611492565b5b8082111561148e576000815560010161147a565b5090565b8082111561148e57600080825560018201819055600282018190556003820155600401611492565b6000602082840312156114cc57600080fd5b5035919050565b634e487b7160e01b600052604160045260246000fd5b604051601f8201601f1916810167ffffffffffffffff81118282101715611512576115126114d3565b604052919050565b60006080828403121561152c57600080fd5b82601f83011261153b57600080fd5b6040516080810181811067ffffffffffffffff8211171561155e5761155e6114d3565b60405280608084018581111561157357600080fd5b845b8181101561158d578035835260209283019201611575565b509195945050505050565b600060208083850312156115ab57600080fd5b823567ffffffffffffffff808211156115c357600080fd5b818501915085601f8301126115d757600080fd5b8135818111156115e9576115e96114d3565b8060051b91506115fa8483016114e9565b818152918301840191848101908884111561161457600080fd5b938501935b8385101561163257843582529385019390850190611619565b98975050505050505050565b6000806040838503121561165157600080fd5b50508035926020909101359150565b60006040828403121561167257600080fd5b82601f83011261168157600080fd5b6040516040810181811067ffffffffffffffff821117156116a4576116a46114d3565b806040525080604084018581111561157357600080fd5b600060a082840312156116cd57600080fd5b82601f8301126116dc57600080fd5b60405160a0810181811067ffffffffffffffff821117156116ff576116ff6114d3565b6040528060a084018581111561157357600080fd5b60006060828403121561172657600080fd5b82601f83011261173557600080fd5b6040516060810181811067ffffffffffffffff82111715611758576117586114d3565b60405280606084018581111561157357600080fd5b60006020828403121561177f57600080fd5b81356001600160a01b038116811461179657600080fd5b9392505050565b634e487b7160e01b600052601160045260246000fd5b600181815b808511156117ee5781600019048211156117d4576117d461179d565b808516156117e157918102915b93841c93908002906117b8565b509250929050565b6000826118055750600161079e565b816118125750600061079e565b816001811461182857600281146118325761184e565b600191505061079e565b60ff8411156118435761184361179d565b50506001821b61079e565b5060208310610133831016604e8410600b8410161715611871575081810a61079e565b61187b83836117b3565b806000190482111561188f5761188f61179d565b029392505050565b600061179683836117f6565b634e487b7160e01b600052603260045260246000fd5b8082018082111561079e5761079e61179d565b6000826118e957634e487b7160e01b600052601260045260246000fd5b500690565b6000600182016119005761190061179d565b5060010190565b60808101818360005b600481101561192f578151835260209283019290910190600101611910565b50505092915050565b60006020828403121561194a57600080fd5b5051919050565b815160009082906020808601845b8381101561197b5781518552938201939082019060010161195f565b50929695505050505050565b6000825160005b818110156119a8576020818601810151858301520161198e565b506000920191825250919050565b60408101818360005b600281101561192f5781518352602092830192909101906001016119bf565b60a08101818360005b600581101561192f5781518352602092830192909101906001016119e7565b60608101818360005b600381101561192f578151835260209283019290910190600101611a0f565b808202811582820484141761079e5761079e61179d565b8181038181111561079e5761079e61179d565b600060ff821660ff8103611a6e57611a6e61179d565b6001019291505056fea2646970667358221220de48377ebab560ef190138d15ea2cd48ec74d706562bdc76aca8c6093ed43a8e64736f6c634300081400336101006040526040516200210f3803806200210f8339810160408190526200002791620003f6565b825160208401516200003a919062000123565b62000058576040516379fae7af60e01b815260040160405180910390fd5b8251600181905560208401516002819055620000759190620001d8565b6080528151600c80546001600160a01b039283166001600160a01b031991821617909155602093840151600d805491909316911617905560c095909552835160095592830151600a55508051600b805493830151604084015160609094015160ff90811663010000000263ff0000001995821662010000029590951663ffff0000199282166101000261ffff1990971691909416179490941793909316171790554260a05260e0526200056a565b600080600080516020620020ef83398151915284850990506000600080516020620020ef83398151915284850990506000600080516020620020ef83398151915282600080516020620020ef83398151915285620292fc090890506000600080516020620020ef8339815191528084600080516020620020ef83398151915287620292f809096001089050620001ca8282600080516020620020ef83398151915262000201565b159450505050505b92915050565b6000620001e4620002c4565b83815260208101839052620001f98162000244565b949350505050565b6000838381116200021b57620002188382620004f1565b90505b82806200022c576200022c620004c5565b60006200023a868462000507565b0895945050505050565b6040516314d2f97b60e11b81526000907364E7C56b583ceDb31aCF52CfEF5e17bb4d0C232d906329a5f2f690620002809085906004016200051d565b602060405180830381865af41580156200029e573d6000803e3d6000fd5b505050506040513d601f19601f82011682018060405250810190620001d2919062000550565b60405180604001604052806002906020820280368337509192915050565b604080519081016001600160401b03811182821017156200031357634e487b7160e01b600052604160045260246000fd5b60405290565b604051608081016001600160401b03811182821017156200031357634e487b7160e01b600052604160045260246000fd5b6000604082840312156200035d57600080fd5b62000367620002e2565b9050815181526020820151602082015292915050565b805160ff811681146200038f57600080fd5b919050565b6001600160a01b0381168114620003aa57600080fd5b50565b600060408284031215620003c057600080fd5b620003ca620002e2565b90508151620003d98162000394565b81526020820151620003eb8162000394565b602082015292915050565b6000806000806000808688036101808112156200041257600080fd5b87519650620004258960208a016200034a565b95506080605f19820112156200043a57600080fd5b506200044562000319565b62000453606089016200037d565b815262000463608089016200037d565b60208201526200047660a089016200037d565b60408201526200048960c089016200037d565b606082015293506200049f8860e089016200034a565b9250620004b1886101208901620003ad565b915061016087015190509295509295509295565b634e487b7160e01b600052601260045260246000fd5b634e487b7160e01b600052601160045260246000fd5b80820180821115620001d257620001d2620004db565b81810381811115620001d257620001d2620004db565b60408101818360005b60028110156200054757815183526020928301929091019060010162000526565b50505092915050565b6000602082840312156200056357600080fd5b5051919050565b60805160a05160c05160e051611b0c620005e3600039600081816103210152610cbf01526000818161027e015281816104f70152818161061201528181610a990152610bce01526000818161025d015281816104ce015281816105e901528181610a700152610ba50152600061037b0152611b0c6000f3fe608060405234801561001057600080fd5b50600436106101d95760003560e01c80637028bb0e11610104578063ac98e5df116100a2578063e1c7392a11610071578063e1c7392a14610477578063e33b13a01461047f578063edbfe83f1461049c578063fba630f2146104be57600080fd5b8063ac98e5df146103cb578063bc14ee2b14610421578063bea140b31461045b578063c17268d91461046e57600080fd5b80638aa0ba92116100de5780638aa0ba92146103765780639c9717291461039d5780639cfced97146103b0578063a28bc38c146103c357600080fd5b80637028bb0e146103435780637d0a81c8146103505780638a2a3dfb1461036357600080fd5b80634f367f0f1161017c578063623f54ac1161014b578063623f54ac146102dc57806362a361bb146102ef578063683f3dc3146103025780636d582d341461031c57600080fd5b80634f367f0f146102a257806358bfc379146102ad5780635bb93995146102c05780635d5909dd146102d357600080fd5b806327bea0da116101b857806327bea0da1461022757806331e766a51461023a5780633dfb88b2146102485780634909229f1461025b57600080fd5b8062329f2f146101de5780630396a0ce146101e85780630f4cf69214610210575b600080fd5b6101e66104c7565b005b600954600a546101f6919082565b604080519283526020830191909152015b60405180910390f35b61021960065481565b604051908152602001610207565b6101e6610235366004611279565b6105e2565b6001546002546101f6919082565b6102196102563660046112bc565b61076e565b7f00000000000000000000000000000000000000000000000000000000000000007f00000000000000000000000000000000000000000000000000000000000000006101f6565b6007546006546101f6565b6102196102bb36600461133a565b6107ef565b6102196102ce3660046113e0565b610877565b61021960075481565b6101e66102ea366004611402565b61089c565b6102196102fd3660046114cb565b610921565b61030a600a81565b60405160ff9091168152602001610207565b6102197f000000000000000000000000000000000000000000000000000000000000000081565b60085461030a9060ff1681565b61021961035e366004611575565b61095b565b6102196103713660046115d7565b61099b565b6102197f000000000000000000000000000000000000000000000000000000000000000081565b6101e66103ab36600461160e565b610a69565b6102196103be366004611627565b610b64565b6101e6610b9e565b600b546103f49060ff808216916101008104821691620100008204811691630100000090041684565b6040805160ff95861681529385166020850152918416918301919091529091166060820152608001610207565b600c54600d5461043b916001600160a01b03908116911682565b604080516001600160a01b03938416815292909116602083015201610207565b610219610469366004611680565b610ddf565b61021960055481565b6101e6610e19565b60045461048c9060ff1681565b6040519015158152602001610207565b6104af6104aa3660046114cb565b610f3c565b60405161020793929190611705565b61021960035481565b60006104f37f000000000000000000000000000000000000000000000000000000000000000042611748565b90507f0000000000000000000000000000000000000000000000000000000000000000811161053557604051630931513d60e11b815260040160405180910390fd5b600d54600b546040516324a47aeb60e01b81526201000090910460ff1660048201526000916001600160a01b0316906324a47aeb906024016020604051808303816000875af115801561058c573d6000803e3d6000fd5b505050506040513d601f19601f820116820180604052508101906105b0919061175b565b60405190915081907fc5624680ab5d50c84507f9e0dc2032163de2bda906ab8a661a53dd4d43bd5dc790600090a25050565b600061060e7f000000000000000000000000000000000000000000000000000000000000000042611748565b90507f000000000000000000000000000000000000000000000000000000000000000081106106505760405163148fb9a960e31b815260040160405180910390fd5b6009546006541061067457604051631ec0b2f760e01b815260040160405180910390fd5b61068382356020840135610fe4565b6106a0576040516379fae7af60e01b815260040160405180910390fd5b60068054600101905560006106be8461037136869003860186611774565b600d54604051631ffc735d60e01b8152600481018390529192506001600160a01b031690631ffc735d906024016020604051808303816000875af115801561070a573d6000803e3d6000fd5b505050506040513d601f19601f8201168201806040525081019061072e919061175b565b507f4be9ef9ae736055964ead1cf3c83a19c8b662b5df2bd4414776bb64d81f75d158484604051610760929190611790565b60405180910390a150505050565b60405163248f667760e01b8152600090739f462B8a25CEa98cd41145F2ea8e4a4686B353839063248f6677906107a89085906004016117b9565b602060405180830381865af41580156107c5573d6000803e3d6000fd5b505050506040513d601f19601f820116820180604052508101906107e9919061175b565b92915050565b6000600080516020611ab783398151915260028360405160200161081391906117ea565b60408051601f198184030181529082905261082d91611820565b602060405180830381855afa15801561084a573d6000803e3d6000fd5b5050506040513d601f19601f8201168201806040525081019061086d919061175b565b6107e99190611865565b60006108816110c9565b8381526020810183905261089481610921565b949350505050565b8281146108bc5760405163ca3487f760e01b815260040160405180910390fd5b8260005b81811015610919576109118686838181106108dd576108dd611887565b905061014002018036038101906108f4919061189d565b85858481811061090657610906611887565b9050604002016105e2565b6001016108c0565b505050505050565b6040516314d2f97b60e11b81526000907364E7C56b583ceDb31aCF52CfEF5e17bb4d0C232d906329a5f2f6906107a89085906004016118ba565b60006109656110e7565b82515181528251602090810151818301528301518160026020020152604083015160608201526109948161076e565b9392505050565b60006109a5611105565b83515181528351602090810151908201528351604090810151908201528351606090810151908201528351608090810151908201526109e2611105565b845160a001518152845160c001516020820152845160e00151604080830191909152855161010001516060830152855161012001516080808401919091528151908101909152610a609080610a3685610b64565b8152602001610a4484610b64565b815260200186600001518152602001866020015181525061076e565b95945050505050565b6000610a957f000000000000000000000000000000000000000000000000000000000000000042611748565b90507f00000000000000000000000000000000000000000000000000000000000000008111610ad757604051630931513d60e11b815260040160405180910390fd5b600d5460405163c15da65b60e01b8152600481018490526001600160a01b039091169063c15da65b90602401600060405180830381600087803b158015610b1d57600080fd5b505af1158015610b31573d6000803e3d6000fd5b50506040518492507f1245b881cb30fdad22b2f9fde2d5c2a3605bbdf272d5e8a2235d8c9e81aba2ce9150600090a25050565b604051630926f44b60e31b815260009073f2219FE2c9f804dB06409574B410b439015C0E9C90634937a258906107a89085906004016118e2565b6000610bca7f000000000000000000000000000000000000000000000000000000000000000042611748565b90507f00000000000000000000000000000000000000000000000000000000000000008111610c0c57604051630931513d60e11b815260040160405180910390fd5b60045460ff1615610c305760405163b703d3c960e01b815260040160405180910390fd5b6004805460ff19166001178155600c546040805163423f3e1960e01b815290516000936001600160a01b039093169263423f3e19928082019260209290918290030181865afa158015610c87573d6000803e3d6000fd5b505050506040513d601f19601f82011682018060405250810190610cab919061175b565b60038190559050610cba611123565b8181527f0000000000000000000000000000000000000000000000000000000000000000602082015260006040820152610cf381610ddf565b600555600c546040805163122db15360e01b815290516000926001600160a01b03169163122db1539160048083019260209291908290030181865afa158015610d40573d6000803e3d6000fd5b505050506040513d601f19601f82011682018060405250810190610d64919061175b565b6007819055905060015b81610d7d60ff83166002611a1f565b64ffffffffff161015610d9c5780610d9481611a35565b915050610d6e565b6008805460ff191660ff8316179055604051829085907f9f5164261ad26064467dc1be8861f75f2e57ae75579ebb4e500894b0ce9a982390600090a35050505050565b6040516304b98e1d60e31b81526000907375674B724EA1C45cA535A279aC52B926738152A2906325cc70e8906107a8908590600401611a54565b60005460ff1615610e3d576040516342a2e18d60e01b815260040160405180910390fd5b6000805460ff19166001908117909155600680549091019055610e5e6110c9565b7f12817f4161f2f5ded33f26c55735a77e80e4f8975483c8c2704745128417f71181526000602082018190528080610e9584610f3c565b600d54604051631ffc735d60e01b81526004810183905293965091945092506001600160a01b031690631ffc735d906024016020604051808303816000875af1158015610ee6573d6000803e3d6000fd5b505050506040513d601f19601f82011682018060405250810190610f0a919061175b565b507f4be9ef9ae736055964ead1cf3c83a19c8b662b5df2bd4414776bb64d81f75d158383604051610760929190611a7c565b610f44611141565b60408051808201909152600080825260208201526000610f62611159565b84518152602080860151828201526040805180820182527f171e826ad4a870fd925e0bf0e87884e70e080879c2205ef10114f28a3b6f6dd781527f2bd407d897fbbca9f88adfd2d15252e69de8c1564eb4d3d27162e259172f1a1d8184015281519283019091528282529094509250610fdb848461099b565b93959294505050565b600080600080516020611ab783398151915284850990506000600080516020611ab783398151915284850990506000600080516020611ab783398151915282600080516020611ab783398151915285620292fc090890506000600080516020611ab78339815191528084600080516020611ab783398151915287620292f8090960010890506110828282600080516020611ab783398151915261108e565b15979650505050505050565b6000838381116110a5576110a28382611aa3565b90505b82806110b3576110b361184f565b60006110bf8684611748565b0895945050505050565b60405180604001604052806002906020820280368337509192915050565b60405180608001604052806004906020820280368337509192915050565b6040518060a001604052806005906020820280368337509192915050565b60405180606001604052806003906020820280368337509192915050565b6040518060200160405280611154611159565b905290565b604051806101400160405280600a906020820280368337509192915050565b634e487b7160e01b600052604160045260246000fd5b604051610140810167ffffffffffffffff811182821017156111b2576111b2611178565b60405290565b604051601f8201601f1916810167ffffffffffffffff811182821017156111e1576111e1611178565b604052919050565b60006101408083850312156111fd57600080fd5b604051602080820182811067ffffffffffffffff8211171561122157611221611178565b806040525081935085601f86011261123857600080fd5b61124061118e565b92850192808785111561125257600080fd5b865b8581101561126b5780358352918301918301611254565b509092525091949350505050565b60008082840361018081121561128e57600080fd5b61129885856111e9565b9250604061013f19820112156112ad57600080fd5b50610140830190509250929050565b6000608082840312156112ce57600080fd5b82601f8301126112dd57600080fd5b6040516080810181811067ffffffffffffffff8211171561130057611300611178565b60405280608084018581111561131557600080fd5b845b8181101561132f578035835260209283019201611317565b509195945050505050565b6000602080838503121561134d57600080fd5b823567ffffffffffffffff8082111561136557600080fd5b818501915085601f83011261137957600080fd5b81358181111561138b5761138b611178565b8060051b915061139c8483016111b8565b81815291830184019184810190888411156113b657600080fd5b938501935b838510156113d4578435825293850193908501906113bb565b98975050505050505050565b600080604083850312156113f357600080fd5b50508035926020909101359150565b6000806000806040858703121561141857600080fd5b843567ffffffffffffffff8082111561143057600080fd5b818701915087601f83011261144457600080fd5b81358181111561145357600080fd5b8860206101408302850101111561146957600080fd5b60209283019650945090860135908082111561148457600080fd5b818701915087601f83011261149857600080fd5b8135818111156114a757600080fd5b8860208260061b85010111156114bc57600080fd5b95989497505060200194505050565b6000604082840312156114dd57600080fd5b82601f8301126114ec57600080fd5b6040516040810181811067ffffffffffffffff8211171561150f5761150f611178565b806040525080604084018581111561131557600080fd5b60006040828403121561153857600080fd5b6040516040810181811067ffffffffffffffff8211171561155b5761155b611178565b604052823581526020928301359281019290925250919050565b60006080828403121561158757600080fd5b6040516060810181811067ffffffffffffffff821117156115aa576115aa611178565b6040526115b78484611526565b815260408301356020820152606083013560408201528091505092915050565b60008061018083850312156115eb57600080fd5b6115f584846111e9565b9150611605846101408501611526565b90509250929050565b60006020828403121561162057600080fd5b5035919050565b600060a0828403121561163957600080fd5b82601f83011261164857600080fd5b60405160a0810181811067ffffffffffffffff8211171561166b5761166b611178565b6040528060a084018581111561131557600080fd5b60006060828403121561169257600080fd5b82601f8301126116a157600080fd5b6040516060810181811067ffffffffffffffff821117156116c4576116c4611178565b60405280606084018581111561131557600080fd5b80518260005b600a8110156116fe5782518252602092830192909101906001016116df565b5050505050565b6101a0810161171482866116d9565b83516101408301526020909301516101608201526101800152919050565b634e487b7160e01b600052601160045260246000fd5b818103818111156107e9576107e9611732565b60006020828403121561176d57600080fd5b5051919050565b60006040828403121561178657600080fd5b6109948383611526565b610180810161179f82856116d9565b823561014083015260208301356101608301529392505050565b60808101818360005b60048110156117e15781518352602092830192909101906001016117c2565b50505092915050565b815160009082906020808601845b83811015611814578151855293820193908201906001016117f8565b50929695505050505050565b6000825160005b818110156118415760208186018101518583015201611827565b506000920191825250919050565b634e487b7160e01b600052601260045260246000fd5b60008261188257634e487b7160e01b600052601260045260246000fd5b500690565b634e487b7160e01b600052603260045260246000fd5b600061014082840312156118b057600080fd5b61099483836111e9565b60408101818360005b60028110156117e15781518352602092830192909101906001016118c3565b60a08101818360005b60058110156117e15781518352602092830192909101906001016118eb565b600181815b80851115611948578164ffffffffff0482111561192e5761192e611732565b8085161561193b57918102915b93841c939080029061190f565b509250929050565b60008261195f575060016107e9565b8161196c575060006107e9565b8160018114611982576002811461198c576119be565b60019150506107e9565b60ff84111561199d5761199d611732565b6001841b915064ffffffffff8211156119b8576119b8611732565b506107e9565b5060208310610133831016604e8410600b84101617156119f6575081810a64ffffffffff8111156119f1576119f1611732565b6107e9565b611a00838361190a565b8064ffffffffff04821115611a1757611a17611732565b029392505050565b600064ffffffffff610894818516828516611950565b600060ff821660ff8103611a4b57611a4b611732565b60010192915050565b60608101818360005b60038110156117e1578151835260209283019290910190600101611a5d565b6101808101611a8b82856116d9565b82516101408301526020830151610160830152610994565b808201808211156107e9576107e961173256fe30644e72e131a029b85045b68181585d2833e84879b9709143e1f593f0000001a2646970667358221220b5dc2467514704c608ddf45c8de92d156c9b0ef2dededf81daf1bc4953f3b89d64736f6c6343000814003330644e72e131a029b85045b68181585d2833e84879b9709143e1f593f0000001a2646970667358221220d1eea09bad6bd41a05fc889e074ebd4b7db152c726c22ff6030a2b3f736682d464736f6c63430008140033",
  "deployedBytecode": "0x60806040523480156200001157600080fd5b50600436106200003a5760003560e01c806309e34ddc146200003f578063683f3dc31462000073575b600080fd5b620000566200005036600462000272565b6200008f565b6040516001600160a01b0390911681526020015b60405180910390f35b6200007c600a81565b60405160ff90911681526020016200006a565b60006604000000000000866020013510620000bd576040516302c3596560e51b815260040160405180910390fd5b6000620000d1604087016020880162000317565b604051620000df906200023d565b60ff9091168152602001604051809103906000f08015801562000106573d6000803e3d6000fd5b50905060006040518060400160405280866001600160a01b03168152602001836001600160a01b0316815250905060008989898985896040516200014a906200024b565b6200015b969594939291906200033c565b604051809103906000f08015801562000178573d6000803e3d6000fd5b5060405163f2fde38b60e01b81526001600160a01b0380831660048301529192509084169063f2fde38b90602401600060405180830381600087803b158015620001c157600080fd5b505af1158015620001d6573d6000803e3d6000fd5b50505050806001600160a01b031663e1c7392a6040518163ffffffff1660e01b8152600401600060405180830381600087803b1580156200021657600080fd5b505af11580156200022b573d6000803e3d6000fd5b50929c9b505050505050505050505050565b6122dc80620003f383390190565b61210f80620026cf83390190565b6000604082840312156200026c57600080fd5b50919050565b6000806000806000808688036101608112156200028e57600080fd5b87359650620002a18960208a0162000259565b95506080605f1982011215620002b657600080fd5b50606087019350620002cc8860e0890162000259565b92506101208701356001600160a01b0381168114620002ea57600080fd5b8092505061014087013590509295509295509295565b803560ff811681146200031257600080fd5b919050565b6000602082840312156200032a57600080fd5b620003358262000300565b9392505050565b86815261018081016200035c602083018880358252602090810135910152565b60ff620003698762000300565b16606083015260ff6200037f6020880162000300565b16608083015260ff620003956040880162000300565b1660a083015260ff620003ab6060880162000300565b1660c0830152843560e0830152602085013561010083015283516001600160a01b03908116610120840152602090940151909316610140820152610160015294935050505056fe60e06040523480156200001157600080fd5b50604051620022dc380380620022dc83398101604081905262000034916200063d565b8080600533806200006057604051631e4fbdf760e01b8152600060048201526024015b60405180910390fd5b6200006b81620005ed565b50816000036200008e5760405163682e504160e11b815260040160405180910390fd5b6020821115620000bc57604051637ccdcc9760e11b8152600481018390526020602482015260440162000057565b80600214158015620000cf575080600514155b15620000ee57604051636f7b6c0360e01b815260040160405180910390fd5b6000805460ff60a01b191660028314600160a01b02179055608082905260a08190526200011c82826200076c565b60c05250507f12817f4161f2f5ded33f26c55735a77e80e4f8975483c8c2704745128417f7116101725550507f1c8de1edeabc24fc4c1595acaabb70be9b70f351d58c6fa338e1e9a994413bfb610173557f22fcda488c14b34fc60eb073fbe92fe10793e2ab14682e0f057332ddbef3d55c610174557f2db474db7c7212646cb15c6177d87be30711e6c04f1139d8e495ef1d1d998227610175557efde404053ec39a19f6ac347121a2264815dda84f910a388cb372e967a5d08c610176557f0723792ffab6ec6cfb3ece1509b9b4fb07e5bdb2299d1538e6e1db916f90cf89610177557f2a4392ec4e3d1811cd6a950cc865ee6f2342910a6551c5dce38cb995576c7c70610178557f1dead4c14f75e9d8449c80b648dcd4694c2ee50da2ba16e5e438f0d77ab02e34610179557f124c53ce0953fffb7ab5e3c143df6cd48ba747d3959fcb8086405d763ed5455061017a557f02bae19605746a8cd3f0927b2c01630f36f4d1bab9216ca839833e7ff6efa20661017b557f1f8375099becf17173d457d0d07bfb74c7067df1143b5ad987046e8e66817bc961017c557f0e13e954d61bb3fa3b03e7d136ca909b610fa2ca4443d920d94d16684f2b83d461017d557f1416ef2fc4f88fcfc4f9eb12f8e214b1c3e31c6c10ece9cfa51f078a3bbf345761017e557f032f915ff71e198a7955d2697249f40fb94c65812ed24e670c9700f52fdf6e0e61017f557f08bfebf4b3ddb0f8c51dd40193f5996da9f3d799ee0d8beb6be4038132df60b4610180557f065ac498cf4a5acaeb3b6cee826da9f834c961fa39feff6ae925b90dff79b613610181557f2e72c628101a93201b912a3e3fe96d39b0a9076ec39b7935a015c59bb32b8a2a610182557f19bba68e7b9da1e6ec42e52d7ab2adaf3b6a5521b1a454ec70f62e0ab702c085610183557f0de1f72745a5af2a34cac412e00eb6c8b5db1f3b52fa1bff88076c2726b83b08610184557f2e8f152603b2fac10d6a14c841327c23c502537367ccb1e42fab9a3bd9db2a8d610185557f14e16c3e0dcfd7e621a32627ebf37f6c0afb4467d34c7b7aeffded11769dec85610186557f0be1e62127948b4805c85a1d836574f0892ca6473fcde98f3fd1781248a9768f610187557f0930288fbd7c849197c8372f1dd8f9087f8a03f09b9cd904a469c15ef6b1b515610188557f231cac34e215e3f404d2fcfb79e0705deeb3d40978f0ee31072f6cbc1b579e33610189557f2e0e3cd2718ac7199b81dc14e841de40a9536b7ffe95fa1fc9c6b799e43e2c9761018a557f0718452506f0a232e98966d84b1a4675a66bd80263a2dc58bdac873825752fc361018b557f162d4ed998307d6e132edbf5c11f62f53d4636aa10cb3c2244c2bf5577168c3761018c557f247d6a5544a8f295a894ae77c7efcdcbf52e3bf4e5d0c0d2f40557a61d44984861018d557f0b8de3868471f109e91670daca698dba917d1c5535821f33aa9598d1db8e3d1961018e557f29851997020f527c92e20f030d232b81d334144a641e6a8866b46dd925005bbb61018f557f1a9cfcbe29a2b6503a03049727c0bca3111afd62f2836f392080321d1b4ef642610190557f1aa3ead91fa89cc1d6cb1d0eb76a27190c6abfdd3265d6d0a1e5c58feddaddf6610191557f0702fc26a7d367e6677efefd95204a7e00144c2fc7dbc2a581aa00d99f51f0816101925562000781565b600080546001600160a01b038381166001600160a01b0319831681178455604051919092169283917f8be0079c531659141344cd1fd0a4f28419497f9722a3daafe3b4186f6b6457e09190a35050565b6000602082840312156200065057600080fd5b5051919050565b634e487b7160e01b600052601160045260246000fd5b600181815b80851115620006ae57816000190482111562000692576200069262000657565b80851615620006a057918102915b93841c939080029062000672565b509250929050565b600082620006c75750600162000766565b81620006d65750600062000766565b8160018114620006ef5760028114620006fa576200071a565b600191505062000766565b60ff8411156200070e576200070e62000657565b50506001821b62000766565b5060208310610133831016604e8410600b84101617156200073f575081810a62000766565b6200074b83836200066d565b806000190482111562000762576200076262000657565b0290505b92915050565b60006200077a8383620006b6565b9392505050565b60805160a05160c051611aad6200082f600039600081816103ea01528181610a2501528181610ac201528181610c7f0152610d820152600081816103230152818161056e015281816106e401528181610bb401528181610ec301528181611037015261129801526000818161041a0152818161047b0152818161054401528181610bed01528181610cb801528181610d0201528181610e6401528181610f1a01526111d30152611aad6000f3fe608060405234801561001057600080fd5b50600436106101585760003560e01c806381d6a24a116100c3578063c00bdbcc1161007c578063c00bdbcc146102b8578063c15da65b146102cb578063d9c55ce1146102de578063dda89a6e146102e6578063e93fb4d4146102f0578063f2fde38b1461030357600080fd5b806381d6a24a146102455780638da5cb5b146102615780639cfced971461027c578063a27154ba1461028f578063b6a64acd14610297578063bea140b3146102a557600080fd5b806358bfc3791161011557806358bfc379146101cc5780635bb93995146101df5780635bf1fa4d146101f257806362a361bb1461020557806369e7c58614610218578063715018a61461023b57600080fd5b80631b9b8aa71461015d5780631ffc735d1461018357806324a47aeb146101965780633bfa6fce146101a95780633dfb88b2146101b15780633e1a8cc1146101c4575b600080fd5b61017061016b3660046114ba565b610316565b6040519081526020015b60405180910390f35b6101706101913660046114ba565b610399565b6101706101a43660046114ba565b6104c7565b6101706106d8565b6101706101bf36600461151a565b610723565b6101706107a4565b6101706101da366004611598565b6107d3565b6101706101ed36600461163e565b61086d565b61017061020036600461163e565b610892565b610170610213366004611660565b610931565b61016e5461022b90610100900460ff1681565b604051901515815260200161017a565b61024361096b565b005b610170546001546040805192835260208301919091520161017a565b6000546040516001600160a01b03909116815260200161017a565b61017061028a3660046116bb565b61097f565b610170602081565b61016e5461022b9060ff1681565b6101706102b3366004611714565b6109b9565b6102436102c63660046114ba565b6109f3565b6102436102d93660046114ba565b610a6f565b610243610c75565b6101706101715481565b6101706102fe3660046114ba565b610dbf565b61024361031136600461176d565b610dfa565b61017154600090610347837f0000000000000000000000000000000000000000000000000000000000000000611897565b101561037d5761017154604051627289df60e61b8152610374918491600401918252602082015260400190565b60405180910390fd5b61014d8260218110610391576103916118a3565b015492915050565b60006103a3610e35565b50610171546103b3826000610e62565b6103be8160016118b9565b610171556103cf61014d600061141f565b600061016f5561016e805460ff191690556101715461040f907f0000000000000000000000000000000000000000000000000000000000000000906118cc565b6000036104c25760027f000000000000000000000000000000000000000000000000000000000000000060218110610449576104496118a3565b600402015460018054600090815261014c6020526040812092909255805491610471836118ee565b90915550600290507f0000000000000000000000000000000000000000000000000000000000000000602181106104aa576104aa6118a3565b6004020160008091018190556104c29060869061141f565b919050565b60006104d1610e35565b816000036104f257604051630543d40760e11b815260040160405180910390fd5b61016e5460ff1661051657604051631e596e4360e11b815260040160405180910390fd5b602082111561054257604051632cd31ae960e01b81526004810183905260206024820152604401610374565b7f00000000000000000000000000000000000000000000000000000000000000005b61017154610592827f0000000000000000000000000000000000000000000000000000000000000000611897565b10156105aa57806105a2816118ee565b915050610564565b808310156105d457604051627289df60e61b81526004810184905260248101829052604401610374565b8083036106105761016f5461014d84602181106105f3576105f36118a3565b0155505061016e805461ff00191661010017905561016f54919050565b61016f549150805b838110156106aa57600061062b82610fa3565b600054909150600160a01b900460ff16156106635761064861142e565b8481526020810182905261065b81610931565b945050610697565b61066b61144c565b848152602081018290526040810182905260608101829052608081018290526106938161097f565b9450505b50806106a2816118ee565b915050610618565b508161014d84602181106106c0576106c06118a3565b015561016e805461ff00191661010017905550919050565b60015b600154610708827f0000000000000000000000000000000000000000000000000000000000000000611897565b10156107205780610718816118ee565b9150506106db565b90565b60405163248f667760e01b815260009073__$ce9c2c925f157047e54fa833ec4e61409f$__9063248f66779061075d908590600401611907565b602060405180830381865af415801561077a573d6000803e3d6000fd5b505050506040513d601f19601f8201168201806040525081019061079e9190611938565b92915050565b61016e5460009060ff166107cb57604051631e596e4360e11b815260040160405180910390fd5b5061016f5490565b60007f30644e72e131a029b85045b68181585d2833e84879b9709143e1f593f00000016002836040516020016108099190611951565b60408051601f198184030181529082905261082391611987565b602060405180830381855afa158015610840573d6000803e3d6000fd5b5050506040513d601f19601f820116820180604052508101906108639190611938565b61079e91906118cc565b600061087761142e565b8381526020810183905261088a81610931565b949350505050565b600061089c61144c565b600284602181106108af576108af6118a3565b60040201548152600284602181106108c9576108c96118a3565b60040201600101548160016020020152600284602181106108ec576108ec6118a3565b600402016002015481600260200201526002846021811061090f5761090f6118a3565b6004020160030154816003602002015282816004602002015261088a8161097f565b6040516314d2f97b60e11b815260009073__$6574937f64fc1d7710ec0e28b7a36713bb$__906329a5f2f69061075d9085906004016119b6565b610973610e35565b61097d6000610fb9565b565b604051630926f44b60e31b815260009073__$20527677031d76601747626a9845039fe4$__90634937a2589061075d9085906004016119de565b6040516304b98e1d60e31b815260009073__$dc01a9744591ab014bc46a3b7671cdaefb$__906325cc70e89061075d908590600401611a06565b6109fb610e35565b60018054600090815261014c6020526040812083905581549190610a1e836118ee565b91905055507f00000000000000000000000000000000000000000000000000000000000000006101716000828254610a5691906118b9565b9091555050600061016f555061016e805460ff19169055565b610a77610e35565b61016e5460ff1615610a9c57604051630d36aec160e01b815260040160405180910390fd5b61017154600003610ac0576040516316a0341160e11b815260040160405180910390fd5b7f000000000000000000000000000000000000000000000000000000000000000061017154610aef91906118cc565b15610afc57610afc610c75565b600154600103610b2557610b106000610dbf565b61016f5561016e805460ff1916600117905550565b6000610b2f6106d8565b610170549091506000905b600154811015610bab578315801590610b5257508382145b15610b5d5750505050565b610b74610b6c61017054610dbf565b600085611009565b6101708054906000610b85836118ee565b91905055508180610b95906118ee565b9250508080610ba3906118ee565b915050610b3a565b506000610bd8837f0000000000000000000000000000000000000000000000000000000000000000611897565b90506001546101705403610c41576000610c117f0000000000000000000000000000000000000000000000000000000000000000610fa3565b6001549091505b82811015610c3e57610c2c82600087611009565b80610c36816118ee565b915050610c18565b50505b60a78360218110610c5457610c546118a3565b600402016000015461016f55505061016e805460ff19166001179055505b50565b610c7d610e35565b7f000000000000000000000000000000000000000000000000000000000000000061017154610cac91906118cc565b600003610cf457610cdc7f0000000000000000000000000000000000000000000000000000000000000000610fa3565b600154600090815261014c6020526040902055610d65565b610cfe60006111d1565b60027f000000000000000000000000000000000000000000000000000000000000000060218110610d3157610d316118a3565b6004020154600154600090815261014c6020526040812091909155610d589060029061146a565b610d6561014d600061141f565b60006001546001610d7691906118b9565b60018190559050610da77f000000000000000000000000000000000000000000000000000000000000000082611a2e565b6101715550600061016f5561016e805460ff19169055565b60008160015411610de65760405163042a2e7160e11b815260048101839052602401610374565b50600090815261014c602052604090205490565b610e02610e35565b6001600160a01b038116610e2c57604051631e4fbdf760e01b815260006004820152602401610374565b610c7281610fb9565b6000546001600160a01b0316331461097d5760405163118cdaa760e01b8152336004820152602401610374565b7f0000000000000000000000000000000000000000000000000000000000000000811115610ea35760405163d1459f7960e01b815260040160405180910390fd5b600060868260218110610eb857610eb86118a3565b01549050610ee760017f0000000000000000000000000000000000000000000000000000000000000000611a45565b8114610f6c578260028360218110610f0157610f016118a3565b600402018260048110610f1657610f166118a3565b01557f00000000000000000000000000000000000000000000000000000000000000008214610f675760868260218110610f5257610f526118a3565b018054906000610f61836118ee565b91905055505b505050565b610f76828461133d565b925060868260218110610f8b57610f8b6118a3565b600091015581610f9a816118ee565b92505050610ea3565b60006101728260218110610391576103916118a3565b600080546001600160a01b038381166001600160a01b0319831681178455604051919092169283917f8be0079c531659141344cd1fd0a4f28419497f9722a3daafe3b4186f6b6457e09190a35050565b8082111561101657505050565b600061012b836021811061102c5761102c6118a3565b0154905061105b60017f0000000000000000000000000000000000000000000000000000000000000000611a45565b81146110b9578360a78460218110611075576110756118a3565b60040201826004811061108a5761108a6118a3565b015561012b83602181106110a0576110a06118a3565b0180549060006110af836118ee565b91905055506111cb565b60008054600160a01b900460ff1615611106576110d461142e565b60a785602181106110e7576110e76118a3565b60040201548152602081018690526110fe81610931565b91505061119b565b61110e61144c565b60005b838160ff1610156111755760a7866021811061112f5761112f6118a3565b600402018160ff1660048110611147576111476118a3565b0154828260ff166005811061115e5761115e6118a3565b60200201528061116d81611a58565b915050611111565b5085818460058110611189576111896118a3565b60200201526111978161097f565b9150505b61012b84602181106111af576111af6118a3565b60009101556111c9816111c38660016118b9565b85611009565b505b50505050565b7f0000000000000000000000000000000000000000000000000000000000000000811015610c725760006086826021811061120e5761120e6118a3565b01549050801561131257600061122261144c565b600061122d85610fa3565b905060005b848160ff1610156112965760028660218110611250576112506118a3565b600402018160ff1660048110611268576112686118a3565b0154838260ff166005811061127f5761127f6118a3565b60200201528061128e81611a58565b915050611232565b7f00000000000000000000000000000000000000000000000000000000000000008160ff1610156112ee5781838260ff16600581106112d7576112d76118a3565b6020020152806112e681611a58565b915050611296565b6112f78361097f565b935061130d846113088860016118b9565b610e62565b505050505b60868260218110611325576113256118a3565b600091015581611334816118ee565b925050506111d1565b600061134761144c565b6002846021811061135a5761135a6118a3565b6004020154815260028460218110611374576113746118a3565b6004020160010154816001602002015260028460218110611397576113976118a3565b60040201600201548160026020020152600284602181106113ba576113ba6118a3565b600402016003015481600360200201528281600460200201526113dc8161097f565b9150600284602181106113f1576113f16118a3565b60040201600061141891905060008155600101600081556001016000815560010160009055565b5092915050565b50610c72906021810190611479565b60405180604001604052806002906020820280368337509192915050565b6040518060a001604052806005906020820280368337509192915050565b50610c72906084810190611492565b5b8082111561148e576000815560010161147a565b5090565b8082111561148e57600080825560018201819055600282018190556003820155600401611492565b6000602082840312156114cc57600080fd5b5035919050565b634e487b7160e01b600052604160045260246000fd5b604051601f8201601f1916810167ffffffffffffffff81118282101715611512576115126114d3565b604052919050565b60006080828403121561152c57600080fd5b82601f83011261153b57600080fd5b6040516080810181811067ffffffffffffffff8211171561155e5761155e6114d3565b60405280608084018581111561157357600080fd5b845b8181101561158d578035835260209283019201611575565b509195945050505050565b600060208083850312156115ab57600080fd5b823567ffffffffffffffff808211156115c357600080fd5b818501915085601f8301126115d757600080fd5b8135818111156115e9576115e96114d3565b8060051b91506115fa8483016114e9565b818152918301840191848101908884111561161457600080fd5b938501935b8385101561163257843582529385019390850190611619565b98975050505050505050565b6000806040838503121561165157600080fd5b50508035926020909101359150565b60006040828403121561167257600080fd5b82601f83011261168157600080fd5b6040516040810181811067ffffffffffffffff821117156116a4576116a46114d3565b806040525080604084018581111561157357600080fd5b600060a082840312156116cd57600080fd5b82601f8301126116dc57600080fd5b60405160a0810181811067ffffffffffffffff821117156116ff576116ff6114d3565b6040528060a084018581111561157357600080fd5b60006060828403121561172657600080fd5b82601f83011261173557600080fd5b6040516060810181811067ffffffffffffffff82111715611758576117586114d3565b60405280606084018581111561157357600080fd5b60006020828403121561177f57600080fd5b81356001600160a01b038116811461179657600080fd5b9392505050565b634e487b7160e01b600052601160045260246000fd5b600181815b808511156117ee5781600019048211156117d4576117d461179d565b808516156117e157918102915b93841c93908002906117b8565b509250929050565b6000826118055750600161079e565b816118125750600061079e565b816001811461182857600281146118325761184e565b600191505061079e565b60ff8411156118435761184361179d565b50506001821b61079e565b5060208310610133831016604e8410600b8410161715611871575081810a61079e565b61187b83836117b3565b806000190482111561188f5761188f61179d565b029392505050565b600061179683836117f6565b634e487b7160e01b600052603260045260246000fd5b8082018082111561079e5761079e61179d565b6000826118e957634e487b7160e01b600052601260045260246000fd5b500690565b6000600182016119005761190061179d565b5060010190565b60808101818360005b600481101561192f578151835260209283019290910190600101611910565b50505092915050565b60006020828403121561194a57600080fd5b5051919050565b815160009082906020808601845b8381101561197b5781518552938201939082019060010161195f565b50929695505050505050565b6000825160005b818110156119a8576020818601810151858301520161198e565b506000920191825250919050565b60408101818360005b600281101561192f5781518352602092830192909101906001016119bf565b60a08101818360005b600581101561192f5781518352602092830192909101906001016119e7565b60608101818360005b600381101561192f578151835260209283019290910190600101611a0f565b808202811582820484141761079e5761079e61179d565b8181038181111561079e5761079e61179d565b600060ff821660ff8103611a6e57611a6e61179d565b6001019291505056fea2646970667358221220de48377ebab560ef190138d15ea2cd48ec74d706562bdc76aca8c6093ed43a8e64736f6c634300081400336101006040526040516200210f3803806200210f8339810160408190526200002791620003f6565b825160208401516200003a919062000123565b62000058576040516379fae7af60e01b815260040160405180910390fd5b8251600181905560208401516002819055620000759190620001d8565b6080528151600c80546001600160a01b039283166001600160a01b031991821617909155602093840151600d805491909316911617905560c095909552835160095592830151600a55508051600b805493830151604084015160609094015160ff90811663010000000263ff0000001995821662010000029590951663ffff0000199282166101000261ffff1990971691909416179490941793909316171790554260a05260e0526200056a565b600080600080516020620020ef83398151915284850990506000600080516020620020ef83398151915284850990506000600080516020620020ef83398151915282600080516020620020ef83398151915285620292fc090890506000600080516020620020ef8339815191528084600080516020620020ef83398151915287620292f809096001089050620001ca8282600080516020620020ef83398151915262000201565b159450505050505b92915050565b6000620001e4620002c4565b83815260208101839052620001f98162000244565b949350505050565b6000838381116200021b57620002188382620004f1565b90505b82806200022c576200022c620004c5565b60006200023a868462000507565b0895945050505050565b6040516314d2f97b60e11b815260009073__$6574937f64fc1d7710ec0e28b7a36713bb$__906329a5f2f690620002809085906004016200051d565b602060405180830381865af41580156200029e573d6000803e3d6000fd5b505050506040513d601f19601f82011682018060405250810190620001d2919062000550565b60405180604001604052806002906020820280368337509192915050565b604080519081016001600160401b03811182821017156200031357634e487b7160e01b600052604160045260246000fd5b60405290565b604051608081016001600160401b03811182821017156200031357634e487b7160e01b600052604160045260246000fd5b6000604082840312156200035d57600080fd5b62000367620002e2565b9050815181526020820151602082015292915050565b805160ff811681146200038f57600080fd5b919050565b6001600160a01b0381168114620003aa57600080fd5b50565b600060408284031215620003c057600080fd5b620003ca620002e2565b90508151620003d98162000394565b81526020820151620003eb8162000394565b602082015292915050565b6000806000806000808688036101808112156200041257600080fd5b87519650620004258960208a016200034a565b95506080605f19820112156200043a57600080fd5b506200044562000319565b62000453606089016200037d565b815262000463608089016200037d565b60208201526200047660a089016200037d565b60408201526200048960c089016200037d565b606082015293506200049f8860e089016200034a565b9250620004b1886101208901620003ad565b915061016087015190509295509295509295565b634e487b7160e01b600052601260045260246000fd5b634e487b7160e01b600052601160045260246000fd5b80820180821115620001d257620001d2620004db565b81810381811115620001d257620001d2620004db565b60408101818360005b60028110156200054757815183526020928301929091019060010162000526565b50505092915050565b6000602082840312156200056357600080fd5b5051919050565b60805160a05160c05160e051611b0c620005e3600039600081816103210152610cbf01526000818161027e015281816104f70152818161061201528181610a990152610bce01526000818161025d015281816104ce015281816105e901528181610a700152610ba50152600061037b0152611b0c6000f3fe608060405234801561001057600080fd5b50600436106101d95760003560e01c80637028bb0e11610104578063ac98e5df116100a2578063e1c7392a11610071578063e1c7392a14610477578063e33b13a01461047f578063edbfe83f1461049c578063fba630f2146104be57600080fd5b8063ac98e5df146103cb578063bc14ee2b14610421578063bea140b31461045b578063c17268d91461046e57600080fd5b80638aa0ba92116100de5780638aa0ba92146103765780639c9717291461039d5780639cfced97146103b0578063a28bc38c146103c357600080fd5b80637028bb0e146103435780637d0a81c8146103505780638a2a3dfb1461036357600080fd5b80634f367f0f1161017c578063623f54ac1161014b578063623f54ac146102dc57806362a361bb146102ef578063683f3dc3146103025780636d582d341461031c57600080fd5b80634f367f0f146102a257806358bfc379146102ad5780635bb93995146102c05780635d5909dd146102d357600080fd5b806327bea0da116101b857806327bea0da1461022757806331e766a51461023a5780633dfb88b2146102485780634909229f1461025b57600080fd5b8062329f2f146101de5780630396a0ce146101e85780630f4cf69214610210575b600080fd5b6101e66104c7565b005b600954600a546101f6919082565b604080519283526020830191909152015b60405180910390f35b61021960065481565b604051908152602001610207565b6101e6610235366004611279565b6105e2565b6001546002546101f6919082565b6102196102563660046112bc565b61076e565b7f00000000000000000000000000000000000000000000000000000000000000007f00000000000000000000000000000000000000000000000000000000000000006101f6565b6007546006546101f6565b6102196102bb36600461133a565b6107ef565b6102196102ce3660046113e0565b610877565b61021960075481565b6101e66102ea366004611402565b61089c565b6102196102fd3660046114cb565b610921565b61030a600a81565b60405160ff9091168152602001610207565b6102197f000000000000000000000000000000000000000000000000000000000000000081565b60085461030a9060ff1681565b61021961035e366004611575565b61095b565b6102196103713660046115d7565b61099b565b6102197f000000000000000000000000000000000000000000000000000000000000000081565b6101e66103ab36600461160e565b610a69565b6102196103be366004611627565b610b64565b6101e6610b9e565b600b546103f49060ff808216916101008104821691620100008204811691630100000090041684565b6040805160ff95861681529385166020850152918416918301919091529091166060820152608001610207565b600c54600d5461043b916001600160a01b03908116911682565b604080516001600160a01b03938416815292909116602083015201610207565b610219610469366004611680565b610ddf565b61021960055481565b6101e6610e19565b60045461048c9060ff1681565b6040519015158152602001610207565b6104af6104aa3660046114cb565b610f3c565b60405161020793929190611705565b61021960035481565b60006104f37f000000000000000000000000000000000000000000000000000000000000000042611748565b90507f0000000000000000000000000000000000000000000000000000000000000000811161053557604051630931513d60e11b815260040160405180910390fd5b600d54600b546040516324a47aeb60e01b81526201000090910460ff1660048201526000916001600160a01b0316906324a47aeb906024016020604051808303816000875af115801561058c573d6000803e3d6000fd5b505050506040513d601f19601f820116820180604052508101906105b0919061175b565b60405190915081907fc5624680ab5d50c84507f9e0dc2032163de2bda906ab8a661a53dd4d43bd5dc790600090a25050565b600061060e7f000000000000000000000000000000000000000000000000000000000000000042611748565b90507f000000000000000000000000000000000000000000000000000000000000000081106106505760405163148fb9a960e31b815260040160405180910390fd5b6009546006541061067457604051631ec0b2f760e01b815260040160405180910390fd5b61068382356020840135610fe4565b6106a0576040516379fae7af60e01b815260040160405180910390fd5b60068054600101905560006106be8461037136869003860186611774565b600d54604051631ffc735d60e01b8152600481018390529192506001600160a01b031690631ffc735d906024016020604051808303816000875af115801561070a573d6000803e3d6000fd5b505050506040513d601f19601f8201168201806040525081019061072e919061175b565b507f4be9ef9ae736055964ead1cf3c83a19c8b662b5df2bd4414776bb64d81f75d158484604051610760929190611790565b60405180910390a150505050565b60405163248f667760e01b815260009073__$ce9c2c925f157047e54fa833ec4e61409f$__9063248f6677906107a89085906004016117b9565b602060405180830381865af41580156107c5573d6000803e3d6000fd5b505050506040513d601f19601f820116820180604052508101906107e9919061175b565b92915050565b6000600080516020611ab783398151915260028360405160200161081391906117ea565b60408051601f198184030181529082905261082d91611820565b602060405180830381855afa15801561084a573d6000803e3d6000fd5b5050506040513d601f19601f8201168201806040525081019061086d919061175b565b6107e99190611865565b60006108816110c9565b8381526020810183905261089481610921565b949350505050565b8281146108bc5760405163ca3487f760e01b815260040160405180910390fd5b8260005b81811015610919576109118686838181106108dd576108dd611887565b905061014002018036038101906108f4919061189d565b85858481811061090657610906611887565b9050604002016105e2565b6001016108c0565b505050505050565b6040516314d2f97b60e11b815260009073__$6574937f64fc1d7710ec0e28b7a36713bb$__906329a5f2f6906107a89085906004016118ba565b60006109656110e7565b82515181528251602090810151818301528301518160026020020152604083015160608201526109948161076e565b9392505050565b60006109a5611105565b83515181528351602090810151908201528351604090810151908201528351606090810151908201528351608090810151908201526109e2611105565b845160a001518152845160c001516020820152845160e00151604080830191909152855161010001516060830152855161012001516080808401919091528151908101909152610a609080610a3685610b64565b8152602001610a4484610b64565b815260200186600001518152602001866020015181525061076e565b95945050505050565b6000610a957f000000000000000000000000000000000000000000000000000000000000000042611748565b90507f00000000000000000000000000000000000000000000000000000000000000008111610ad757604051630931513d60e11b815260040160405180910390fd5b600d5460405163c15da65b60e01b8152600481018490526001600160a01b039091169063c15da65b90602401600060405180830381600087803b158015610b1d57600080fd5b505af1158015610b31573d6000803e3d6000fd5b50506040518492507f1245b881cb30fdad22b2f9fde2d5c2a3605bbdf272d5e8a2235d8c9e81aba2ce9150600090a25050565b604051630926f44b60e31b815260009073__$20527677031d76601747626a9845039fe4$__90634937a258906107a89085906004016118e2565b6000610bca7f000000000000000000000000000000000000000000000000000000000000000042611748565b90507f00000000000000000000000000000000000000000000000000000000000000008111610c0c57604051630931513d60e11b815260040160405180910390fd5b60045460ff1615610c305760405163b703d3c960e01b815260040160405180910390fd5b6004805460ff19166001178155600c546040805163423f3e1960e01b815290516000936001600160a01b039093169263423f3e19928082019260209290918290030181865afa158015610c87573d6000803e3d6000fd5b505050506040513d601f19601f82011682018060405250810190610cab919061175b565b60038190559050610cba611123565b8181527f0000000000000000000000000000000000000000000000000000000000000000602082015260006040820152610cf381610ddf565b600555600c546040805163122db15360e01b815290516000926001600160a01b03169163122db1539160048083019260209291908290030181865afa158015610d40573d6000803e3d6000fd5b505050506040513d601f19601f82011682018060405250810190610d64919061175b565b6007819055905060015b81610d7d60ff83166002611a1f565b64ffffffffff161015610d9c5780610d9481611a35565b915050610d6e565b6008805460ff191660ff8316179055604051829085907f9f5164261ad26064467dc1be8861f75f2e57ae75579ebb4e500894b0ce9a982390600090a35050505050565b6040516304b98e1d60e31b815260009073__$dc01a9744591ab014bc46a3b7671cdaefb$__906325cc70e8906107a8908590600401611a54565b60005460ff1615610e3d576040516342a2e18d60e01b815260040160405180910390fd5b6000805460ff19166001908117909155600680549091019055610e5e6110c9565b7f12817f4161f2f5ded33f26c55735a77e80e4f8975483c8c2704745128417f71181526000602082018190528080610e9584610f3c565b600d54604051631ffc735d60e01b81526004810183905293965091945092506001600160a01b031690631ffc735d906024016020604051808303816000875af1158015610ee6573d6000803e3d6000fd5b505050506040513d601f19601f82011682018060405250810190610f0a919061175b565b507f4be9ef9ae736055964ead1cf3c83a19c8b662b5df2bd4414776bb64d81f75d158383604051610760929190611a7c565b610f44611141565b60408051808201909152600080825260208201526000610f62611159565b84518152602080860151828201526040805180820182527f171e826ad4a870fd925e0bf0e87884e70e080879c2205ef10114f28a3b6f6dd781527f2bd407d897fbbca9f88adfd2d15252e69de8c1564eb4d3d27162e259172f1a1d8184015281519283019091528282529094509250610fdb848461099b565b93959294505050565b600080600080516020611ab783398151915284850990506000600080516020611ab783398151915284850990506000600080516020611ab783398151915282600080516020611ab783398151915285620292fc090890506000600080516020611ab78339815191528084600080516020611ab783398151915287620292f8090960010890506110828282600080516020611ab783398151915261108e565b15979650505050505050565b6000838381116110a5576110a28382611aa3565b90505b82806110b3576110b361184f565b60006110bf8684611748565b0895945050505050565b60405180604001604052806002906020820280368337509192915050565b60405180608001604052806004906020820280368337509192915050565b6040518060a001604052806005906020820280368337509192915050565b60405180606001604052806003906020820280368337509192915050565b6040518060200160405280611154611159565b905290565b604051806101400160405280600a906020820280368337509192915050565b634e487b7160e01b600052604160045260246000fd5b604051610140810167ffffffffffffffff811182821017156111b2576111b2611178565b60405290565b604051601f8201601f1916810167ffffffffffffffff811182821017156111e1576111e1611178565b604052919050565b60006101408083850312156111fd57600080fd5b604051602080820182811067ffffffffffffffff8211171561122157611221611178565b806040525081935085601f86011261123857600080fd5b61124061118e565b92850192808785111561125257600080fd5b865b8581101561126b5780358352918301918301611254565b509092525091949350505050565b60008082840361018081121561128e57600080fd5b61129885856111e9565b9250604061013f19820112156112ad57600080fd5b50610140830190509250929050565b6000608082840312156112ce57600080fd5b82601f8301126112dd57600080fd5b6040516080810181811067ffffffffffffffff8211171561130057611300611178565b60405280608084018581111561131557600080fd5b845b8181101561132f578035835260209283019201611317565b509195945050505050565b6000602080838503121561134d57600080fd5b823567ffffffffffffffff8082111561136557600080fd5b818501915085601f83011261137957600080fd5b81358181111561138b5761138b611178565b8060051b915061139c8483016111b8565b81815291830184019184810190888411156113b657600080fd5b938501935b838510156113d4578435825293850193908501906113bb565b98975050505050505050565b600080604083850312156113f357600080fd5b50508035926020909101359150565b6000806000806040858703121561141857600080fd5b843567ffffffffffffffff8082111561143057600080fd5b818701915087601f83011261144457600080fd5b81358181111561145357600080fd5b8860206101408302850101111561146957600080fd5b60209283019650945090860135908082111561148457600080fd5b818701915087601f83011261149857600080fd5b8135818111156114a757600080fd5b8860208260061b85010111156114bc57600080fd5b95989497505060200194505050565b6000604082840312156114dd57600080fd5b82601f8301126114ec57600080fd5b6040516040810181811067ffffffffffffffff8211171561150f5761150f611178565b806040525080604084018581111561131557600080fd5b60006040828403121561153857600080fd5b6040516040810181811067ffffffffffffffff8211171561155b5761155b611178565b604052823581526020928301359281019290925250919050565b60006080828403121561158757600080fd5b6040516060810181811067ffffffffffffffff821117156115aa576115aa611178565b6040526115b78484611526565b815260408301356020820152606083013560408201528091505092915050565b60008061018083850312156115eb57600080fd5b6115f584846111e9565b9150611605846101408501611526565b90509250929050565b60006020828403121561162057600080fd5b5035919050565b600060a0828403121561163957600080fd5b82601f83011261164857600080fd5b60405160a0810181811067ffffffffffffffff8211171561166b5761166b611178565b6040528060a084018581111561131557600080fd5b60006060828403121561169257600080fd5b82601f8301126116a157600080fd5b6040516060810181811067ffffffffffffffff821117156116c4576116c4611178565b60405280606084018581111561131557600080fd5b80518260005b600a8110156116fe5782518252602092830192909101906001016116df565b5050505050565b6101a0810161171482866116d9565b83516101408301526020909301516101608201526101800152919050565b634e487b7160e01b600052601160045260246000fd5b818103818111156107e9576107e9611732565b60006020828403121561176d57600080fd5b5051919050565b60006040828403121561178657600080fd5b6109948383611526565b610180810161179f82856116d9565b823561014083015260208301356101608301529392505050565b60808101818360005b60048110156117e15781518352602092830192909101906001016117c2565b50505092915050565b815160009082906020808601845b83811015611814578151855293820193908201906001016117f8565b50929695505050505050565b6000825160005b818110156118415760208186018101518583015201611827565b506000920191825250919050565b634e487b7160e01b600052601260045260246000fd5b60008261188257634e487b7160e01b600052601260045260246000fd5b500690565b634e487b7160e01b600052603260045260246000fd5b600061014082840312156118b057600080fd5b61099483836111e9565b60408101818360005b60028110156117e15781518352602092830192909101906001016118c3565b60a08101818360005b60058110156117e15781518352602092830192909101906001016118eb565b600181815b80851115611948578164ffffffffff0482111561192e5761192e611732565b8085161561193b57918102915b93841c939080029061190f565b509250929050565b60008261195f575060016107e9565b8161196c575060006107e9565b8160018114611982576002811461198c576119be565b60019150506107e9565b60ff84111561199d5761199d611732565b6001841b915064ffffffffff8211156119b8576119b8611732565b506107e9565b5060208310610133831016604e8410600b84101617156119f6575081810a64ffffffffff8111156119f1576119f1611732565b6107e9565b611a00838361190a565b8064ffffffffff04821115611a1757611a17611732565b029392505050565b600064ffffffffff610894818516828516611950565b600060ff821660ff8103611a4b57611a4b611732565b60010192915050565b60608101818360005b60038110156117e1578151835260209283019290910190600101611a5d565b6101808101611a8b82856116d9565b82516101408301526020830151610160830152610994565b808201808211156107e9576107e961173256fe30644e72e131a029b85045b68181585d2833e84879b9709143e1f593f0000001a2646970667358221220b5dc2467514704c608ddf45c8de92d156c9b0ef2dededf81daf1bc4953f3b89d64736f6c6343000814003330644e72e131a029b85045b68181585d2833e84879b9709143e1f593f0000001a2646970667358221220d1eea09bad6bd41a05fc889e074ebd4b7db152c726c22ff6030a2b3f736682d464736f6c63430008140033",
  "libraries": {
    "PoseidonT3": "0x64E7C56b583ceDb31aCF52CfEF5e17bb4d0C232d",
    "PoseidonT4": "0x75674B724EA1C45cA535A279aC52B926738152A2",
    "PoseidonT5": "0x9f462B8a25CEa98cd41145F2ea8e4a4686B35383",
    "PoseidonT6": "0xf2219FE2c9f804dB06409574B410b439015C0E9C"
  }
}