{
  "address": "0x84BCBC5006c279dfAb230D2aC356C2176233D56D",
  "abi": [
    {
      "inputs": [],
      "name": "MESSAGE_DATA_LENGTH",
      "outputs": [
        {
          "internalType": "uint8",
          "name": "",
          "type": "uint8"
        }
      ],
      "stateMutability": "view",
      "type": "function"
    },
    {
      "inputs": [
        {
          "internalType": "address",
          "name": "_verifier",
          "type": "address"
        },
        {
          "internalType": "address",
          "name": "_vkRegistry",
          "type": "address"
        },
        {
          "internalType": "address",
          "name": "_poll",
          "type": "address"
        },
        {
          "internalType": "address",
          "name": "_messageProcessor",
          "type": "address"
        },
        {
          "internalType": "address",
          "name": "_owner",
          "type": "address"
        },
        {
          "internalType": "enum DomainObjs.Mode",
          "name": "_mode",
          "type": "uint8"
        }
      ],
      "name": "deploy",
      "outputs": [
        {
          "internalType": "address",
          "name": "tallyAddr",
          "type": "address"
        }
      ],
      "stateMutability": "nonpayable",
      "type": "function"
    }
  ],
  "transactionHash": "0x6be35c6b680979617641ce49b64def38e9bf27f5d6d48780900034ed247b6fd1",
  "args": [],
  "numDeployments": 1,
  "bytecode": "0x608060405234801561001057600080fd5b5061254c806100206000396000f3fe608060405234801561001057600080fd5b50600436106100365760003560e01c8063431a71751461003b578063683f3dc31461006b575b600080fd5b61004e6100493660046100fb565b610085565b6040516001600160a01b0390911681526020015b60405180910390f35b610073600a81565b60405160ff9091168152602001610062565b60008087878787878760405161009a906100d2565b6100a996959493929190610177565b604051809103906000f0801580156100c5573d6000803e3d6000fd5b5098975050505050505050565b612340806101d783390190565b80356001600160a01b03811681146100f657600080fd5b919050565b60008060008060008060c0878903121561011457600080fd5b61011d876100df565b955061012b602088016100df565b9450610139604088016100df565b9350610147606088016100df565b9250610155608088016100df565b915060a08701356002811061016957600080fd5b809150509295509295509295565b6001600160a01b0387811682528681166020830152858116604083015284811660608301528316608082015260c08101600283106101c557634e487b7160e01b600052602160045260246000fd5b8260a083015297965050505050505056fe610120604052604051620023403803806200234083398101604081905262000027916200012c565b816001600160a01b0381166200005757604051631e4fbdf760e01b81526000600482015260240160405180910390fd5b6200006281620000bf565b506001600160a01b0380871660805285811660a05284811660c052831660e052806001811115620000975762000097620001b4565b610100816001811115620000af57620000af620001b4565b81525050505050505050620001ca565b600080546001600160a01b038381166001600160a01b0319831681178455604051919092169283917f8be0079c531659141344cd1fd0a4f28419497f9722a3daafe3b4186f6b6457e09190a35050565b80516001600160a01b03811681146200012757600080fd5b919050565b60008060008060008060c087890312156200014657600080fd5b62000151876200010f565b955062000161602088016200010f565b945062000171604088016200010f565b935062000181606088016200010f565b925062000191608088016200010f565b915060a087015160028110620001a657600080fd5b809150509295509295509295565b634e487b7160e01b600052602160045260246000fd5b60805160a05160c05160e051610100516120ba62000286600039600081816102370152818161042801528181610474015281816107d401528181610c6701528181610ded0152610e5d0152600081816103dd015281816104c9015261057201526000818161037401528181610605015281816106350152818161070401528181610ac401528181610b4e01528181610f8c01526110150152600081816101db0152610bd401526000818161026b0152610d1401526120ba6000f3fe608060405234801561001057600080fd5b50600436106101a95760003560e01c80636b148b60116100f9578063afb93bd311610097578063d0380fe211610071578063d0380fe2146103d8578063d13181b8146103ff578063e3ff760614610408578063f2fde38b1461041057600080fd5b8063afb93bd3146103a9578063b03698f2146103b2578063bea140b3146103c557600080fd5b80638da5cb5b116100d35780638da5cb5b1461034b5780639cfced971461035c578063a11752791461036f578063a21fb5111461039657600080fd5b80636b148b601461031d578063715018a6146103305780637485dba11461033857600080fd5b80632d966bf4116101665780635bb93995116101405780635bb93995146102d457806361750293146102e757806362a361bb146102f0578063683f3dc31461030357600080fd5b80632d966bf41461028d5780633dfb88b2146102a057806358bfc379146102c157600080fd5b806310bc5f51146101ae57806313fb8932146101d657806316425eeb1461021557806323e3feb11461021f578063295a5212146102325780632b7ac3f314610266575b600080fd5b6101c16101bc366004611413565b610423565b60405190151581526020015b60405180910390f35b6101fd7f000000000000000000000000000000000000000000000000000000000000000081565b6040516001600160a01b0390911681526020016101cd565b61021d6104bf565b005b61021d61022d366004611457565b6105f8565b6102597f000000000000000000000000000000000000000000000000000000000000000081565b6040516101cd91906114bd565b6101fd7f000000000000000000000000000000000000000000000000000000000000000081565b6101c161029b3660046114ea565b6107cf565b6102b36102ae366004611633565b610870565b6040519081526020016101cd565b6102b36102cf3660046116d5565b6108f1565b6102b36102e2366004611760565b61098b565b6102b360015481565b6102b36102fe366004611782565b6109a4565b61030b600a81565b60405160ff90911681526020016101cd565b6102b361032b366004611413565b6109de565b61021d610aab565b6101c16103463660046117e2565b610abd565b6000546001600160a01b03166101fd565b6102b361036a36600461182a565b610d9d565b6101fd7f000000000000000000000000000000000000000000000000000000000000000081565b6101c16103a43660046114ea565b610dd7565b6102b360025481565b6102b36103c0366004611865565b610ec6565b6102b36103d3366004611891565b610f4d565b6101fd7f000000000000000000000000000000000000000000000000000000000000000081565b6102b360035481565b6101c1610f87565b61021d61041e3660046118ff565b6110b9565b6000807f0000000000000000000000000000000000000000000000000000000000000000600181111561045857610458611485565b0361047057610469858585856110fc565b90506104b7565b60017f000000000000000000000000000000000000000000000000000000000000000060018111156104a4576104a4611485565b036104b7576104b4858585611136565b90505b949350505050565b6104c7611168565b7f00000000000000000000000000000000000000000000000000000000000000006001600160a01b0316638763d0c46040518163ffffffff1660e01b8152600401602060405180830381865afa158015610525573d6000803e3d6000fd5b505050506040513d601f19601f820116820180604052508101906105499190611923565b6105665760405163f13e1b8560e01b815260040160405180910390fd5b6003546000036105f6577f00000000000000000000000000000000000000000000000000000000000000006001600160a01b031663d13181b86040518163ffffffff1660e01b8152600401602060405180830381865afa1580156105ce573d6000803e3d6000fd5b505050506040513d601f19601f820116820180604052508101906105f29190611945565b6003555b565b610600611168565b6106297f0000000000000000000000000000000000000000000000000000000000000000611195565b6106316104bf565b60007f00000000000000000000000000000000000000000000000000000000000000006001600160a01b031663ac98e5df6040518163ffffffff1660e01b8152600401608060405180830381865afa158015610691573d6000803e3d6000fd5b505050506040513d601f19601f820116820180604052508101906106b5919061195e565b505050905060008160026106c99190611ab7565b90506000816002546106db9190611ac6565b60028054600101905560408051634f367f0f60e01b815281519293506000926001600160a01b037f00000000000000000000000000000000000000000000000000000000000000001692634f367f0f92600480820193918290030181865afa15801561074b573d6000803e3d6000fd5b505050506040513d601f19601f8201168201806040525081019061076f9190611add565b5090508082106107925760405163b3f8c18960e01b815260040160405180910390fd5b60006107a1868385878b610abd565b9050806107c1576040516341acf34d60e01b815260040160405180910390fd5b505050600193909355505050565b6000807f0000000000000000000000000000000000000000000000000000000000000000600181111561080457610804611485565b1461082257604051630280e1e560e61b815260040160405180910390fd5b6000610831858b8b8b8b611232565b905061083b6113b9565b8381526020810185905261084f828861098b565b604082015260015461086082610f4d565b149b9a5050505050505050505050565b60405163248f667760e01b8152600090739f462B8a25CEa98cd41145F2ea8e4a4686B353839063248f6677906108aa908590600401611b17565b602060405180830381865af41580156108c7573d6000803e3d6000fd5b505050506040513d601f19601f820116820180604052508101906108eb9190611945565b92915050565b60007f30644e72e131a029b85045b68181585d2833e84879b9709143e1f593f00000016002836040516020016109279190611b48565b60408051601f198184030181529082905261094191611b7e565b602060405180830381855afa15801561095e573d6000803e3d6000fd5b5050506040513d601f19601f820116820180604052508101906109819190611945565b6108eb9190611bc3565b60006109956113d7565b838152602081018390526104b7815b6040516314d2f97b60e11b81526000907364E7C56b583ceDb31aCF52CfEF5e17bb4d0C232d906329a5f2f6906108aa908590600401611bd7565b6000806109ec868686610ec6565b60408051600480825260a0820190925291925060009190602082016080803683370190505090508181600081518110610a2757610a27611b01565b60200260200101818152505060035481600181518110610a4957610a49611b01565b60200260200101818152505060015481600281518110610a6b57610a6b611b01565b6020026020010181815250508381600381518110610a8b57610a8b611b01565b602002602001018181525050610aa0816108f1565b979650505050505050565b610ab3611168565b6105f66000611369565b60008060007f00000000000000000000000000000000000000000000000000000000000000006001600160a01b031663ac98e5df6040518163ffffffff1660e01b8152600401608060405180830381865afa158015610b20573d6000803e3d6000fd5b505050506040513d601f19601f82011682018060405250810190610b44919061195e565b93505050915060007f00000000000000000000000000000000000000000000000000000000000000006001600160a01b031663bc14ee2b6040518163ffffffff1660e01b81526004016040805180830381865afa158015610ba9573d6000803e3d6000fd5b505050506040513d601f19601f82011682018060405250810190610bcd9190611bff565b50905060007f00000000000000000000000000000000000000000000000000000000000000006001600160a01b03166310b37e4d836001600160a01b031663652c76e46040518163ffffffff1660e01b8152600401602060405180830381865afa158015610c3f573d6000803e3d6000fd5b505050506040513d601f19601f82011682018060405250810190610c639190611c39565b86867f00000000000000000000000000000000000000000000000000000000000000006040518563ffffffff1660e01b8152600401610ca59493929190611c56565b600060405180830381865afa158015610cc2573d6000803e3d6000fd5b505050506040513d6000823e601f3d908101601f19168201604052610cea9190810190611d3b565b90506000610cfa8a8a8a8a6109de565b6040516308adcb2560e21b81529091506001600160a01b037f000000000000000000000000000000000000000000000000000000000000000016906322b72c9490610d4d908e9086908690600401611e99565b602060405180830381865afa158015610d6a573d6000803e3d6000fd5b505050506040513d601f19601f82011682018060405250810190610d8e9190611923565b9b9a5050505050505050505050565b604051630926f44b60e31b815260009073f2219FE2c9f804dB06409574B410b439015C0E9C90634937a258906108aa908590600401611f71565b600080610de7858b8b8b8b611232565b905060007f00000000000000000000000000000000000000000000000000000000000000006001811115610e1d57610e1d611485565b03610e5957610e2a6113b9565b610e34828861098b565b81526020810185905260408101849052600154610e5082610f4d565b14925050610eb9565b60017f00000000000000000000000000000000000000000000000000000000000000006001811115610e8d57610e8d611485565b03610eb957610e9a6113d7565b610ea4828861098b565b815260208101859052600154610860826109a4565b5098975050505050505050565b6000600160321b8410610eec57604051631805864f60e21b815260040160405180910390fd5b600160321b8310610f10576040516334dd29a960e21b815260040160405180910390fd5b600160321b8210610f345760405163cdc3c16b60e01b815260040160405180910390fd5b603284901b610f438385611f99565b6104b79190611fad565b6040516304b98e1d60e31b81526000907375674B724EA1C45cA535A279aC52B926738152A2906325cc70e8906108aa908590600401611fc0565b6000807f00000000000000000000000000000000000000000000000000000000000000006001600160a01b031663ac98e5df6040518163ffffffff1660e01b8152600401608060405180830381865afa158015610fe8573d6000803e3d6000fd5b505050506040513d601f19601f8201168201806040525081019061100c919061195e565b505050905060007f00000000000000000000000000000000000000000000000000000000000000006001600160a01b0316634f367f0f6040518163ffffffff1660e01b81526004016040805180830381865afa158015611070573d6000803e3d6000fd5b505050506040513d601f19601f820116820180604052508101906110949190611add565b509050806110a3836002611ab7565b6002546110b09190611ac6565b10159250505090565b6110c1611168565b6001600160a01b0381166110f057604051631e4fbdf760e01b8152600060048201526024015b60405180910390fd5b6110f981611369565b50565b60006111066113b9565b838152611113868661098b565b60208201526040810183905260015461112b82610f4d565b149695505050505050565b60006111406113d7565b82815261114d858561098b565b602082015260015461115e826109a4565b1495945050505050565b6000546001600160a01b031633146105f65760405163118cdaa760e01b81523360048201526024016110e7565b600080826001600160a01b0316634909229f6040518163ffffffff1660e01b81526004016040805180830381865afa1580156111d5573d6000803e3d6000fd5b505050506040513d601f19601f820116820180604052508101906111f99190611add565b9092509050600061120a8342611fe8565b905081811161122c57604051635c3017c560e11b815260040160405180910390fd5b50505050565b600080611240600587611bc3565b9050849150600061124f6113f5565b60005b8960ff168160ff16101561135c5760005b60058160ff16101561132657848160ff16036112995785838260ff166005811061128f5761128f611b01565b6020020152611316565b848160ff1611156112b6576112af600182611ffb565b93506112ba565b8093505b87878360ff168181106112cf576112cf611b01565b90506020028101906112e19190612014565b8560ff168181106112f4576112f4611b01565b90506020020135838260ff166005811061131057611310611b01565b60200201525b61131f81612065565b9050611263565b5061133260058a611f99565b985061133f60058a611bc3565b935061134a82610d9d565b945061135581612065565b9050611252565b5050505095945050505050565b600080546001600160a01b038381166001600160a01b0319831681178455604051919092169283917f8be0079c531659141344cd1fd0a4f28419497f9722a3daafe3b4186f6b6457e09190a35050565b60405180606001604052806003906020820280368337509192915050565b60405180604001604052806002906020820280368337509192915050565b6040518060a001604052806005906020820280368337509192915050565b6000806000806080858703121561142957600080fd5b5050823594602084013594506040840135936060013592509050565b8061010081018310156108eb57600080fd5b600080610120838503121561146b57600080fd5b8235915061147c8460208501611445565b90509250929050565b634e487b7160e01b600052602160045260246000fd5b600281106114b957634e487b7160e01b600052602160045260246000fd5b9052565b602081016108eb828461149b565b60ff811681146110f957600080fd5b80356114e5816114cb565b919050565b60008060008060008060008060e0898b03121561150657600080fd5b8835975060208901359650604089013567ffffffffffffffff8082111561152c57600080fd5b818b0191508b601f83011261154057600080fd5b81358181111561154f57600080fd5b8c60208260051b850101111561156457600080fd5b6020830198508097505050506060890135935061158360808a016114da565b925060a0890135915060c089013590509295985092959890939650565b634e487b7160e01b600052604160045260246000fd5b6040805190810167ffffffffffffffff811182821017156115d9576115d96115a0565b60405290565b60405160a0810167ffffffffffffffff811182821017156115d9576115d96115a0565b604051601f8201601f1916810167ffffffffffffffff8111828210171561162b5761162b6115a0565b604052919050565b60006080828403121561164557600080fd5b82601f83011261165457600080fd5b6040516080810181811067ffffffffffffffff82111715611677576116776115a0565b60405280608084018581111561168c57600080fd5b845b818110156116a657803583526020928301920161168e565b509195945050505050565b600067ffffffffffffffff8211156116cb576116cb6115a0565b5060051b60200190565b600060208083850312156116e857600080fd5b823567ffffffffffffffff8111156116ff57600080fd5b8301601f8101851361171057600080fd5b803561172361171e826116b1565b611602565b81815260059190911b8201830190838101908783111561174257600080fd5b928401925b82841015610aa057833582529284019290840190611747565b6000806040838503121561177357600080fd5b50508035926020909101359150565b60006040828403121561179457600080fd5b82601f8301126117a357600080fd5b6117ab6115b6565b8060408401858111156117bd57600080fd5b845b818110156117d75780358452602093840193016117bf565b509095945050505050565b600080600080600061018086880312156117fb57600080fd5b6118058787611445565b9761010087013597506101208701359661014081013596506101600135945092505050565b600060a0828403121561183c57600080fd5b82601f83011261184b57600080fd5b6118536115df565b8060a08401858111156117bd57600080fd5b60008060006060848603121561187a57600080fd5b505081359360208301359350604090920135919050565b6000606082840312156118a357600080fd5b82601f8301126118b257600080fd5b6040516060810181811067ffffffffffffffff821117156118d5576118d56115a0565b60405280606084018581111561168c57600080fd5b6001600160a01b03811681146110f957600080fd5b60006020828403121561191157600080fd5b813561191c816118ea565b9392505050565b60006020828403121561193557600080fd5b8151801515811461191c57600080fd5b60006020828403121561195757600080fd5b5051919050565b6000806000806080858703121561197457600080fd5b845161197f816114cb565b6020860151909450611990816114cb565b60408601519093506119a1816114cb565b60608601519092506119b2816114cb565b939692955090935050565b634e487b7160e01b600052601160045260246000fd5b600181815b80851115611a0e5781600019048211156119f4576119f46119bd565b80851615611a0157918102915b93841c93908002906119d8565b509250929050565b600082611a25575060016108eb565b81611a32575060006108eb565b8160018114611a485760028114611a5257611a6e565b60019150506108eb565b60ff841115611a6357611a636119bd565b50506001821b6108eb565b5060208310610133831016604e8410600b8410161715611a91575081810a6108eb565b611a9b83836119d3565b8060001904821115611aaf57611aaf6119bd565b029392505050565b600061191c60ff841683611a16565b80820281158282048414176108eb576108eb6119bd565b60008060408385031215611af057600080fd5b505080516020909101519092909150565b634e487b7160e01b600052603260045260246000fd5b60808101818360005b6004811015611b3f578151835260209283019290910190600101611b20565b50505092915050565b815160009082906020808601845b83811015611b7257815185529382019390820190600101611b56565b50929695505050505050565b6000825160005b81811015611b9f5760208186018101518583015201611b85565b506000920191825250919050565b634e487b7160e01b600052601260045260246000fd5b600082611bd257611bd2611bad565b500690565b60408101818360005b6002811015611b3f578151835260209283019290910190600101611be0565b60008060408385031215611c1257600080fd5b8251611c1d816118ea565b6020840151909250611c2e816118ea565b809150509250929050565b600060208284031215611c4b57600080fd5b815161191c816114cb565b60ff858116825284811660208301528316604082015260808101611c7d606083018461149b565b95945050505050565b600060408284031215611c9857600080fd5b611ca06115b6565b9050815181526020820151602082015292915050565b600082601f830112611cc757600080fd5b611ccf6115b6565b806040840185811115611ce157600080fd5b845b818110156117d7578051845260209384019301611ce3565b600060808284031215611d0d57600080fd5b611d156115b6565b9050611d218383611cb6565b8152611d308360408401611cb6565b602082015292915050565b60006020808385031215611d4e57600080fd5b825167ffffffffffffffff80821115611d6657600080fd5b908401906101e08287031215611d7b57600080fd5b611d836115df565b611d8d8784611c86565b81526040611d9d88828601611cfb565b85830152611dae8860c08601611cfb565b81830152611dc0886101408601611cfb565b60608301526101c084015183811115611dd857600080fd5b80850194505087601f850112611ded57600080fd5b83519250611dfd61171e846116b1565b83815260069390931b84018501928581019089851115611e1c57600080fd5b948601945b84861015611e4257611e338a87611c86565b82529482019490860190611e21565b60808401525090979650505050505050565b8060005b600281101561122c578151845260209384019390910190600101611e58565b611e82828251611e54565b6020810151611e946040840182611e54565b505050565b6000610140610100808785378181850152506103208301611ec7828501875180518252602090810151910152565b6020915081860151611edd610180860182611e77565b50604080870151611ef2610200870182611e77565b506060870151611f06610280870182611e77565b5060808701516101e06103008701528051928390528301916000906103408701905b80831015611f5957611f4582865180518252602090810151910152565b938501936001929092019190830190611f28565b50809550505050505082610120830152949350505050565b60a08101818360005b6005811015611b3f578151835260209283019290910190600101611f7a565b600082611fa857611fa8611bad565b500490565b808201808211156108eb576108eb6119bd565b60608101818360005b6003811015611b3f578151835260209283019290910190600101611fc9565b818103818111156108eb576108eb6119bd565b60ff82811682821603908111156108eb576108eb6119bd565b6000808335601e1984360301811261202b57600080fd5b83018035915067ffffffffffffffff82111561204657600080fd5b6020019150600581901b360382131561205e57600080fd5b9250929050565b600060ff821660ff810361207b5761207b6119bd565b6001019291505056fea26469706673582212200cb4eba6e1b2e9b4d24efb340441bbac00503bd83c85d90e6e1b6ebde501fff464736f6c63430008140033a26469706673582212207eed7110782263144e6da160dd52d57e6462691cd4595904b077f2a424ec2f5f64736f6c63430008140033",
  "deployedBytecode": "0x608060405234801561001057600080fd5b50600436106100365760003560e01c8063431a71751461003b578063683f3dc31461006b575b600080fd5b61004e6100493660046100fb565b610085565b6040516001600160a01b0390911681526020015b60405180910390f35b610073600a81565b60405160ff9091168152602001610062565b60008087878787878760405161009a906100d2565b6100a996959493929190610177565b604051809103906000f0801580156100c5573d6000803e3d6000fd5b5098975050505050505050565b612340806101d783390190565b80356001600160a01b03811681146100f657600080fd5b919050565b60008060008060008060c0878903121561011457600080fd5b61011d876100df565b955061012b602088016100df565b9450610139604088016100df565b9350610147606088016100df565b9250610155608088016100df565b915060a08701356002811061016957600080fd5b809150509295509295509295565b6001600160a01b0387811682528681166020830152858116604083015284811660608301528316608082015260c08101600283106101c557634e487b7160e01b600052602160045260246000fd5b8260a083015297965050505050505056fe610120604052604051620023403803806200234083398101604081905262000027916200012c565b816001600160a01b0381166200005757604051631e4fbdf760e01b81526000600482015260240160405180910390fd5b6200006281620000bf565b506001600160a01b0380871660805285811660a05284811660c052831660e052806001811115620000975762000097620001b4565b610100816001811115620000af57620000af620001b4565b81525050505050505050620001ca565b600080546001600160a01b038381166001600160a01b0319831681178455604051919092169283917f8be0079c531659141344cd1fd0a4f28419497f9722a3daafe3b4186f6b6457e09190a35050565b80516001600160a01b03811681146200012757600080fd5b919050565b60008060008060008060c087890312156200014657600080fd5b62000151876200010f565b955062000161602088016200010f565b945062000171604088016200010f565b935062000181606088016200010f565b925062000191608088016200010f565b915060a087015160028110620001a657600080fd5b809150509295509295509295565b634e487b7160e01b600052602160045260246000fd5b60805160a05160c05160e051610100516120ba62000286600039600081816102370152818161042801528181610474015281816107d401528181610c6701528181610ded0152610e5d0152600081816103dd015281816104c9015261057201526000818161037401528181610605015281816106350152818161070401528181610ac401528181610b4e01528181610f8c01526110150152600081816101db0152610bd401526000818161026b0152610d1401526120ba6000f3fe608060405234801561001057600080fd5b50600436106101a95760003560e01c80636b148b60116100f9578063afb93bd311610097578063d0380fe211610071578063d0380fe2146103d8578063d13181b8146103ff578063e3ff760614610408578063f2fde38b1461041057600080fd5b8063afb93bd3146103a9578063b03698f2146103b2578063bea140b3146103c557600080fd5b80638da5cb5b116100d35780638da5cb5b1461034b5780639cfced971461035c578063a11752791461036f578063a21fb5111461039657600080fd5b80636b148b601461031d578063715018a6146103305780637485dba11461033857600080fd5b80632d966bf4116101665780635bb93995116101405780635bb93995146102d457806361750293146102e757806362a361bb146102f0578063683f3dc31461030357600080fd5b80632d966bf41461028d5780633dfb88b2146102a057806358bfc379146102c157600080fd5b806310bc5f51146101ae57806313fb8932146101d657806316425eeb1461021557806323e3feb11461021f578063295a5212146102325780632b7ac3f314610266575b600080fd5b6101c16101bc366004611413565b610423565b60405190151581526020015b60405180910390f35b6101fd7f000000000000000000000000000000000000000000000000000000000000000081565b6040516001600160a01b0390911681526020016101cd565b61021d6104bf565b005b61021d61022d366004611457565b6105f8565b6102597f000000000000000000000000000000000000000000000000000000000000000081565b6040516101cd91906114bd565b6101fd7f000000000000000000000000000000000000000000000000000000000000000081565b6101c161029b3660046114ea565b6107cf565b6102b36102ae366004611633565b610870565b6040519081526020016101cd565b6102b36102cf3660046116d5565b6108f1565b6102b36102e2366004611760565b61098b565b6102b360015481565b6102b36102fe366004611782565b6109a4565b61030b600a81565b60405160ff90911681526020016101cd565b6102b361032b366004611413565b6109de565b61021d610aab565b6101c16103463660046117e2565b610abd565b6000546001600160a01b03166101fd565b6102b361036a36600461182a565b610d9d565b6101fd7f000000000000000000000000000000000000000000000000000000000000000081565b6101c16103a43660046114ea565b610dd7565b6102b360025481565b6102b36103c0366004611865565b610ec6565b6102b36103d3366004611891565b610f4d565b6101fd7f000000000000000000000000000000000000000000000000000000000000000081565b6102b360035481565b6101c1610f87565b61021d61041e3660046118ff565b6110b9565b6000807f0000000000000000000000000000000000000000000000000000000000000000600181111561045857610458611485565b0361047057610469858585856110fc565b90506104b7565b60017f000000000000000000000000000000000000000000000000000000000000000060018111156104a4576104a4611485565b036104b7576104b4858585611136565b90505b949350505050565b6104c7611168565b7f00000000000000000000000000000000000000000000000000000000000000006001600160a01b0316638763d0c46040518163ffffffff1660e01b8152600401602060405180830381865afa158015610525573d6000803e3d6000fd5b505050506040513d601f19601f820116820180604052508101906105499190611923565b6105665760405163f13e1b8560e01b815260040160405180910390fd5b6003546000036105f6577f00000000000000000000000000000000000000000000000000000000000000006001600160a01b031663d13181b86040518163ffffffff1660e01b8152600401602060405180830381865afa1580156105ce573d6000803e3d6000fd5b505050506040513d601f19601f820116820180604052508101906105f29190611945565b6003555b565b610600611168565b6106297f0000000000000000000000000000000000000000000000000000000000000000611195565b6106316104bf565b60007f00000000000000000000000000000000000000000000000000000000000000006001600160a01b031663ac98e5df6040518163ffffffff1660e01b8152600401608060405180830381865afa158015610691573d6000803e3d6000fd5b505050506040513d601f19601f820116820180604052508101906106b5919061195e565b505050905060008160026106c99190611ab7565b90506000816002546106db9190611ac6565b60028054600101905560408051634f367f0f60e01b815281519293506000926001600160a01b037f00000000000000000000000000000000000000000000000000000000000000001692634f367f0f92600480820193918290030181865afa15801561074b573d6000803e3d6000fd5b505050506040513d601f19601f8201168201806040525081019061076f9190611add565b5090508082106107925760405163b3f8c18960e01b815260040160405180910390fd5b60006107a1868385878b610abd565b9050806107c1576040516341acf34d60e01b815260040160405180910390fd5b505050600193909355505050565b6000807f0000000000000000000000000000000000000000000000000000000000000000600181111561080457610804611485565b1461082257604051630280e1e560e61b815260040160405180910390fd5b6000610831858b8b8b8b611232565b905061083b6113b9565b8381526020810185905261084f828861098b565b604082015260015461086082610f4d565b149b9a5050505050505050505050565b60405163248f667760e01b815260009073__$ce9c2c925f157047e54fa833ec4e61409f$__9063248f6677906108aa908590600401611b17565b602060405180830381865af41580156108c7573d6000803e3d6000fd5b505050506040513d601f19601f820116820180604052508101906108eb9190611945565b92915050565b60007f30644e72e131a029b85045b68181585d2833e84879b9709143e1f593f00000016002836040516020016109279190611b48565b60408051601f198184030181529082905261094191611b7e565b602060405180830381855afa15801561095e573d6000803e3d6000fd5b5050506040513d601f19601f820116820180604052508101906109819190611945565b6108eb9190611bc3565b60006109956113d7565b838152602081018390526104b7815b6040516314d2f97b60e11b815260009073__$6574937f64fc1d7710ec0e28b7a36713bb$__906329a5f2f6906108aa908590600401611bd7565b6000806109ec868686610ec6565b60408051600480825260a0820190925291925060009190602082016080803683370190505090508181600081518110610a2757610a27611b01565b60200260200101818152505060035481600181518110610a4957610a49611b01565b60200260200101818152505060015481600281518110610a6b57610a6b611b01565b6020026020010181815250508381600381518110610a8b57610a8b611b01565b602002602001018181525050610aa0816108f1565b979650505050505050565b610ab3611168565b6105f66000611369565b60008060007f00000000000000000000000000000000000000000000000000000000000000006001600160a01b031663ac98e5df6040518163ffffffff1660e01b8152600401608060405180830381865afa158015610b20573d6000803e3d6000fd5b505050506040513d601f19601f82011682018060405250810190610b44919061195e565b93505050915060007f00000000000000000000000000000000000000000000000000000000000000006001600160a01b031663bc14ee2b6040518163ffffffff1660e01b81526004016040805180830381865afa158015610ba9573d6000803e3d6000fd5b505050506040513d601f19601f82011682018060405250810190610bcd9190611bff565b50905060007f00000000000000000000000000000000000000000000000000000000000000006001600160a01b03166310b37e4d836001600160a01b031663652c76e46040518163ffffffff1660e01b8152600401602060405180830381865afa158015610c3f573d6000803e3d6000fd5b505050506040513d601f19601f82011682018060405250810190610c639190611c39565b86867f00000000000000000000000000000000000000000000000000000000000000006040518563ffffffff1660e01b8152600401610ca59493929190611c56565b600060405180830381865afa158015610cc2573d6000803e3d6000fd5b505050506040513d6000823e601f3d908101601f19168201604052610cea9190810190611d3b565b90506000610cfa8a8a8a8a6109de565b6040516308adcb2560e21b81529091506001600160a01b037f000000000000000000000000000000000000000000000000000000000000000016906322b72c9490610d4d908e9086908690600401611e99565b602060405180830381865afa158015610d6a573d6000803e3d6000fd5b505050506040513d601f19601f82011682018060405250810190610d8e9190611923565b9b9a5050505050505050505050565b604051630926f44b60e31b815260009073__$20527677031d76601747626a9845039fe4$__90634937a258906108aa908590600401611f71565b600080610de7858b8b8b8b611232565b905060007f00000000000000000000000000000000000000000000000000000000000000006001811115610e1d57610e1d611485565b03610e5957610e2a6113b9565b610e34828861098b565b81526020810185905260408101849052600154610e5082610f4d565b14925050610eb9565b60017f00000000000000000000000000000000000000000000000000000000000000006001811115610e8d57610e8d611485565b03610eb957610e9a6113d7565b610ea4828861098b565b815260208101859052600154610860826109a4565b5098975050505050505050565b6000600160321b8410610eec57604051631805864f60e21b815260040160405180910390fd5b600160321b8310610f10576040516334dd29a960e21b815260040160405180910390fd5b600160321b8210610f345760405163cdc3c16b60e01b815260040160405180910390fd5b603284901b610f438385611f99565b6104b79190611fad565b6040516304b98e1d60e31b815260009073__$dc01a9744591ab014bc46a3b7671cdaefb$__906325cc70e8906108aa908590600401611fc0565b6000807f00000000000000000000000000000000000000000000000000000000000000006001600160a01b031663ac98e5df6040518163ffffffff1660e01b8152600401608060405180830381865afa158015610fe8573d6000803e3d6000fd5b505050506040513d601f19601f8201168201806040525081019061100c919061195e565b505050905060007f00000000000000000000000000000000000000000000000000000000000000006001600160a01b0316634f367f0f6040518163ffffffff1660e01b81526004016040805180830381865afa158015611070573d6000803e3d6000fd5b505050506040513d601f19601f820116820180604052508101906110949190611add565b509050806110a3836002611ab7565b6002546110b09190611ac6565b10159250505090565b6110c1611168565b6001600160a01b0381166110f057604051631e4fbdf760e01b8152600060048201526024015b60405180910390fd5b6110f981611369565b50565b60006111066113b9565b838152611113868661098b565b60208201526040810183905260015461112b82610f4d565b149695505050505050565b60006111406113d7565b82815261114d858561098b565b602082015260015461115e826109a4565b1495945050505050565b6000546001600160a01b031633146105f65760405163118cdaa760e01b81523360048201526024016110e7565b600080826001600160a01b0316634909229f6040518163ffffffff1660e01b81526004016040805180830381865afa1580156111d5573d6000803e3d6000fd5b505050506040513d601f19601f820116820180604052508101906111f99190611add565b9092509050600061120a8342611fe8565b905081811161122c57604051635c3017c560e11b815260040160405180910390fd5b50505050565b600080611240600587611bc3565b9050849150600061124f6113f5565b60005b8960ff168160ff16101561135c5760005b60058160ff16101561132657848160ff16036112995785838260ff166005811061128f5761128f611b01565b6020020152611316565b848160ff1611156112b6576112af600182611ffb565b93506112ba565b8093505b87878360ff168181106112cf576112cf611b01565b90506020028101906112e19190612014565b8560ff168181106112f4576112f4611b01565b90506020020135838260ff166005811061131057611310611b01565b60200201525b61131f81612065565b9050611263565b5061133260058a611f99565b985061133f60058a611bc3565b935061134a82610d9d565b945061135581612065565b9050611252565b5050505095945050505050565b600080546001600160a01b038381166001600160a01b0319831681178455604051919092169283917f8be0079c531659141344cd1fd0a4f28419497f9722a3daafe3b4186f6b6457e09190a35050565b60405180606001604052806003906020820280368337509192915050565b60405180604001604052806002906020820280368337509192915050565b6040518060a001604052806005906020820280368337509192915050565b6000806000806080858703121561142957600080fd5b5050823594602084013594506040840135936060013592509050565b8061010081018310156108eb57600080fd5b600080610120838503121561146b57600080fd5b8235915061147c8460208501611445565b90509250929050565b634e487b7160e01b600052602160045260246000fd5b600281106114b957634e487b7160e01b600052602160045260246000fd5b9052565b602081016108eb828461149b565b60ff811681146110f957600080fd5b80356114e5816114cb565b919050565b60008060008060008060008060e0898b03121561150657600080fd5b8835975060208901359650604089013567ffffffffffffffff8082111561152c57600080fd5b818b0191508b601f83011261154057600080fd5b81358181111561154f57600080fd5b8c60208260051b850101111561156457600080fd5b6020830198508097505050506060890135935061158360808a016114da565b925060a0890135915060c089013590509295985092959890939650565b634e487b7160e01b600052604160045260246000fd5b6040805190810167ffffffffffffffff811182821017156115d9576115d96115a0565b60405290565b60405160a0810167ffffffffffffffff811182821017156115d9576115d96115a0565b604051601f8201601f1916810167ffffffffffffffff8111828210171561162b5761162b6115a0565b604052919050565b60006080828403121561164557600080fd5b82601f83011261165457600080fd5b6040516080810181811067ffffffffffffffff82111715611677576116776115a0565b60405280608084018581111561168c57600080fd5b845b818110156116a657803583526020928301920161168e565b509195945050505050565b600067ffffffffffffffff8211156116cb576116cb6115a0565b5060051b60200190565b600060208083850312156116e857600080fd5b823567ffffffffffffffff8111156116ff57600080fd5b8301601f8101851361171057600080fd5b803561172361171e826116b1565b611602565b81815260059190911b8201830190838101908783111561174257600080fd5b928401925b82841015610aa057833582529284019290840190611747565b6000806040838503121561177357600080fd5b50508035926020909101359150565b60006040828403121561179457600080fd5b82601f8301126117a357600080fd5b6117ab6115b6565b8060408401858111156117bd57600080fd5b845b818110156117d75780358452602093840193016117bf565b509095945050505050565b600080600080600061018086880312156117fb57600080fd5b6118058787611445565b9761010087013597506101208701359661014081013596506101600135945092505050565b600060a0828403121561183c57600080fd5b82601f83011261184b57600080fd5b6118536115df565b8060a08401858111156117bd57600080fd5b60008060006060848603121561187a57600080fd5b505081359360208301359350604090920135919050565b6000606082840312156118a357600080fd5b82601f8301126118b257600080fd5b6040516060810181811067ffffffffffffffff821117156118d5576118d56115a0565b60405280606084018581111561168c57600080fd5b6001600160a01b03811681146110f957600080fd5b60006020828403121561191157600080fd5b813561191c816118ea565b9392505050565b60006020828403121561193557600080fd5b8151801515811461191c57600080fd5b60006020828403121561195757600080fd5b5051919050565b6000806000806080858703121561197457600080fd5b845161197f816114cb565b6020860151909450611990816114cb565b60408601519093506119a1816114cb565b60608601519092506119b2816114cb565b939692955090935050565b634e487b7160e01b600052601160045260246000fd5b600181815b80851115611a0e5781600019048211156119f4576119f46119bd565b80851615611a0157918102915b93841c93908002906119d8565b509250929050565b600082611a25575060016108eb565b81611a32575060006108eb565b8160018114611a485760028114611a5257611a6e565b60019150506108eb565b60ff841115611a6357611a636119bd565b50506001821b6108eb565b5060208310610133831016604e8410600b8410161715611a91575081810a6108eb565b611a9b83836119d3565b8060001904821115611aaf57611aaf6119bd565b029392505050565b600061191c60ff841683611a16565b80820281158282048414176108eb576108eb6119bd565b60008060408385031215611af057600080fd5b505080516020909101519092909150565b634e487b7160e01b600052603260045260246000fd5b60808101818360005b6004811015611b3f578151835260209283019290910190600101611b20565b50505092915050565b815160009082906020808601845b83811015611b7257815185529382019390820190600101611b56565b50929695505050505050565b6000825160005b81811015611b9f5760208186018101518583015201611b85565b506000920191825250919050565b634e487b7160e01b600052601260045260246000fd5b600082611bd257611bd2611bad565b500690565b60408101818360005b6002811015611b3f578151835260209283019290910190600101611be0565b60008060408385031215611c1257600080fd5b8251611c1d816118ea565b6020840151909250611c2e816118ea565b809150509250929050565b600060208284031215611c4b57600080fd5b815161191c816114cb565b60ff858116825284811660208301528316604082015260808101611c7d606083018461149b565b95945050505050565b600060408284031215611c9857600080fd5b611ca06115b6565b9050815181526020820151602082015292915050565b600082601f830112611cc757600080fd5b611ccf6115b6565b806040840185811115611ce157600080fd5b845b818110156117d7578051845260209384019301611ce3565b600060808284031215611d0d57600080fd5b611d156115b6565b9050611d218383611cb6565b8152611d308360408401611cb6565b602082015292915050565b60006020808385031215611d4e57600080fd5b825167ffffffffffffffff80821115611d6657600080fd5b908401906101e08287031215611d7b57600080fd5b611d836115df565b611d8d8784611c86565b81526040611d9d88828601611cfb565b85830152611dae8860c08601611cfb565b81830152611dc0886101408601611cfb565b60608301526101c084015183811115611dd857600080fd5b80850194505087601f850112611ded57600080fd5b83519250611dfd61171e846116b1565b83815260069390931b84018501928581019089851115611e1c57600080fd5b948601945b84861015611e4257611e338a87611c86565b82529482019490860190611e21565b60808401525090979650505050505050565b8060005b600281101561122c578151845260209384019390910190600101611e58565b611e82828251611e54565b6020810151611e946040840182611e54565b505050565b6000610140610100808785378181850152506103208301611ec7828501875180518252602090810151910152565b6020915081860151611edd610180860182611e77565b50604080870151611ef2610200870182611e77565b506060870151611f06610280870182611e77565b5060808701516101e06103008701528051928390528301916000906103408701905b80831015611f5957611f4582865180518252602090810151910152565b938501936001929092019190830190611f28565b50809550505050505082610120830152949350505050565b60a08101818360005b6005811015611b3f578151835260209283019290910190600101611f7a565b600082611fa857611fa8611bad565b500490565b808201808211156108eb576108eb6119bd565b60608101818360005b6003811015611b3f578151835260209283019290910190600101611fc9565b818103818111156108eb576108eb6119bd565b60ff82811682821603908111156108eb576108eb6119bd565b6000808335601e1984360301811261202b57600080fd5b83018035915067ffffffffffffffff82111561204657600080fd5b6020019150600581901b360382131561205e57600080fd5b9250929050565b600060ff821660ff810361207b5761207b6119bd565b6001019291505056fea26469706673582212200cb4eba6e1b2e9b4d24efb340441bbac00503bd83c85d90e6e1b6ebde501fff464736f6c63430008140033a26469706673582212207eed7110782263144e6da160dd52d57e6462691cd4595904b077f2a424ec2f5f64736f6c63430008140033",
  "libraries": {
    "PoseidonT3": "0x64E7C56b583ceDb31aCF52CfEF5e17bb4d0C232d",
    "PoseidonT4": "0x75674B724EA1C45cA535A279aC52B926738152A2",
    "PoseidonT5": "0x9f462B8a25CEa98cd41145F2ea8e4a4686B35383",
    "PoseidonT6": "0xf2219FE2c9f804dB06409574B410b439015C0E9C"
  }
}